{"contracts/GeneratedVerifier.sol":{"GeneratedVerifier":{"abi":[{"inputs":[{"internalType":"uint256[2]","name":"_alpha1","type":"uint256[2]"},{"internalType":"uint256[2][2]","name":"_beta2","type":"uint256[2][2]"},{"internalType":"uint256[2][2]","name":"_gamma2","type":"uint256[2][2]"},{"internalType":"uint256[2][2]","name":"_delta2","type":"uint256[2][2]"},{"internalType":"uint256[2][]","name":"_IC","type":"uint256[2][]"}],"stateMutability":"nonpayable","type":"constructor"},{"inputs":[],"name":"PUBLIC_INPUT_COUNT","outputs":[{"internalType":"uint256","name":"","type":"uint256"}],"stateMutability":"view","type":"function"},{"inputs":[{"internalType":"uint256[2]","name":"_pA","type":"uint256[2]"},{"internalType":"uint256[2][2]","name":"_pB","type":"uint256[2][2]"},{"internalType":"uint256[2]","name":"_pC","type":"uint256[2]"},{"internalType":"uint256[3]","name":"_pubSignals","type":"uint256[3]"}],"name":"verifyProof","outputs":[{"internalType":"bool","name":"success","type":"bool"}],"stateMutability":"view","type":"function"}],"evm":{"bytecode":{"linkReferences":{},"object":"604060808152346103a0576107dc8038038061001a816103da565b9283398101906101e0818303126103a05761003582826103ff565b6100418385840161043f565b9261004f8160c0850161043f565b61005d82610140860161043f565b6101c08501516001600160401b03959192918682116103a057019583601f880112156103a0578651948686116103a55760209761009e898860051b016103da565b95898789815201908a829960061b840101928184116103a0578b808e9201935b858510610388575050505050506004968786510361032c5789519060a08201908111828210176103175786916080918c52838152848b820152858c820152866060820152015260005b600281106103075750506002906000905b600282106102d1575050506006906000905b6002821061029b57505050600a906000905b6002821061026557505050519168010000000000000000831161025057600e549083600e558184106101c4575b5050600e60005282600020926000915b83831061018e578551610351908161048b8239f35b81815160005b600281106101b057505060029060019201950192019193610179565b815188820155849290910190600101610194565b6001600160ff1b03828116830361023b57841684036102265750600e60005283600020600191821b81019084831b015b8181106102015750610169565b6002810183825b82811061021a575050506002016101f4565b60008155018490610208565b601190634e487b7160e01b6000525260246000fd5b601182634e487b7160e01b6000525260246000fd5b604190634e487b7160e01b6000525260246000fd5b86815160005b600281106102875750506002906001920193019101909161013c565b81518682015589929091019060010161026b565b87815160005b600281106102bd5750506002906001920193019101909161012a565b8151868201558a92909101906001016102a1565b88815160005b600281106102f357505060029060019201930191019091610118565b8151868201558b92909101906001016102d7565b8151815590880190600101610107565b604189634e487b7160e01b6000525260246000fd5b895162461bcd60e51b81528089018a9052603060248201527f47656e65726174656456657269666965723a20496e636f7272656374206e756d60448201526f626572206f6620494320706f696e747360801b6064820152608490fd5b61039284866103ff565b8152019201918b8d916100be565b600080fd5b634e487b7160e01b600052604160045260246000fd5b60408051919082016001600160401b038111838210176103a557604052565b6040519190601f01601f191682016001600160401b038111838210176103a557604052565b9080601f830112156103a0576104136103bb565b8092604081019283116103a057905b82821061042f5750505090565b8151815260209182019101610422565b81601f820112156103a0576104526103bb565b809260808301928184116103a057915b838310610470575050505090565b602060409161047f84866103ff565b81520192019161046256fe60806040818152600436101561001457600080fd5b600091823560e01c90816311479fea1461005657506399fb6eb21461003857600080fd5b346100525781600319360112610052576020905160038152f35b5080fd5b919050346101f1576101603660031901126101f15736602312156101f15761007d826101f5565b81604492368411610179576004905b8482106101e157505036606312156101dd5781516100a9816101f5565b8060c4943686116101d957905b85821061017d5750503660e31215610179578251916100d4836101f5565b826101049536871161014d57905b8682106101695750503661012312156101655783516060810181811067ffffffffffffffff8211176101515785526101649536871161014d5760209750905b86821061013e575050610135939450610227565b90519015158152f35b81358152908701908701610121565b8780fd5b634e487b7160e01b88526041600452602488fd5b8580fd5b81358152602091820191016100e2565b8480fd5b36601f830112156101d9578451610193816101f5565b808684013681116101d55791879285949294905b8082106101bf575050815292019160200190506100b6565b813586526020958601958a9550909101906101a7565b8980fd5b8680fd5b8380fd5b813581526020918201910161008c565b8280fd5b6040810190811067ffffffffffffffff82111761021157604052565b634e487b7160e01b600052604160045260246000fd5b9091600e541561030557600e600090815260405192907fbb7b4a454dc3493923482f07822329ed19e8244eff582cc204f8554c3620c3fd81855b600282106102ef57505050610275846101f5565b805b600381106102ca57505051151592836102be575b50826102b3575b50816102a8575b506102a357600190565b600190565b905051151538610299565b511515915038610292565b5151151592503861028b565b60001981146102db57600101610277565b634e487b7160e01b82526011600452602482fd5b6001602081928554815201930191019091610261565b634e487b7160e01b600052603260045260246000fdfea2646970667358221220ea87201c10e69f34c2a98e3d07e1142e28c5fd2e705543510e64df6d15f1742664736f6c63430008110033","opcodes":"PUSH1 0x40 PUSH1 0x80 DUP2 MSTORE CALLVALUE PUSH2 0x3A0 JUMPI PUSH2 0x7DC DUP1 CODESIZE SUB DUP1 PUSH2 0x1A DUP2 PUSH2 0x3DA JUMP JUMPDEST SWAP3 DUP4 CODECOPY DUP2 ADD SWAP1 PUSH2 0x1E0 DUP2 DUP4 SUB SLT PUSH2 0x3A0 JUMPI PUSH2 0x35 DUP3 DUP3 PUSH2 0x3FF JUMP JUMPDEST PUSH2 0x41 DUP4 DUP6 DUP5 ADD PUSH2 0x43F JUMP JUMPDEST SWAP3 PUSH2 0x4F DUP2 PUSH1 0xC0 DUP6 ADD PUSH2 0x43F JUMP JUMPDEST PUSH2 0x5D DUP3 PUSH2 0x140 DUP7 ADD PUSH2 0x43F JUMP JUMPDEST PUSH2 0x1C0 DUP6 ADD MLOAD PUSH1 0x1 PUSH1 0x1 PUSH1 0x40 SHL SUB SWAP6 SWAP2 SWAP3 SWAP2 DUP7 DUP3 GT PUSH2 0x3A0 JUMPI ADD SWAP6 DUP4 PUSH1 0x1F DUP9 ADD SLT ISZERO PUSH2 0x3A0 JUMPI DUP7 MLOAD SWAP5 DUP7 DUP7 GT PUSH2 0x3A5 JUMPI PUSH1 0x20 SWAP8 PUSH2 0x9E DUP10 DUP9 PUSH1 0x5 SHL ADD PUSH2 0x3DA JUMP JUMPDEST SWAP6 DUP10 DUP8 DUP10 DUP2 MSTORE ADD SWAP1 DUP11 DUP3 SWAP10 PUSH1 0x6 SHL DUP5 ADD ADD SWAP3 DUP2 DUP5 GT PUSH2 0x3A0 JUMPI DUP12 DUP1 DUP15 SWAP3 ADD SWAP4 JUMPDEST DUP6 DUP6 LT PUSH2 0x388 JUMPI POP POP POP POP POP POP PUSH1 0x4 SWAP7 DUP8 DUP7 MLOAD SUB PUSH2 0x32C JUMPI DUP10 MLOAD SWAP1 PUSH1 0xA0 DUP3 ADD SWAP1 DUP2 GT DUP3 DUP3 LT OR PUSH2 0x317 JUMPI DUP7 SWAP2 PUSH1 0x80 SWAP2 DUP13 MSTORE DUP4 DUP2 MSTORE DUP5 DUP12 DUP3 ADD MSTORE DUP6 DUP13 DUP3 ADD MSTORE DUP7 PUSH1 0x60 DUP3 ADD MSTORE ADD MSTORE PUSH1 0x0 JUMPDEST PUSH1 0x2 DUP2 LT PUSH2 0x307 JUMPI POP POP PUSH1 0x2 SWAP1 PUSH1 0x0 SWAP1 JUMPDEST PUSH1 0x2 DUP3 LT PUSH2 0x2D1 JUMPI POP POP POP PUSH1 0x6 SWAP1 PUSH1 0x0 SWAP1 JUMPDEST PUSH1 0x2 DUP3 LT PUSH2 0x29B JUMPI POP POP POP PUSH1 0xA SWAP1 PUSH1 0x0 SWAP1 JUMPDEST PUSH1 0x2 DUP3 LT PUSH2 0x265 JUMPI POP POP POP MLOAD SWAP2 PUSH9 0x10000000000000000 DUP4 GT PUSH2 0x250 JUMPI PUSH1 0xE SLOAD SWAP1 DUP4 PUSH1 0xE SSTORE DUP2 DUP5 LT PUSH2 0x1C4 JUMPI JUMPDEST POP POP PUSH1 0xE PUSH1 0x0 MSTORE DUP3 PUSH1 0x0 KECCAK256 SWAP3 PUSH1 0x0 SWAP2 JUMPDEST DUP4 DUP4 LT PUSH2 0x18E JUMPI DUP6 MLOAD PUSH2 0x351 SWAP1 DUP2 PUSH2 0x48B DUP3 CODECOPY RETURN JUMPDEST DUP2 DUP2 MLOAD PUSH1 0x0 JUMPDEST PUSH1 0x2 DUP2 LT PUSH2 0x1B0 JUMPI POP POP PUSH1 0x2 SWAP1 PUSH1 0x1 SWAP3 ADD SWAP6 ADD SWAP3 ADD SWAP2 SWAP4 PUSH2 0x179 JUMP JUMPDEST DUP2 MLOAD DUP9 DUP3 ADD SSTORE DUP5 SWAP3 SWAP1 SWAP2 ADD SWAP1 PUSH1 0x1 ADD PUSH2 0x194 JUMP JUMPDEST PUSH1 0x1 PUSH1 0x1 PUSH1 0xFF SHL SUB DUP3 DUP2 AND DUP4 SUB PUSH2 0x23B JUMPI DUP5 AND DUP5 SUB PUSH2 0x226 JUMPI POP PUSH1 0xE PUSH1 0x0 MSTORE DUP4 PUSH1 0x0 KECCAK256 PUSH1 0x1 SWAP2 DUP3 SHL DUP2 ADD SWAP1 DUP5 DUP4 SHL ADD JUMPDEST DUP2 DUP2 LT PUSH2 0x201 JUMPI POP PUSH2 0x169 JUMP JUMPDEST PUSH1 0x2 DUP2 ADD DUP4 DUP3 JUMPDEST DUP3 DUP2 LT PUSH2 0x21A JUMPI POP POP POP PUSH1 0x2 ADD PUSH2 0x1F4 JUMP JUMPDEST PUSH1 0x0 DUP2 SSTORE ADD DUP5 SWAP1 PUSH2 0x208 JUMP JUMPDEST PUSH1 0x11 SWAP1 PUSH4 0x4E487B71 PUSH1 0xE0 SHL PUSH1 0x0 MSTORE MSTORE PUSH1 0x24 PUSH1 0x0 REVERT JUMPDEST PUSH1 0x11 DUP3 PUSH4 0x4E487B71 PUSH1 0xE0 SHL PUSH1 0x0 MSTORE MSTORE PUSH1 0x24 PUSH1 0x0 REVERT JUMPDEST PUSH1 0x41 SWAP1 PUSH4 0x4E487B71 PUSH1 0xE0 SHL PUSH1 0x0 MSTORE MSTORE PUSH1 0x24 PUSH1 0x0 REVERT JUMPDEST DUP7 DUP2 MLOAD PUSH1 0x0 JUMPDEST PUSH1 0x2 DUP2 LT PUSH2 0x287 JUMPI POP POP PUSH1 0x2 SWAP1 PUSH1 0x1 SWAP3 ADD SWAP4 ADD SWAP2 ADD SWAP1 SWAP2 PUSH2 0x13C JUMP JUMPDEST DUP2 MLOAD DUP7 DUP3 ADD SSTORE DUP10 SWAP3 SWAP1 SWAP2 ADD SWAP1 PUSH1 0x1 ADD PUSH2 0x26B JUMP JUMPDEST DUP8 DUP2 MLOAD PUSH1 0x0 JUMPDEST PUSH1 0x2 DUP2 LT PUSH2 0x2BD JUMPI POP POP PUSH1 0x2 SWAP1 PUSH1 0x1 SWAP3 ADD SWAP4 ADD SWAP2 ADD SWAP1 SWAP2 PUSH2 0x12A JUMP JUMPDEST DUP2 MLOAD DUP7 DUP3 ADD SSTORE DUP11 SWAP3 SWAP1 SWAP2 ADD SWAP1 PUSH1 0x1 ADD PUSH2 0x2A1 JUMP JUMPDEST DUP9 DUP2 MLOAD PUSH1 0x0 JUMPDEST PUSH1 0x2 DUP2 LT PUSH2 0x2F3 JUMPI POP POP PUSH1 0x2 SWAP1 PUSH1 0x1 SWAP3 ADD SWAP4 ADD SWAP2 ADD SWAP1 SWAP2 PUSH2 0x118 JUMP JUMPDEST DUP2 MLOAD DUP7 DUP3 ADD SSTORE DUP12 SWAP3 SWAP1 SWAP2 ADD SWAP1 PUSH1 0x1 ADD PUSH2 0x2D7 JUMP JUMPDEST DUP2 MLOAD DUP2 SSTORE SWAP1 DUP9 ADD SWAP1 PUSH1 0x1 ADD PUSH2 0x107 JUMP JUMPDEST PUSH1 0x41 DUP10 PUSH4 0x4E487B71 PUSH1 0xE0 SHL PUSH1 0x0 MSTORE MSTORE PUSH1 0x24 PUSH1 0x0 REVERT JUMPDEST DUP10 MLOAD PUSH3 0x461BCD PUSH1 0xE5 SHL DUP2 MSTORE DUP1 DUP10 ADD DUP11 SWAP1 MSTORE PUSH1 0x30 PUSH1 0x24 DUP3 ADD MSTORE PUSH32 0x47656E65726174656456657269666965723A20496E636F7272656374206E756D PUSH1 0x44 DUP3 ADD MSTORE PUSH16 0x626572206F6620494320706F696E7473 PUSH1 0x80 SHL PUSH1 0x64 DUP3 ADD MSTORE PUSH1 0x84 SWAP1 REVERT JUMPDEST PUSH2 0x392 DUP5 DUP7 PUSH2 0x3FF JUMP JUMPDEST DUP2 MSTORE ADD SWAP3 ADD SWAP2 DUP12 DUP14 SWAP2 PUSH2 0xBE JUMP JUMPDEST PUSH1 0x0 DUP1 REVERT JUMPDEST PUSH4 0x4E487B71 PUSH1 0xE0 SHL PUSH1 0x0 MSTORE PUSH1 0x41 PUSH1 0x4 MSTORE PUSH1 0x24 PUSH1 0x0 REVERT JUMPDEST PUSH1 0x40 DUP1 MLOAD SWAP2 SWAP1 DUP3 ADD PUSH1 0x1 PUSH1 0x1 PUSH1 0x40 SHL SUB DUP2 GT DUP4 DUP3 LT OR PUSH2 0x3A5 JUMPI PUSH1 0x40 MSTORE JUMP JUMPDEST PUSH1 0x40 MLOAD SWAP2 SWAP1 PUSH1 0x1F ADD PUSH1 0x1F NOT AND DUP3 ADD PUSH1 0x1 PUSH1 0x1 PUSH1 0x40 SHL SUB DUP2 GT DUP4 DUP3 LT OR PUSH2 0x3A5 JUMPI PUSH1 0x40 MSTORE JUMP JUMPDEST SWAP1 DUP1 PUSH1 0x1F DUP4 ADD SLT ISZERO PUSH2 0x3A0 JUMPI PUSH2 0x413 PUSH2 0x3BB JUMP JUMPDEST DUP1 SWAP3 PUSH1 0x40 DUP2 ADD SWAP3 DUP4 GT PUSH2 0x3A0 JUMPI SWAP1 JUMPDEST DUP3 DUP3 LT PUSH2 0x42F JUMPI POP POP POP SWAP1 JUMP JUMPDEST DUP2 MLOAD DUP2 MSTORE PUSH1 0x20 SWAP2 DUP3 ADD SWAP2 ADD PUSH2 0x422 JUMP JUMPDEST DUP2 PUSH1 0x1F DUP3 ADD SLT ISZERO PUSH2 0x3A0 JUMPI PUSH2 0x452 PUSH2 0x3BB JUMP JUMPDEST DUP1 SWAP3 PUSH1 0x80 DUP4 ADD SWAP3 DUP2 DUP5 GT PUSH2 0x3A0 JUMPI SWAP2 JUMPDEST DUP4 DUP4 LT PUSH2 0x470 JUMPI POP POP POP POP SWAP1 JUMP JUMPDEST PUSH1 0x20 PUSH1 0x40 SWAP2 PUSH2 0x47F DUP5 DUP7 PUSH2 0x3FF JUMP JUMPDEST DUP2 MSTORE ADD SWAP3 ADD SWAP2 PUSH2 0x462 JUMP INVALID PUSH1 0x80 PUSH1 0x40 DUP2 DUP2 MSTORE PUSH1 0x4 CALLDATASIZE LT ISZERO PUSH2 0x14 JUMPI PUSH1 0x0 DUP1 REVERT JUMPDEST PUSH1 0x0 SWAP2 DUP3 CALLDATALOAD PUSH1 0xE0 SHR SWAP1 DUP2 PUSH4 0x11479FEA EQ PUSH2 0x56 JUMPI POP PUSH4 0x99FB6EB2 EQ PUSH2 0x38 JUMPI PUSH1 0x0 DUP1 REVERT JUMPDEST CALLVALUE PUSH2 0x52 JUMPI DUP2 PUSH1 0x3 NOT CALLDATASIZE ADD SLT PUSH2 0x52 JUMPI PUSH1 0x20 SWAP1 MLOAD PUSH1 0x3 DUP2 MSTORE RETURN JUMPDEST POP DUP1 REVERT JUMPDEST SWAP2 SWAP1 POP CALLVALUE PUSH2 0x1F1 JUMPI PUSH2 0x160 CALLDATASIZE PUSH1 0x3 NOT ADD SLT PUSH2 0x1F1 JUMPI CALLDATASIZE PUSH1 0x23 SLT ISZERO PUSH2 0x1F1 JUMPI PUSH2 0x7D DUP3 PUSH2 0x1F5 JUMP JUMPDEST DUP2 PUSH1 0x44 SWAP3 CALLDATASIZE DUP5 GT PUSH2 0x179 JUMPI PUSH1 0x4 SWAP1 JUMPDEST DUP5 DUP3 LT PUSH2 0x1E1 JUMPI POP POP CALLDATASIZE PUSH1 0x63 SLT ISZERO PUSH2 0x1DD JUMPI DUP2 MLOAD PUSH2 0xA9 DUP2 PUSH2 0x1F5 JUMP JUMPDEST DUP1 PUSH1 0xC4 SWAP5 CALLDATASIZE DUP7 GT PUSH2 0x1D9 JUMPI SWAP1 JUMPDEST DUP6 DUP3 LT PUSH2 0x17D JUMPI POP POP CALLDATASIZE PUSH1 0xE3 SLT ISZERO PUSH2 0x179 JUMPI DUP3 MLOAD SWAP2 PUSH2 0xD4 DUP4 PUSH2 0x1F5 JUMP JUMPDEST DUP3 PUSH2 0x104 SWAP6 CALLDATASIZE DUP8 GT PUSH2 0x14D JUMPI SWAP1 JUMPDEST DUP7 DUP3 LT PUSH2 0x169 JUMPI POP POP CALLDATASIZE PUSH2 0x123 SLT ISZERO PUSH2 0x165 JUMPI DUP4 MLOAD PUSH1 0x60 DUP2 ADD DUP2 DUP2 LT PUSH8 0xFFFFFFFFFFFFFFFF DUP3 GT OR PUSH2 0x151 JUMPI DUP6 MSTORE PUSH2 0x164 SWAP6 CALLDATASIZE DUP8 GT PUSH2 0x14D JUMPI PUSH1 0x20 SWAP8 POP SWAP1 JUMPDEST DUP7 DUP3 LT PUSH2 0x13E JUMPI POP POP PUSH2 0x135 SWAP4 SWAP5 POP PUSH2 0x227 JUMP JUMPDEST SWAP1 MLOAD SWAP1 ISZERO ISZERO DUP2 MSTORE RETURN JUMPDEST DUP2 CALLDATALOAD DUP2 MSTORE SWAP1 DUP8 ADD SWAP1 DUP8 ADD PUSH2 0x121 JUMP JUMPDEST DUP8 DUP1 REVERT JUMPDEST PUSH4 0x4E487B71 PUSH1 0xE0 SHL DUP9 MSTORE PUSH1 0x41 PUSH1 0x4 MSTORE PUSH1 0x24 DUP9 REVERT JUMPDEST DUP6 DUP1 REVERT JUMPDEST DUP2 CALLDATALOAD DUP2 MSTORE PUSH1 0x20 SWAP2 DUP3 ADD SWAP2 ADD PUSH2 0xE2 JUMP JUMPDEST DUP5 DUP1 REVERT JUMPDEST CALLDATASIZE PUSH1 0x1F DUP4 ADD SLT ISZERO PUSH2 0x1D9 JUMPI DUP5 MLOAD PUSH2 0x193 DUP2 PUSH2 0x1F5 JUMP JUMPDEST DUP1 DUP7 DUP5 ADD CALLDATASIZE DUP2 GT PUSH2 0x1D5 JUMPI SWAP2 DUP8 SWAP3 DUP6 SWAP5 SWAP3 SWAP5 SWAP1 JUMPDEST DUP1 DUP3 LT PUSH2 0x1BF JUMPI POP POP DUP2 MSTORE SWAP3 ADD SWAP2 PUSH1 0x20 ADD SWAP1 POP PUSH2 0xB6 JUMP JUMPDEST DUP2 CALLDATALOAD DUP7 MSTORE PUSH1 0x20 SWAP6 DUP7 ADD SWAP6 DUP11 SWAP6 POP SWAP1 SWAP2 ADD SWAP1 PUSH2 0x1A7 JUMP JUMPDEST DUP10 DUP1 REVERT JUMPDEST DUP7 DUP1 REVERT JUMPDEST DUP4 DUP1 REVERT JUMPDEST DUP2 CALLDATALOAD DUP2 MSTORE PUSH1 0x20 SWAP2 DUP3 ADD SWAP2 ADD PUSH2 0x8C JUMP JUMPDEST DUP3 DUP1 REVERT JUMPDEST PUSH1 0x40 DUP2 ADD SWAP1 DUP2 LT PUSH8 0xFFFFFFFFFFFFFFFF DUP3 GT OR PUSH2 0x211 JUMPI PUSH1 0x40 MSTORE JUMP JUMPDEST PUSH4 0x4E487B71 PUSH1 0xE0 SHL PUSH1 0x0 MSTORE PUSH1 0x41 PUSH1 0x4 MSTORE PUSH1 0x24 PUSH1 0x0 REVERT JUMPDEST SWAP1 SWAP2 PUSH1 0xE SLOAD ISZERO PUSH2 0x305 JUMPI PUSH1 0xE PUSH1 0x0 SWAP1 DUP2 MSTORE PUSH1 0x40 MLOAD SWAP3 SWAP1 PUSH32 0xBB7B4A454DC3493923482F07822329ED19E8244EFF582CC204F8554C3620C3FD DUP2 DUP6 JUMPDEST PUSH1 0x2 DUP3 LT PUSH2 0x2EF JUMPI POP POP POP PUSH2 0x275 DUP5 PUSH2 0x1F5 JUMP JUMPDEST DUP1 JUMPDEST PUSH1 0x3 DUP2 LT PUSH2 0x2CA JUMPI POP POP MLOAD ISZERO ISZERO SWAP3 DUP4 PUSH2 0x2BE JUMPI JUMPDEST POP DUP3 PUSH2 0x2B3 JUMPI JUMPDEST POP DUP2 PUSH2 0x2A8 JUMPI JUMPDEST POP PUSH2 0x2A3 JUMPI PUSH1 0x1 SWAP1 JUMP JUMPDEST PUSH1 0x1 SWAP1 JUMP JUMPDEST SWAP1 POP MLOAD ISZERO ISZERO CODESIZE PUSH2 0x299 JUMP JUMPDEST MLOAD ISZERO ISZERO SWAP2 POP CODESIZE PUSH2 0x292 JUMP JUMPDEST MLOAD MLOAD ISZERO ISZERO SWAP3 POP CODESIZE PUSH2 0x28B JUMP JUMPDEST PUSH1 0x0 NOT DUP2 EQ PUSH2 0x2DB JUMPI PUSH1 0x1 ADD PUSH2 0x277 JUMP JUMPDEST PUSH4 0x4E487B71 PUSH1 0xE0 SHL DUP3 MSTORE PUSH1 0x11 PUSH1 0x4 MSTORE PUSH1 0x24 DUP3 REVERT JUMPDEST PUSH1 0x1 PUSH1 0x20 DUP2 SWAP3 DUP6 SLOAD DUP2 MSTORE ADD SWAP4 ADD SWAP2 ADD SWAP1 SWAP2 PUSH2 0x261 JUMP JUMPDEST PUSH4 0x4E487B71 PUSH1 0xE0 SHL PUSH1 0x0 MSTORE PUSH1 0x32 PUSH1 0x4 MSTORE PUSH1 0x24 PUSH1 0x0 REVERT INVALID LOG2 PUSH5 0x6970667358 0x22 SLT KECCAK256 0xEA DUP8 KECCAK256 SHR LT 0xE6 SWAP16 CALLVALUE 0xC2 0xA9 DUP15 RETURNDATASIZE SMOD 0xE1 EQ 0x2E 0x28 0xC5 REVERT 0x2E PUSH17 0x5543510E64DF6D15F1742664736F6C6343 STOP ADDMOD GT STOP CALLER "},"methodIdentifiers":{"PUBLIC_INPUT_COUNT()":"99fb6eb2","verifyProof(uint256[2],uint256[2][2],uint256[2],uint256[3])":"11479fea"}}}}}