{"contracts/VotingSystem.sol":{"VotingSystem":{"abi":[{"inputs":[],"stateMutability":"nonpayable","type":"constructor"},{"anonymous":false,"inputs":[{"indexed":true,"internalType":"uint256","name":"electionId","type":"uint256"},{"indexed":true,"internalType":"bytes32","name":"nullifierHash","type":"bytes32"},{"indexed":false,"internalType":"bytes32","name":"voteCommitment","type":"bytes32"}],"name":"AnonymousVoteCast","type":"event"},{"anonymous":false,"inputs":[{"indexed":true,"internalType":"uint256","name":"electionId","type":"uint256"},{"indexed":true,"internalType":"uint256","name":"candidateId","type":"uint256"},{"indexed":false,"internalType":"string","name":"name","type":"string"},{"indexed":true,"internalType":"address","name":"addedBy","type":"address"}],"name":"CandidateAdded","type":"event"},{"anonymous":false,"inputs":[{"indexed":true,"internalType":"uint256","name":"electionId","type":"uint256"},{"indexed":true,"internalType":"uint256","name":"candidateId","type":"uint256"},{"indexed":false,"internalType":"string","name":"name","type":"string"},{"indexed":true,"internalType":"address","name":"updatedBy","type":"address"}],"name":"CandidateUpdated","type":"event"},{"anonymous":false,"inputs":[{"indexed":true,"internalType":"uint256","name":"electionId","type":"uint256"},{"indexed":false,"internalType":"string","name":"title","type":"string"},{"indexed":false,"internalType":"uint256","name":"startTime","type":"uint256"},{"indexed":false,"internalType":"uint256","name":"endTime","type":"uint256"},{"indexed":true,"internalType":"address","name":"creator","type":"address"}],"name":"ElectionCreated","type":"event"},{"anonymous":false,"inputs":[{"indexed":true,"internalType":"uint256","name":"electionId","type":"uint256"},{"indexed":false,"internalType":"uint256","name":"endTime","type":"uint256"},{"indexed":true,"internalType":"address","name":"endedBy","type":"address"}],"name":"ElectionEnded","type":"event"},{"anonymous":false,"inputs":[{"indexed":true,"internalType":"uint256","name":"electionId","type":"uint256"},{"indexed":false,"internalType":"uint256","name":"totalVotes","type":"uint256"},{"indexed":true,"internalType":"address","name":"finalizedBy","type":"address"}],"name":"ElectionFinalized","type":"event"},{"anonymous":false,"inputs":[{"indexed":true,"internalType":"uint256","name":"electionId","type":"uint256"},{"indexed":false,"internalType":"string","name":"title","type":"string"},{"indexed":false,"internalType":"string","name":"description","type":"string"},{"indexed":false,"internalType":"uint256","name":"startTime","type":"uint256"},{"indexed":false,"internalType":"uint256","name":"endTime","type":"uint256"},{"indexed":true,"internalType":"address","name":"updatedBy","type":"address"}],"name":"ElectionUpdated","type":"event"},{"anonymous":false,"inputs":[{"indexed":true,"internalType":"uint256","name":"electionId","type":"uint256"},{"indexed":false,"internalType":"bytes32","name":"merkleRoot","type":"bytes32"}],"name":"MerkleRootSet","type":"event"},{"anonymous":false,"inputs":[{"indexed":true,"internalType":"address","name":"operator","type":"address"},{"indexed":true,"internalType":"address","name":"addedBy","type":"address"}],"name":"OperatorAdded","type":"event"},{"anonymous":false,"inputs":[{"indexed":true,"internalType":"address","name":"operator","type":"address"},{"indexed":true,"internalType":"address","name":"removedBy","type":"address"}],"name":"OperatorRemoved","type":"event"},{"anonymous":false,"inputs":[{"indexed":true,"internalType":"address","name":"previousOwner","type":"address"},{"indexed":true,"internalType":"address","name":"newOwner","type":"address"}],"name":"OwnershipTransferred","type":"event"},{"anonymous":false,"inputs":[{"indexed":false,"internalType":"address","name":"verifierAddress","type":"address"}],"name":"VerifierSet","type":"event"},{"anonymous":false,"inputs":[{"indexed":true,"internalType":"uint256","name":"electionId","type":"uint256"},{"indexed":true,"internalType":"bytes32","name":"voteCommitment","type":"bytes32"},{"indexed":false,"internalType":"uint256","name":"candidateId","type":"uint256"}],"name":"VoteRevealed","type":"event"},{"anonymous":false,"inputs":[{"indexed":true,"internalType":"uint256","name":"electionId","type":"uint256"},{"indexed":true,"internalType":"bytes32","name":"voterIdentifier","type":"bytes32"},{"indexed":true,"internalType":"address","name":"registeredBy","type":"address"}],"name":"VoterRegistered","type":"event"},{"anonymous":false,"inputs":[{"indexed":true,"internalType":"uint256","name":"electionId","type":"uint256"},{"indexed":true,"internalType":"bytes32","name":"voterIdentifier","type":"bytes32"},{"indexed":true,"internalType":"address","name":"removedBy","type":"address"}],"name":"VoterRemoved","type":"event"},{"inputs":[],"name":"MAX_CANDIDATES_PER_ELECTION","outputs":[{"internalType":"uint256","name":"","type":"uint256"}],"stateMutability":"view","type":"function"},{"inputs":[],"name":"MAX_ELECTION_DURATION","outputs":[{"internalType":"uint256","name":"","type":"uint256"}],"stateMutability":"view","type":"function"},{"inputs":[],"name":"MIN_ELECTION_DURATION","outputs":[{"internalType":"uint256","name":"","type":"uint256"}],"stateMutability":"view","type":"function"},{"inputs":[{"internalType":"uint256","name":"_electionId","type":"uint256"},{"internalType":"string","name":"_name","type":"string"},{"internalType":"string","name":"_description","type":"string"}],"name":"addCandidate","outputs":[{"internalType":"uint256","name":"","type":"uint256"}],"stateMutability":"nonpayable","type":"function"},{"inputs":[{"internalType":"address","name":"_operator","type":"address"}],"name":"addOperator","outputs":[],"stateMutability":"nonpayable","type":"function"},{"inputs":[{"internalType":"uint256","name":"_electionId","type":"uint256"},{"internalType":"uint256[2]","name":"_pA","type":"uint256[2]"},{"internalType":"uint256[2][2]","name":"_pB","type":"uint256[2][2]"},{"internalType":"uint256[2]","name":"_pC","type":"uint256[2]"},{"internalType":"bytes32","name":"_merkleRoot","type":"bytes32"},{"internalType":"bytes32","name":"_nullifierHash","type":"bytes32"},{"internalType":"bytes32","name":"_voteCommitment","type":"bytes32"}],"name":"anonymousVote","outputs":[],"stateMutability":"nonpayable","type":"function"},{"inputs":[{"internalType":"address","name":"","type":"address"}],"name":"authorizedOperators","outputs":[{"internalType":"bool","name":"","type":"bool"}],"stateMutability":"view","type":"function"},{"inputs":[{"internalType":"uint256","name":"_electionId","type":"uint256"},{"internalType":"bytes32[]","name":"_voterIdentifiers","type":"bytes32[]"}],"name":"batchRegisterVoters","outputs":[],"stateMutability":"nonpayable","type":"function"},{"inputs":[{"internalType":"string","name":"_title","type":"string"},{"internalType":"string","name":"_description","type":"string"},{"internalType":"uint256","name":"_startTime","type":"uint256"},{"internalType":"uint256","name":"_endTime","type":"uint256"}],"name":"createElection","outputs":[{"internalType":"uint256","name":"","type":"uint256"}],"stateMutability":"nonpayable","type":"function"},{"inputs":[],"name":"electionCount","outputs":[{"internalType":"uint256","name":"","type":"uint256"}],"stateMutability":"view","type":"function"},{"inputs":[{"internalType":"uint256","name":"","type":"uint256"}],"name":"elections","outputs":[{"internalType":"string","name":"title","type":"string"},{"internalType":"string","name":"description","type":"string"},{"internalType":"uint256","name":"startTime","type":"uint256"},{"internalType":"uint256","name":"endTime","type":"uint256"},{"internalType":"bool","name":"isActive","type":"bool"},{"internalType":"uint256","name":"candidateCount","type":"uint256"},{"internalType":"uint256","name":"totalVotes","type":"uint256"},{"internalType":"uint256","name":"registeredVoterCount","type":"uint256"},{"internalType":"bool","name":"resultsFinalized","type":"bool"},{"internalType":"address","name":"creator","type":"address"},{"internalType":"uint256","name":"createdAt","type":"uint256"},{"internalType":"uint256","name":"updatedAt","type":"uint256"},{"internalType":"bytes32","name":"merkleRoot","type":"bytes32"}],"stateMutability":"view","type":"function"},{"inputs":[{"internalType":"uint256","name":"_electionId","type":"uint256"}],"name":"endElection","outputs":[],"stateMutability":"nonpayable","type":"function"},{"inputs":[{"internalType":"uint256","name":"_electionId","type":"uint256"}],"name":"finalizeResults","outputs":[],"stateMutability":"nonpayable","type":"function"},{"inputs":[{"internalType":"uint256","name":"_electionId","type":"uint256"},{"internalType":"uint256","name":"_candidateId","type":"uint256"}],"name":"getCandidate","outputs":[{"internalType":"string","name":"","type":"string"},{"internalType":"string","name":"","type":"string"},{"internalType":"uint256","name":"","type":"uint256"}],"stateMutability":"view","type":"function"},{"inputs":[{"internalType":"uint256","name":"_electionId","type":"uint256"}],"name":"getElectionResults","outputs":[{"internalType":"uint256[]","name":"","type":"uint256[]"}],"stateMutability":"view","type":"function"},{"inputs":[{"internalType":"uint256","name":"_electionId","type":"uint256"}],"name":"getElectionSummary","outputs":[{"components":[{"internalType":"uint256","name":"id","type":"uint256"},{"internalType":"string","name":"title","type":"string"},{"internalType":"string","name":"description","type":"string"},{"internalType":"uint256","name":"startTime","type":"uint256"},{"internalType":"uint256","name":"endTime","type":"uint256"},{"internalType":"bool","name":"isActive","type":"bool"},{"internalType":"uint256","name":"candidateCount","type":"uint256"},{"internalType":"uint256","name":"totalVotes","type":"uint256"},{"internalType":"bool","name":"resultsFinalized","type":"bool"},{"internalType":"address","name":"creator","type":"address"},{"internalType":"uint256","name":"createdAt","type":"uint256"},{"internalType":"uint256","name":"updatedAt","type":"uint256"}],"internalType":"struct VotingSystem.ElectionSummary","name":"","type":"tuple"}],"stateMutability":"view","type":"function"},{"inputs":[{"internalType":"uint256","name":"_electionId","type":"uint256"}],"name":"getRegisteredVoterCount","outputs":[{"internalType":"uint256","name":"","type":"uint256"}],"stateMutability":"view","type":"function"},{"inputs":[{"internalType":"uint256","name":"_electionId","type":"uint256"}],"name":"getVotedCount","outputs":[{"internalType":"uint256","name":"","type":"uint256"}],"stateMutability":"view","type":"function"},{"inputs":[{"internalType":"uint256","name":"_electionId","type":"uint256"},{"internalType":"bytes32","name":"_voterIdentifier","type":"bytes32"}],"name":"getVoterDetails","outputs":[{"internalType":"bool","name":"isRegistered","type":"bool"}],"stateMutability":"view","type":"function"},{"inputs":[{"internalType":"uint256","name":"_electionId","type":"uint256"},{"internalType":"bytes32","name":"_voterIdentifier","type":"bytes32"}],"name":"getVoterStatus","outputs":[{"internalType":"bool","name":"isRegistered","type":"bool"}],"stateMutability":"view","type":"function"},{"inputs":[{"internalType":"uint256","name":"_electionId","type":"uint256"},{"internalType":"bytes32","name":"_nullifierHash","type":"bytes32"}],"name":"hasVoted","outputs":[{"internalType":"bool","name":"","type":"bool"}],"stateMutability":"view","type":"function"},{"inputs":[{"internalType":"uint256","name":"_electionId","type":"uint256"},{"internalType":"bytes32","name":"_voterIdentifier","type":"bytes32"}],"name":"isRegisteredVoter","outputs":[{"internalType":"bool","name":"","type":"bool"}],"stateMutability":"view","type":"function"},{"inputs":[],"name":"owner","outputs":[{"internalType":"address","name":"","type":"address"}],"stateMutability":"view","type":"function"},{"inputs":[{"internalType":"uint256","name":"_electionId","type":"uint256"},{"internalType":"bytes32","name":"_voterIdentifier","type":"bytes32"}],"name":"registerVoter","outputs":[],"stateMutability":"nonpayable","type":"function"},{"inputs":[{"internalType":"address","name":"_operator","type":"address"}],"name":"removeOperator","outputs":[],"stateMutability":"nonpayable","type":"function"},{"inputs":[{"internalType":"uint256","name":"_electionId","type":"uint256"},{"internalType":"bytes32","name":"_voterIdentifier","type":"bytes32"}],"name":"removeVoter","outputs":[],"stateMutability":"nonpayable","type":"function"},{"inputs":[],"name":"renounceOwnership","outputs":[],"stateMutability":"nonpayable","type":"function"},{"inputs":[{"internalType":"uint256","name":"_electionId","type":"uint256"},{"internalType":"uint256","name":"_candidateId","type":"uint256"},{"internalType":"bytes32","name":"_voteCommitment","type":"bytes32"}],"name":"revealVote","outputs":[],"stateMutability":"nonpayable","type":"function"},{"inputs":[{"internalType":"uint256","name":"_electionId","type":"uint256"},{"internalType":"bytes32","name":"_merkleRoot","type":"bytes32"}],"name":"setMerkleRoot","outputs":[],"stateMutability":"nonpayable","type":"function"},{"inputs":[{"internalType":"address","name":"_verifierAddress","type":"address"}],"name":"setVerifier","outputs":[],"stateMutability":"nonpayable","type":"function"},{"inputs":[{"internalType":"address","name":"newOwner","type":"address"}],"name":"transferOwnership","outputs":[],"stateMutability":"nonpayable","type":"function"},{"inputs":[{"internalType":"uint256","name":"_electionId","type":"uint256"},{"internalType":"uint256","name":"_candidateId","type":"uint256"},{"internalType":"string","name":"_name","type":"string"},{"internalType":"string","name":"_description","type":"string"}],"name":"updateCandidate","outputs":[],"stateMutability":"nonpayable","type":"function"},{"inputs":[{"internalType":"uint256","name":"_electionId","type":"uint256"},{"internalType":"string","name":"_title","type":"string"},{"internalType":"string","name":"_description","type":"string"}],"name":"updateElection","outputs":[],"stateMutability":"nonpayable","type":"function"},{"inputs":[],"name":"verifier","outputs":[{"internalType":"contract IVerifier","name":"","type":"address"}],"stateMutability":"view","type":"function"}],"evm":{"bytecode":{"linkReferences":{},"object":"6080806040523461005f5760008054336001600160a01b0319821681178355906001600160a01b03167f8be0079c531659141344cd1fd0a4f28419497f9722a3daafe3b4186f6b6457e08380a3806002556005556138b890816100658239f35b600080fdfe6080604052600436101561001257600080fd5b60003560e01c8063064e6b2e14612f365780631064d944146127ae57806312fe885d14612db4578063181d989b14612d7157806318712c2114612c1a5780631978e0d314612a725780631b441c9c14612a555780631d2cd644146127de578063247b0cc1146127ae5780632b7ac3f3146127855780634bd46448146126c35780635437988d146125ed5780635b6a2da6146125cf5780635e6fef01146124c7578063715018a61461246e57806374417bf4146123c55780637ad36e8414611e175780638da5cb5b14611dee5780639870d7fe14611cdb578063997d283014611cbd5780639c98bcbb14611b9c578063ac8a584a14611ad3578063b51817f014611ab7578063c55cc4e414611a7b578063c7cc2fd21461170c578063c85407bb146116b9578063d2bd1738146114f8578063d48653f514610ea4578063d9148f7314610caf578063e6c62efc14610821578063e8ededa61461068a578063f2fde38b146105bf578063f63ff3d2146105835763f9abea2f1461019257600080fd5b3461057e57608036600319011261057e576001600160401b0360243560043560443583811161057e576101c99036906004016133d0565b60643584811161057e576101e19036906004016133d0565b6000546001600160a01b031633148015610565575b6101ff906134c7565b61020c60025484106135f9565b8260005260019060209582875261022c6002604060002001544210613651565b8460005282875261024860ff600a6040600020015416156136af565b846000528287526102626006604060002001548710613707565b835161044d575b81516102c0575b50507fb6e51b6b69e8c7a28ecf62a3e7202f4c8cbf6f0360b70b5055762bec1cfd892a916102bb9184600052865242600c6040600020015560405191829187835233978301906132c0565b0390a4005b84600052828752600560406000200186600052875282604060002001918051918211610437576102f08354613300565b601f81116103ee575b508790601f83116001146103625791807fb6e51b6b69e8c7a28ecf62a3e7202f4c8cbf6f0360b70b5055762bec1cfd892a9694926102bb9694600092610357575b5050600019600383901b1c191690831b1790555b91819350610270565b01519050388061033a565b90601f1983169184600052896000209260005b8b8282106103da57505092869491926102bb9793837fb6e51b6b69e8c7a28ecf62a3e7202f4c8cbf6f0360b70b5055762bec1cfd892a9a9896106103c1575b505050811b01905561034e565b015160001960f88460031b161c191690553880806103b4565b838501518655948801949384019301610375565b8360005288600020601f840160051c8101918a851061042d575b601f0160051c019085905b8281106104215750506102f9565b60008155018590610413565b9091508190610408565b634e487b7160e01b600052604160045260246000fd5b846000528287526005604060002001866000528752604060002084518281116104375761047a8254613300565b601f811161051c575b508089601f82116001146104bb576000916104b0575b50600019600383901b1c191690851b179055610269565b905086015138610499565b869250601f19821690846000528b6000209160005b8d82821061050657505083116104ed575b5050811b019055610269565b88015160001960f88460031b161c1916905538806104e1565b838c015185558a969094019392830192016104d0565b8260005289600020601f830160051c8101918b841061055b575b601f0160051c019086905b82811061054f575050610483565b60008155018690610541565b9091508190610536565b503360009081526003602052604090205460ff166101f6565b600080fd5b3461057e57602036600319011261057e576004356105a460025482106135f9565b60005260016020526020600960406000200154604051908152f35b3461057e57602036600319011261057e576004356001600160a01b038181169182900361057e576105ee61346f565b811561063657600054826bffffffffffffffffffffffff60a01b821617600055167f8be0079c531659141344cd1fd0a4f28419497f9722a3daafe3b4186f6b6457e0600080a3005b60405162461bcd60e51b815260206004820152602660248201527f4f776e61626c653a206e6577206f776e657220697320746865207a65726f206160448201526564647265737360d01b6064820152608490fd5b3461057e5760208060031936011261057e57600435906002916106af835482106135f9565b8060005260019283835260ff600a60406000200154168015610810575b156107bb578383836000528181526006928360406000200154936107086106f286613293565b956107006040519788613272565b808752613293565b8584019690601f19013688376000855b610759575b5050505060405192818401908285525180915260408401949160005b8281106107465785870386f35b8351875295810195928101928401610739565b9085979592918160009896985283885282604060002001548110156107af576107a2906005604060002001816000528952856040600020015461079c8289613802565b526135ea565b9091929597969496610718565b5096949695939561071d565b60405162461bcd60e51b815260048101849052602760248201527f566f74696e6753797374656d3a20726573756c7461646f73206e6f20646973706044820152666f6e69626c657360c81b6064820152608490fd5b5060036040600020015442116106cc565b3461057e5761082f36613426565b9060018060a01b036000541633148015610c96575b61084d906134c7565b61085a60025484106135f9565b8260005260016020526108766002604060002001544210613651565b82600052600160205261089460ff600a6040600020015416156136af565b805115610c3c576108a782511515613577565b82600052600160205260646006604060002001541015610be2578260005260016020526006604060002001549160405190608082018281106001600160401b038211176104375760405282825260208201526000604082015242606082015283600052600160205260056040600020018360005260205260406000209080518051906001600160401b0382116104375781906109438554613300565b601f8111610b92575b50602090601f8311600114610b2c57600092610b21575b50508160011b916000199060031b1c19161782555b6001820160208201518051906001600160401b0382116104375761099c8354613300565b601f8111610ad9575b509160209793918795938990601f8311600114610a6b5791806060949260039694600092610a60575b50508160011b9160001990871b1c19161790555b60408101516002850155015191015580600052600185526006604060002001610a0b81546135ea565b9055806000526001855242600c604060002001557f215b7e673452bf74f22ff23e0ceae9bb39a67a2ab41e8213510b47f2dafda7db60405186815280610a553396898301906132c0565b0390a4604051908152f35b015190508c806109ce565b90601f19831691846000528b6000209260005b818110610abf5750926001928592600398966060989610610aa7575b505050811b0190556109e2565b015160001983891b60f8161c191690558c8080610a9a565b8284015185558c9a50600190940193928d01928d01610a7e565b836000526020600020601f840160051c81019160208510610b17575b601f0160051c01905b818110610b0b57506109a5565b60008155600101610afe565b9091508190610af5565b015190508780610963565b6000868152602081209350601f198516905b818110610b7a5750908460019594939210610b61575b505050811b018255610978565b015160001960f88460031b161c19169055878080610b54565b92936020600181928786015181550195019301610b3e565b909150846000526020600020601f840160051c810160208510610bdb575b90849392915b601f830160051c82018110610bcc57505061094c565b60008155859450600101610bb6565b5080610bb0565b60405162461bcd60e51b815260206004820152602c60248201527f566f74696e6753797374656d3a206c696d6974652064652063616e646964617460448201526b6f7320616c63616e7a61646f60a01b6064820152608490fd5b60405162461bcd60e51b815260206004820152602c60248201527f566f74696e6753797374656d3a20656c206e6f6d627265206e6f20707565646560448201526b20657374617220766163696f60a01b6064820152608490fd5b503360009081526003602052604090205460ff16610844565b3461057e57602036600319011261057e576004356000610160604051610cd48161323b565b82815260606020820152606060408201528260608201528260808201528260a08201528260c08201528260e08201528261010082015282610120820152826101408201520152610d2760025482106135f9565b80600052600160205260406000206002810154600382015460ff6004840154166006840154600785015491600a86015493600b870154956001610da5600c8a0154996040519b610d768d61323b565b8c52604051610d9081610d89818561333a565b0382613272565b60208d0152610d89604051809481930161333a565b60408a015260608901526080880152151560a087015260c086015260e085015260ff8116151561010085015260018060a01b039060081c1661012084015261014083015261016082015260405180916020825280516020830152610160610e36610e20602084015161018060408701526101a08601906132c0565b6040840151858203601f190160608701526132c0565b9160608101516080850152608081015160a085015260a0810151151560c085015260c081015160e085015260e0810151610100850152610100810151151561012085015260018060a01b03610120820151166101408501526101408101518285015201516101808301520390f35b3461057e5761018036600319011261057e57366043121561057e57604051610ecb81613257565b60648136821161057e576024905b8282106114e8575050366083121561057e5760405191610ef883613257565b60e48336821161057e5783905b82821061149757505036610103121561057e5760405190610f2582613257565b816101249136831161057e57905b828210611487575050610f4b600254600435106135f9565b600435600052600160205260ff600460406000200154161561142c57600435600052600160205260026040600020015442106113d2576004356000526001602052600360406000200154421161137e57610fa76005541561351f565b60016005556004546001600160a01b0316918215611329576004356000526001602052604060002095600d87015480156112bf578335036112705761014435600052600e870160205260ff6040600020541661120657604051928360608101106001600160401b036060860111176104375790839291606061105c97950160405260603685373583526101443560208401526101643560408401526040519586946308a3cff560e11b8652600486019061382c565b6000604485015b600282106111e05750505061107c9060c484019061382c565b600061010483015b600382106111c657505050610164816020935afa9081156111ba5760009161117f575b501561113d575061014435600052600e8101602052604060002060ff199060018282541617905561016435600052600f82016020526001604060002091825416179055600781016110f881546135ea565b9055600c4291015560405161016435815261014435907f28de4266d9c8895caca0bf78416d213805a2fe7314ab3a5da163dada0f8d730b602060043592a36000600555005b60405162461bcd60e51b815260206004820181905260248201527f566f74696e6753797374656d3a20507275656261205a4b20696e76616c6964616044820152fd5b90506020813d6020116111b2575b8161119a60209383613272565b8101031261057e5751801515810361057e57836110a7565b3d915061118d565b6040513d6000823e3d90fd5b829350602080916001939451815201930191018492611084565b82939495506040816111f8602093600195965161382c565b019301910186949392611063565b60405162461bcd60e51b815260206004820152603f60248201527f566f74696e6753797374656d3a20566f746f20796120656d697469646f20636f60448201527f6e2065737465206e756c6966696361646f722028646f626c6520766f746f290081880152608490fd5b60405162461bcd60e51b815260206004820152602260248201527f566f74696e6753797374656d3a204d65726b6c6520726f6f7420696e76616c69604482015261646f60f01b81880152608490fd5b60405162461bcd60e51b815260206004820152603960248201527f566f74696e6753797374656d3a204d65726b6c6520726f6f74206e6f2065737460448201527f61626c656369646f2070617261206c6120656c656363696f6e0000000000000081890152608490fd5b60405162461bcd60e51b815260206004820152602860248201527f566f74696e6753797374656d3a205665726966696361646f72206e6f20636f6e604482015267666967757261646f60c01b81870152608490fd5b60405162461bcd60e51b815260206004820152602760248201527f566f74696e6753797374656d3a206c6120656c656363696f6e2068612066696e604482015266616c697a61646f60c81b81860152608490fd5b60405162461bcd60e51b815260206004820152602d60248201527f566f74696e6753797374656d3a206c6120656c656363696f6e2061756e206e6f60448201526c20686120636f6d656e7a61646f60981b81860152608490fd5b60405162461bcd60e51b815260206004820152602e60248201527f566f74696e6753797374656d3a206c6120656c656363696f6e206e6f20656e6360448201526d6f6e74726164612061637469766160901b81860152608490fd5b8135815260209182019101610f33565b36601f8301121561057e576040516114ae81613257565b806040840136811161057e5784915b8183106114d857505050816020916040935201910190610f05565b82358152602092830192016114bd565b8135815260209182019101610ed9565b3461057e57611506366132aa565b6000546001600160a01b0316331480156116a0575b611524906134c7565b61153160025483106135f9565b61153d6005541561351f565b60018060055582600052602081815261156060ff60046040600020015416613752565b61156b83151561379e565b83600052818152600860406000200183600052815260ff6040600020541661163657604051818101908082106001600160401b03831117610437576115de9160405283815285600052838352600860406000200185600052835260406000209051151560ff801983541691151516179055565b8360005281815260096040600020016115f781546135ea565b9055836000525242600c6040600020015533917f82350ffb4cfd6cffada59ac532ab28a3129cde41d8589863d8f6adfd91a899ea600080a46000600555005b6084906040519062461bcd60e51b82526004820152603a60248201527f566f74696e6753797374656d3a20766f74616e7465207961207265676973747260448201527f61646f20636f6e2065737465206964656e746966696361646f720000000000006064820152fd5b503360009081526003602052604090205460ff1661151b565b3461057e576116c7366132aa565b906116d560025482106135f9565b6116e082151561379e565b6000526001602052600860406000200190600052602052602060ff604060002054166040519015158152f35b3461057e5761171a36613426565b909160018060a01b036000541633148015611a62575b611739906134c7565b61174660025482106135f9565b806000526001926020938085526117666002604060002001544210613651565b826000528085526040600020918051908161194d575b5050835193846117f7575b507f87649461dacf4d8645f796b6fe7bfba3007117716d377d4579e4057cdc4b6e9d92935042600c8301556117e460028301549560038401549260405194608086526117d6608087018261333a565b92868403908701520161333a565b94604083015260608201528033940390a3005b818301906001600160401b038611610437576118138254613300565b601f8111611904575b508690601f871160011461187e579580917f87649461dacf4d8645f796b6fe7bfba3007117716d377d4579e4057cdc4b6e9d9697600092611873575b5050600019600383901b1c191690831b1790555b8392611787565b015190508880611858565b90601f1987169183600052886000209260005b8a8282106118f057505091859391897f87649461dacf4d8645f796b6fe7bfba3007117716d377d4579e4057cdc4b6e9d999a94106118d7575b505050811b01905561186c565b015160001960f88460031b161c191690558880806118ca565b838501518655948701949384019301611891565b8260005287600020601f880160051c810191898910611943575b601f0160051c019084905b82811061193757505061181c565b60008155018490611929565b909150819061191e565b6001600160401b0382116104375781906119678554613300565b601f8111611a0f575b508790601f83116001146119ac576000926119a1575b5050600019600383901b1c191690821b1782555b858061177c565b015190508780611986565b90849350601f1983169186600052896000209260005b8b8282106119f957505084116119e0575b505050811b01825561199a565b015160001960f88460031b161c191690558780806119d3565b83850151865588979095019493840193016119c2565b9091508460005287600020601f840160051c810191898510611a58575b84939291601f87920160051c01915b828110611a49575050611970565b60008155859450869101611a3b565b9091508190611a2c565b503360009081526003602052604090205460ff16611730565b3461057e57602036600319011261057e57600435611a9c60025482106135f9565b60005260016020526020600760406000200154604051908152f35b3461057e57600036600319011261057e57602060405160648152f35b3461057e57602036600319011261057e576004356001600160a01b0381169081900361057e57611b0161346f565b80600052600360205260ff6040600020541615611b5757806000526003602052604060002060ff19815416905533907f17d7f044d47e4fae1701f86266d0a674db3f792671bd1b974ace77a09af1c827600080a3005b60405162461bcd60e51b815260206004820152601c60248201527f566f74696e6753797374656d3a206e6f206573206f70657261646f72000000006044820152606490fd5b3461057e5760208060031936011261057e5760043560018060a01b036000541633148015611ca5575b611bce906134c7565b611bdb60025482106135f9565b806000526001825260ff6004604060002001541615611c4d578060005260018252600460406000200160ff1981541690554260036040600020015542600c604060002001557fc320ad245cbb75af6bc33306823df83424412ec171e460708cb5d30e80d40e45604051924284523393a3005b60405162461bcd60e51b815260048101839052602a60248201527f566f74696e6753797374656d3a206c6120656c656363696f6e207961206573746044820152696120696e61637469766160b01b6064820152608490fd5b5033600090815260038352604090205460ff16611bc5565b3461057e57600036600319011261057e576020600254604051908152f35b3461057e5760208060031936011261057e576004356001600160a01b038116919082900361057e57611d0b61346f565b8115611dab57816000526003815260ff60406000205416611d675760039082600052526040600020600160ff1982541617905533907f0780dc183feb0e4f9714cd802b3c0a21894b7ccb4172c992569d2acb5d45f91c600080a3005b6064906040519062461bcd60e51b82526004820152601c60248201527f566f74696e6753797374656d3a207961206573206f70657261646f72000000006044820152fd5b6064906040519062461bcd60e51b825280600483015260248201527f566f74696e6753797374656d3a20646972656363696f6e20696e76616c6964616044820152fd5b3461057e57600036600319011261057e576000546040516001600160a01b039091168152602090f35b3461057e57608036600319011261057e576004356001600160401b03811161057e57611e479036906004016133d0565b6024356001600160401b03811161057e57611e669036906004016133d0565b9060018060a01b0360005416331480156123ac575b611e84906134c7565b611e906005541561351f565b600160055580511561235257611ea882511515613577565b4260443511156122ef57604435606435111561227857610e10611ecf6044356064356135dd565b106122345762278d00611ee66044356064356135dd565b116121f05760025490816000526001602052604060002081516001600160401b03811161043757611f178254613300565b601f81116121ac575b50806020601f82116001146121485760009161213d575b508160011b916000199060031b1c19161781555b83516001600160401b03811161043757611f686001830154613300565b94601f86116120f6575b602095508590601f831160011461208457918060009492600d948692612079575b50508160011b9185199060031b1c19161760018201555b6044356002820155606435600382015560048101600160ff19825416179055826006820155826007820155826009820155600a81018054610100600160a81b033360081b16906affffffffffffffffffffff60a81b1617905542600b82015542600c820155015561201c6002546135ea565b600255817f13ac008e0cdce4387b5f85e53dd6fd03c11f7170f920652af23fea8321705596612056604051936060855260608501906132c0565b926044358682015260643560408201528033940390a36000600555604051908152f35b015190508880611f93565b9060018401600052866000209160005b601f19851681106120df57509260009492600192600d9583601f198116106120c7575b505050811b016001820155611faa565b0151861960f88460031b161c191690558880806120b7565b919288600181928685015181550194019201612094565b600183016000526020600020601f830160051c810160208410612136575b601f880160051c8201811061212a575050611f72565b60008155600101612114565b5080612114565b905083015186611f37565b6000848152602081209250601f198416905b8181106121945750908360019493921061217b575b5050811b018155611f4b565b85015160001960f88460031b161c19169055868061216f565b9192602060018192868a01518155019401920161215a565b826000526020600020601f830160051c8101602084106121e9575b601f830160051c820181106121dd575050611f20565b600081556001016121c7565b50806121c7565b606460405162461bcd60e51b815260206004820152602060248201527f566f74696e6753797374656d3a206475726163696f6e206d7579206c617267616044820152fd5b606460405162461bcd60e51b815260206004820152602060248201527f566f74696e6753797374656d3a206475726163696f6e206d757920636f7274616044820152fd5b60405162461bcd60e51b815260206004820152604360248201527f566f74696e6753797374656d3a206c6120686f72612064652066696e2064656260448201527f652073657220706f73746572696f722061206c6120686f726120646520696e6960648201526263696f60e81b608482015260a490fd5b60405162461bcd60e51b815260206004820152603560248201527f566f74696e6753797374656d3a206c6120686f726120646520696e6963696f20604482015274646562652073657220656e20656c2066757475726f60581b6064820152608490fd5b60405162461bcd60e51b815260206004820152602c60248201527f566f74696e6753797374656d3a20656c20746974756c6f206e6f20707565646560448201526b20657374617220766163696f60a01b6064820152608490fd5b503360009081526003602052604090205460ff16611e7b565b3461057e576123d3366132aa565b906123e160025482106135f9565b8115612413576000526001602052600e60406000200190600052602052602060ff604060002054166040519015158152f35b60405162461bcd60e51b815260206004820152602d60248201527f566f74696e6753797374656d3a206e756c6c696669657248617368206e6f207060448201526c7565646520736572206365726f60981b6064820152608490fd5b3461057e57600036600319011261057e5761248761346f565b600080546001600160a01b0319811682556001600160a01b03167f8be0079c531659141344cd1fd0a4f28419497f9722a3daafe3b4186f6b6457e08280a3005b3461057e57602036600319011261057e57600435600052600160205261256a604060002060405190612504826124fd818461333a565b0383613272565b60405161251881610d89816001860161333a565b600282015491600381015460ff60048301541660068301546007840154600985015491600a86015493600b87015495612578600d600c8a0154990154996040519d8e9d8e6101a09081815201906132c0565b8d810360208f0152906132c0565b60408c019a909a5260608b0152151560808a015260a089015260c088015260e087015260ff8116151561010087015260081c6001600160a01b03166101208601526101408501526101608401526101808301520390f35b3461057e57600036600319011261057e57602060405162278d008152f35b3461057e57602036600319011261057e576004356001600160a01b0381169081900361057e5761261b61346f565b8015612667576020817f480b37e3d134e44cb444c9703493c7db564c707cb8a18cecea165f340431da1f926bffffffffffffffffffffffff60a01b6004541617600455604051908152a1005b60405162461bcd60e51b815260206004820152602e60248201527f566f74696e6753797374656d3a20646972656363696f6e20696e76616c69646160448201526d103830b930903b32b934b334b2b960911b6064820152608490fd5b3461057e57604036600319011261057e57600435602435906126e860025482106135f9565b8060005260016020526127046006604060002001548310613707565b600052600160205260056040600020019060005260205261276d6040600020600281015461277b60016127596040519461274986612742818461333a565b0387613272565b610d89604051809481930161333a565b6040519485946060865260608601906132c0565b9084820360208601526132c0565b9060408301520390f35b3461057e57600036600319011261057e576004546040516001600160a01b039091168152602090f35b3461057e5760206127d46127c1366132aa565b906127cf60025482106135f9565b613854565b6040519015158152f35b3461057e57606036600319011261057e57600435602435906044359061280760025482106135f9565b6128136005541561351f565b60016005558060005260206001815260406000209360ff600a860154166129f65760068501548110156129b35783600052600f8501825260ff60406000205416156129485760108501948460005285835260ff604060002054166128dd577f28cc31696aa888aa6307052c35b2af96e0ecff781b9f6cff96b93d86be35210a9394958260005260058201845260026040600020016128b181546135ea565b90558660005283526040600020600160ff19825416179055600c42910155604051908152a36000600555005b60405162461bcd60e51b815260048101849052603960248201527f566f74696e6753797374656d3a204573746520636f6d70726f6d69736f20646560448201527f20766f746f207961206861207369646f20726576656c61646f000000000000006064820152608490fd5b60405162461bcd60e51b815260048101839052603960248201527f566f74696e6753797374656d3a20436f6d70726f6d69736f20646520766f746f60448201527f20696e76616c69646f206f206e6f20656e636f6e747261646f000000000000006064820152608490fd5b6064826040519062461bcd60e51b825280600483015260248201527f566f74696e6753797374656d3a2043616e64696461746f20696e76616c69646f6044820152fd5b60405162461bcd60e51b815260048101839052603160248201527f566f74696e6753797374656d3a204c6f7320726573756c7461646f7320796120604482015270657374616e2066696e616c697a61646f7360781b6064820152608490fd5b3461057e57600036600319011261057e576020604051610e108152f35b3461057e5760208060031936011261057e5760043560018060a01b036000541633148015612c02575b612aa4906134c7565b612ab160025482106135f9565b806000526001825260ff60046040600020015416158015612bf1575b15612b9a57806000526001825260ff600a6040600020015416612b45578060005260018252600a604060002001600160ff1982541617905542600c604060002001557f7a30f32afb8d01f041903fe97047958da31a80da375ea2e6549e63d037f8cdf8600760406000200154926040519384523393a3005b60405162461bcd60e51b815260048101839052602760248201527f566f74696e6753797374656d3a20726573756c7461646f732079612066696e616044820152666c697a61646f7360c81b6064820152608490fd5b60405162461bcd60e51b815260048101839052602960248201527f566f74696e6753797374656d3a206c6120656c656363696f6e2061756e20657360448201526874612061637469766160b81b6064820152608490fd5b506003604060002001544211612acd565b5033600090815260038352604090205460ff16612a9b565b3461057e57612c28366132aa565b6000546001600160a01b031633148015612d58575b612c46906134c7565b612c5360025483106135f9565b816000526001602052604060002090600d8201908154612d02578015612ca9577fb04b7d6145a7588fdcf339a22877d5965f861c171204fc37688058c5f6c06d3b928160209355600c42910155604051908152a2005b60405162461bcd60e51b815260206004820152602b60248201527f566f74696e6753797374656d3a204d65726b6c6520726f6f74206e6f2070756560448201526a646520736572206365726f60a81b6064820152608490fd5b60405162461bcd60e51b815260206004820152602860248201527f566f74696e6753797374656d3a204d65726b6c6520726f6f742079612065737460448201526761626c656369646f60c01b6064820152608490fd5b503360009081526003602052604090205460ff16612c3d565b3461057e57602036600319011261057e576004356001600160a01b0381169081900361057e576000526003602052602060ff604060002054166040519015158152f35b3461057e57612dc2366132aa565b6000546001600160a01b031633148015612f1d575b612de0906134c7565b612ded60025483106135f9565b81600052602060018152612e0a6002604060002001544210613651565b612e1582151561379e565b826000526001815260086040600020018260005281526040600020805460ff811615612eb25760ff1916905582600052600181526009604060002001908154918215612e9c57600192600019019055836000525242600c6040600020015533917ff6e3ca2d6cec67764d79fbe8d18f592e8e4b32eb4a27cb7ec441fb23551c844a600080a4005b634e487b7160e01b600052601160045260246000fd5b60405162461bcd60e51b815260048101849052603a60248201527f566f74696e6753797374656d3a20766f74616e7465206e6f207265676973747260448201527f61646f20636f6e2065737465206964656e746966696361646f720000000000006064820152608490fd5b503360009081526003602052604090205460ff16612dd7565b3461057e57604036600319011261057e576001600160401b0360248035906004359083831161057e573660238401121561057e57826004013592612f7984613293565b90612f876040519283613272565b848252602094838684019160051b8301019136831161057e5784879101915b83831061322b575050505060018060a01b036000541633148015613213575b612fce906134c7565b612fdb60025484106135f9565b612fe76005541561351f565b600194856005558360005285855260ff9061300b8260046040600020015416613752565b606492838151116131bd576000885b61303a575b8888886000525242600c604060002001556000600555600080f35b81518110156131b85761304d8183613802565b51801561314f579089959493929188600052868a52600880604060002001826000528b52856040600020541615613094575b505061308a906135ea565b909192939461301a565b9091929394959650604051908a82018281108782111761313a578c98979695949261308a94928a8e8e6130f09560405282855260005252604060002001836000528d5260406000209051151560ff801983541691151516179055565b89600052878b52600960406000200161310981546135ea565b905533908a7f82350ffb4cfd6cffada59ac532ab28a3129cde41d8589863d8f6adfd91a899ea600080a4908b61307f565b89634e487b7160e01b60005260416004526000fd5b60405162461bcd60e51b8152600481018a90526037818901527f566f74696e6753797374656d3a20766f7465724964656e746966696572206e6f60448201527f20707565646520736572206365726f20656e206c6f746500000000000000000081880152608490fd5b61301f565b60405162461bcd60e51b815260048101889052602a818701527f566f74696e6753797374656d3a2064656d61736961646f7320766f74616e74656044820152697320706f72206c6f746560b01b81860152608490fd5b5033600090815260038552604090205460ff16612fc5565b8235815291810191879101612fa6565b61018081019081106001600160401b0382111761043757604052565b604081019081106001600160401b0382111761043757604052565b90601f801991011681019081106001600160401b0382111761043757604052565b6001600160401b0381116104375760051b60200190565b604090600319011261057e576004359060243590565b919082519283825260005b8481106132ec575050826000602080949584010152601f8019910116010190565b6020818301810151848301820152016132cb565b90600182811c92168015613330575b602083101461331a57565b634e487b7160e01b600052602260045260246000fd5b91607f169161330f565b906000929180549161334b83613300565b9182825260019384811690816000146133ad575060011461336d575b50505050565b90919394506000526020928360002092846000945b838610613399575050505001019038808080613367565b805485870183015294019385908201613382565b9294505050602093945060ff191683830152151560051b01019038808080613367565b81601f8201121561057e578035906001600160401b0382116104375760405192613404601f8401601f191660200185613272565b8284526020838301011161057e57816000926020809301838601378301015290565b606060031982011261057e57600435916001600160401b0360243581811161057e5783613455916004016133d0565b9260443591821161057e5761346c916004016133d0565b90565b6000546001600160a01b0316330361348357565b606460405162461bcd60e51b815260206004820152602060248201527f4f776e61626c653a2063616c6c6572206973206e6f7420746865206f776e65726044820152fd5b156134ce57565b60405162461bcd60e51b815260206004820152602360248201527f566f74696e6753797374656d3a207265717569657265206175746f72697a616360448201526234b7b760e91b6064820152608490fd5b1561352657565b60405162461bcd60e51b8152602060048201526024808201527f566f74696e6753797374656d3a207265656e7472616461206e6f207065726d696044820152637469646160e01b6064820152608490fd5b1561357e57565b60405162461bcd60e51b815260206004820152603160248201527f566f74696e6753797374656d3a206c61206465736372697063696f6e206e6f20604482015270707565646520657374617220766163696160781b6064820152608490fd5b91908203918211612e9c57565b6000198114612e9c5760010190565b1561360057565b60405162461bcd60e51b815260206004820152602360248201527f566f74696e6753797374656d3a206c6120656c656363696f6e206e6f2065786960448201526273746560e81b6064820152608490fd5b1561365857565b60405162461bcd60e51b815260206004820152602960248201527f566f74696e6753797374656d3a206c6120656c656363696f6e20796120686120604482015268636f6d656e7a61646f60b81b6064820152608490fd5b156136b657565b60405162461bcd60e51b8152602060048201526024808201527f566f74696e6753797374656d3a20726573756c7461646f732066696e616c697a60448201526361646f7360e01b6064820152608490fd5b1561370e57565b606460405162461bcd60e51b815260206004820152602060248201527f566f74696e6753797374656d3a2063616e64696461746f20696e76616c69646f6044820152fd5b1561375957565b60405162461bcd60e51b815260206004820152601f60248201527f566f74696e6753797374656d3a20656c656363696f6e20696e616374697661006044820152606490fd5b156137a557565b60405162461bcd60e51b815260206004820152602f60248201527f566f74696e6753797374656d3a20766f7465724964656e746966696572206e6f60448201526e20707565646520736572206365726f60881b6064820152608490fd5b80518210156138165760209160051b010190565b634e487b7160e01b600052603260045260246000fd5b6000915b6002831061383d57505050565b600190825181526020809101920192019190613830565b61385f82151561379e565b600052600160205260086040600020019060005260205260ff604060002054169056fea26469706673582212202207ffacb72a0a47bfc64a3c502cfda7f5de5ea39b0ece3c5e97f83e94c9fd7564736f6c63430008110033","opcodes":"PUSH1 0x80 DUP1 PUSH1 0x40 MSTORE CALLVALUE PUSH2 0x5F JUMPI PUSH1 0x0 DUP1 SLOAD CALLER PUSH1 0x1 PUSH1 0x1 PUSH1 0xA0 SHL SUB NOT DUP3 AND DUP2 OR DUP4 SSTORE SWAP1 PUSH1 0x1 PUSH1 0x1 PUSH1 0xA0 SHL SUB AND PUSH32 0x8BE0079C531659141344CD1FD0A4F28419497F9722A3DAAFE3B4186F6B6457E0 DUP4 DUP1 LOG3 DUP1 PUSH1 0x2 SSTORE PUSH1 0x5 SSTORE PUSH2 0x38B8 SWAP1 DUP2 PUSH2 0x65 DUP3 CODECOPY RETURN JUMPDEST PUSH1 0x0 DUP1 REVERT INVALID PUSH1 0x80 PUSH1 0x40 MSTORE PUSH1 0x4 CALLDATASIZE LT ISZERO PUSH2 0x12 JUMPI PUSH1 0x0 DUP1 REVERT JUMPDEST PUSH1 0x0 CALLDATALOAD PUSH1 0xE0 SHR DUP1 PUSH4 0x64E6B2E EQ PUSH2 0x2F36 JUMPI DUP1 PUSH4 0x1064D944 EQ PUSH2 0x27AE JUMPI DUP1 PUSH4 0x12FE885D EQ PUSH2 0x2DB4 JUMPI DUP1 PUSH4 0x181D989B EQ PUSH2 0x2D71 JUMPI DUP1 PUSH4 0x18712C21 EQ PUSH2 0x2C1A JUMPI DUP1 PUSH4 0x1978E0D3 EQ PUSH2 0x2A72 JUMPI DUP1 PUSH4 0x1B441C9C EQ PUSH2 0x2A55 JUMPI DUP1 PUSH4 0x1D2CD644 EQ PUSH2 0x27DE JUMPI DUP1 PUSH4 0x247B0CC1 EQ PUSH2 0x27AE JUMPI DUP1 PUSH4 0x2B7AC3F3 EQ PUSH2 0x2785 JUMPI DUP1 PUSH4 0x4BD46448 EQ PUSH2 0x26C3 JUMPI DUP1 PUSH4 0x5437988D EQ PUSH2 0x25ED JUMPI DUP1 PUSH4 0x5B6A2DA6 EQ PUSH2 0x25CF JUMPI DUP1 PUSH4 0x5E6FEF01 EQ PUSH2 0x24C7 JUMPI DUP1 PUSH4 0x715018A6 EQ PUSH2 0x246E JUMPI DUP1 PUSH4 0x74417BF4 EQ PUSH2 0x23C5 JUMPI DUP1 PUSH4 0x7AD36E84 EQ PUSH2 0x1E17 JUMPI DUP1 PUSH4 0x8DA5CB5B EQ PUSH2 0x1DEE JUMPI DUP1 PUSH4 0x9870D7FE EQ PUSH2 0x1CDB JUMPI DUP1 PUSH4 0x997D2830 EQ PUSH2 0x1CBD JUMPI DUP1 PUSH4 0x9C98BCBB EQ PUSH2 0x1B9C JUMPI DUP1 PUSH4 0xAC8A584A EQ PUSH2 0x1AD3 JUMPI DUP1 PUSH4 0xB51817F0 EQ PUSH2 0x1AB7 JUMPI DUP1 PUSH4 0xC55CC4E4 EQ PUSH2 0x1A7B JUMPI DUP1 PUSH4 0xC7CC2FD2 EQ PUSH2 0x170C JUMPI DUP1 PUSH4 0xC85407BB EQ PUSH2 0x16B9 JUMPI DUP1 PUSH4 0xD2BD1738 EQ PUSH2 0x14F8 JUMPI DUP1 PUSH4 0xD48653F5 EQ PUSH2 0xEA4 JUMPI DUP1 PUSH4 0xD9148F73 EQ PUSH2 0xCAF JUMPI DUP1 PUSH4 0xE6C62EFC EQ PUSH2 0x821 JUMPI DUP1 PUSH4 0xE8EDEDA6 EQ PUSH2 0x68A JUMPI DUP1 PUSH4 0xF2FDE38B EQ PUSH2 0x5BF JUMPI DUP1 PUSH4 0xF63FF3D2 EQ PUSH2 0x583 JUMPI PUSH4 0xF9ABEA2F EQ PUSH2 0x192 JUMPI PUSH1 0x0 DUP1 REVERT JUMPDEST CALLVALUE PUSH2 0x57E JUMPI PUSH1 0x80 CALLDATASIZE PUSH1 0x3 NOT ADD SLT PUSH2 0x57E JUMPI PUSH1 0x1 PUSH1 0x1 PUSH1 0x40 SHL SUB PUSH1 0x24 CALLDATALOAD PUSH1 0x4 CALLDATALOAD PUSH1 0x44 CALLDATALOAD DUP4 DUP2 GT PUSH2 0x57E JUMPI PUSH2 0x1C9 SWAP1 CALLDATASIZE SWAP1 PUSH1 0x4 ADD PUSH2 0x33D0 JUMP JUMPDEST PUSH1 0x64 CALLDATALOAD DUP5 DUP2 GT PUSH2 0x57E JUMPI PUSH2 0x1E1 SWAP1 CALLDATASIZE SWAP1 PUSH1 0x4 ADD PUSH2 0x33D0 JUMP JUMPDEST PUSH1 0x0 SLOAD PUSH1 0x1 PUSH1 0x1 PUSH1 0xA0 SHL SUB AND CALLER EQ DUP1 ISZERO PUSH2 0x565 JUMPI JUMPDEST PUSH2 0x1FF SWAP1 PUSH2 0x34C7 JUMP JUMPDEST PUSH2 0x20C PUSH1 0x2 SLOAD DUP5 LT PUSH2 0x35F9 JUMP JUMPDEST DUP3 PUSH1 0x0 MSTORE PUSH1 0x1 SWAP1 PUSH1 0x20 SWAP6 DUP3 DUP8 MSTORE PUSH2 0x22C PUSH1 0x2 PUSH1 0x40 PUSH1 0x0 KECCAK256 ADD SLOAD TIMESTAMP LT PUSH2 0x3651 JUMP JUMPDEST DUP5 PUSH1 0x0 MSTORE DUP3 DUP8 MSTORE PUSH2 0x248 PUSH1 0xFF PUSH1 0xA PUSH1 0x40 PUSH1 0x0 KECCAK256 ADD SLOAD AND ISZERO PUSH2 0x36AF JUMP JUMPDEST DUP5 PUSH1 0x0 MSTORE DUP3 DUP8 MSTORE PUSH2 0x262 PUSH1 0x6 PUSH1 0x40 PUSH1 0x0 KECCAK256 ADD SLOAD DUP8 LT PUSH2 0x3707 JUMP JUMPDEST DUP4 MLOAD PUSH2 0x44D JUMPI JUMPDEST DUP2 MLOAD PUSH2 0x2C0 JUMPI JUMPDEST POP POP PUSH32 0xB6E51B6B69E8C7A28ECF62A3E7202F4C8CBF6F0360B70B5055762BEC1CFD892A SWAP2 PUSH2 0x2BB SWAP2 DUP5 PUSH1 0x0 MSTORE DUP7 MSTORE TIMESTAMP PUSH1 0xC PUSH1 0x40 PUSH1 0x0 KECCAK256 ADD SSTORE PUSH1 0x40 MLOAD SWAP2 DUP3 SWAP2 DUP8 DUP4 MSTORE CALLER SWAP8 DUP4 ADD SWAP1 PUSH2 0x32C0 JUMP JUMPDEST SUB SWAP1 LOG4 STOP JUMPDEST DUP5 PUSH1 0x0 MSTORE DUP3 DUP8 MSTORE PUSH1 0x5 PUSH1 0x40 PUSH1 0x0 KECCAK256 ADD DUP7 PUSH1 0x0 MSTORE DUP8 MSTORE DUP3 PUSH1 0x40 PUSH1 0x0 KECCAK256 ADD SWAP2 DUP1 MLOAD SWAP2 DUP3 GT PUSH2 0x437 JUMPI PUSH2 0x2F0 DUP4 SLOAD PUSH2 0x3300 JUMP JUMPDEST PUSH1 0x1F DUP2 GT PUSH2 0x3EE JUMPI JUMPDEST POP DUP8 SWAP1 PUSH1 0x1F DUP4 GT PUSH1 0x1 EQ PUSH2 0x362 JUMPI SWAP2 DUP1 PUSH32 0xB6E51B6B69E8C7A28ECF62A3E7202F4C8CBF6F0360B70B5055762BEC1CFD892A SWAP7 SWAP5 SWAP3 PUSH2 0x2BB SWAP7 SWAP5 PUSH1 0x0 SWAP3 PUSH2 0x357 JUMPI JUMPDEST POP POP PUSH1 0x0 NOT PUSH1 0x3 DUP4 SWAP1 SHL SHR NOT AND SWAP1 DUP4 SHL OR SWAP1 SSTORE JUMPDEST SWAP2 DUP2 SWAP4 POP PUSH2 0x270 JUMP JUMPDEST ADD MLOAD SWAP1 POP CODESIZE DUP1 PUSH2 0x33A JUMP JUMPDEST SWAP1 PUSH1 0x1F NOT DUP4 AND SWAP2 DUP5 PUSH1 0x0 MSTORE DUP10 PUSH1 0x0 KECCAK256 SWAP3 PUSH1 0x0 JUMPDEST DUP12 DUP3 DUP3 LT PUSH2 0x3DA JUMPI POP POP SWAP3 DUP7 SWAP5 SWAP2 SWAP3 PUSH2 0x2BB SWAP8 SWAP4 DUP4 PUSH32 0xB6E51B6B69E8C7A28ECF62A3E7202F4C8CBF6F0360B70B5055762BEC1CFD892A SWAP11 SWAP9 SWAP7 LT PUSH2 0x3C1 JUMPI JUMPDEST POP POP POP DUP2 SHL ADD SWAP1 SSTORE PUSH2 0x34E JUMP JUMPDEST ADD MLOAD PUSH1 0x0 NOT PUSH1 0xF8 DUP5 PUSH1 0x3 SHL AND SHR NOT AND SWAP1 SSTORE CODESIZE DUP1 DUP1 PUSH2 0x3B4 JUMP JUMPDEST DUP4 DUP6 ADD MLOAD DUP7 SSTORE SWAP5 DUP9 ADD SWAP5 SWAP4 DUP5 ADD SWAP4 ADD PUSH2 0x375 JUMP JUMPDEST DUP4 PUSH1 0x0 MSTORE DUP9 PUSH1 0x0 KECCAK256 PUSH1 0x1F DUP5 ADD PUSH1 0x5 SHR DUP2 ADD SWAP2 DUP11 DUP6 LT PUSH2 0x42D JUMPI JUMPDEST PUSH1 0x1F ADD PUSH1 0x5 SHR ADD SWAP1 DUP6 SWAP1 JUMPDEST DUP3 DUP2 LT PUSH2 0x421 JUMPI POP POP PUSH2 0x2F9 JUMP JUMPDEST PUSH1 0x0 DUP2 SSTORE ADD DUP6 SWAP1 PUSH2 0x413 JUMP JUMPDEST SWAP1 SWAP2 POP DUP2 SWAP1 PUSH2 0x408 JUMP JUMPDEST PUSH4 0x4E487B71 PUSH1 0xE0 SHL PUSH1 0x0 MSTORE PUSH1 0x41 PUSH1 0x4 MSTORE PUSH1 0x24 PUSH1 0x0 REVERT JUMPDEST DUP5 PUSH1 0x0 MSTORE DUP3 DUP8 MSTORE PUSH1 0x5 PUSH1 0x40 PUSH1 0x0 KECCAK256 ADD DUP7 PUSH1 0x0 MSTORE DUP8 MSTORE PUSH1 0x40 PUSH1 0x0 KECCAK256 DUP5 MLOAD DUP3 DUP2 GT PUSH2 0x437 JUMPI PUSH2 0x47A DUP3 SLOAD PUSH2 0x3300 JUMP JUMPDEST PUSH1 0x1F DUP2 GT PUSH2 0x51C JUMPI JUMPDEST POP DUP1 DUP10 PUSH1 0x1F DUP3 GT PUSH1 0x1 EQ PUSH2 0x4BB JUMPI PUSH1 0x0 SWAP2 PUSH2 0x4B0 JUMPI JUMPDEST POP PUSH1 0x0 NOT PUSH1 0x3 DUP4 SWAP1 SHL SHR NOT AND SWAP1 DUP6 SHL OR SWAP1 SSTORE PUSH2 0x269 JUMP JUMPDEST SWAP1 POP DUP7 ADD MLOAD CODESIZE PUSH2 0x499 JUMP JUMPDEST DUP7 SWAP3 POP PUSH1 0x1F NOT DUP3 AND SWAP1 DUP5 PUSH1 0x0 MSTORE DUP12 PUSH1 0x0 KECCAK256 SWAP2 PUSH1 0x0 JUMPDEST DUP14 DUP3 DUP3 LT PUSH2 0x506 JUMPI POP POP DUP4 GT PUSH2 0x4ED JUMPI JUMPDEST POP POP DUP2 SHL ADD SWAP1 SSTORE PUSH2 0x269 JUMP JUMPDEST DUP9 ADD MLOAD PUSH1 0x0 NOT PUSH1 0xF8 DUP5 PUSH1 0x3 SHL AND SHR NOT AND SWAP1 SSTORE CODESIZE DUP1 PUSH2 0x4E1 JUMP JUMPDEST DUP4 DUP13 ADD MLOAD DUP6 SSTORE DUP11 SWAP7 SWAP1 SWAP5 ADD SWAP4 SWAP3 DUP4 ADD SWAP3 ADD PUSH2 0x4D0 JUMP JUMPDEST DUP3 PUSH1 0x0 MSTORE DUP10 PUSH1 0x0 KECCAK256 PUSH1 0x1F DUP4 ADD PUSH1 0x5 SHR DUP2 ADD SWAP2 DUP12 DUP5 LT PUSH2 0x55B JUMPI JUMPDEST PUSH1 0x1F ADD PUSH1 0x5 SHR ADD SWAP1 DUP7 SWAP1 JUMPDEST DUP3 DUP2 LT PUSH2 0x54F JUMPI POP POP PUSH2 0x483 JUMP JUMPDEST PUSH1 0x0 DUP2 SSTORE ADD DUP7 SWAP1 PUSH2 0x541 JUMP JUMPDEST SWAP1 SWAP2 POP DUP2 SWAP1 PUSH2 0x536 JUMP JUMPDEST POP CALLER PUSH1 0x0 SWAP1 DUP2 MSTORE PUSH1 0x3 PUSH1 0x20 MSTORE PUSH1 0x40 SWAP1 KECCAK256 SLOAD PUSH1 0xFF AND PUSH2 0x1F6 JUMP JUMPDEST PUSH1 0x0 DUP1 REVERT JUMPDEST CALLVALUE PUSH2 0x57E JUMPI PUSH1 0x20 CALLDATASIZE PUSH1 0x3 NOT ADD SLT PUSH2 0x57E JUMPI PUSH1 0x4 CALLDATALOAD PUSH2 0x5A4 PUSH1 0x2 SLOAD DUP3 LT PUSH2 0x35F9 JUMP JUMPDEST PUSH1 0x0 MSTORE PUSH1 0x1 PUSH1 0x20 MSTORE PUSH1 0x20 PUSH1 0x9 PUSH1 0x40 PUSH1 0x0 KECCAK256 ADD SLOAD PUSH1 0x40 MLOAD SWAP1 DUP2 MSTORE RETURN JUMPDEST CALLVALUE PUSH2 0x57E JUMPI PUSH1 0x20 CALLDATASIZE PUSH1 0x3 NOT ADD SLT PUSH2 0x57E JUMPI PUSH1 0x4 CALLDATALOAD PUSH1 0x1 PUSH1 0x1 PUSH1 0xA0 SHL SUB DUP2 DUP2 AND SWAP2 DUP3 SWAP1 SUB PUSH2 0x57E JUMPI PUSH2 0x5EE PUSH2 0x346F JUMP JUMPDEST DUP2 ISZERO PUSH2 0x636 JUMPI PUSH1 0x0 SLOAD DUP3 PUSH12 0xFFFFFFFFFFFFFFFFFFFFFFFF PUSH1 0xA0 SHL DUP3 AND OR PUSH1 0x0 SSTORE AND PUSH32 0x8BE0079C531659141344CD1FD0A4F28419497F9722A3DAAFE3B4186F6B6457E0 PUSH1 0x0 DUP1 LOG3 STOP JUMPDEST PUSH1 0x40 MLOAD PUSH3 0x461BCD PUSH1 0xE5 SHL DUP2 MSTORE PUSH1 0x20 PUSH1 0x4 DUP3 ADD MSTORE PUSH1 0x26 PUSH1 0x24 DUP3 ADD MSTORE PUSH32 0x4F776E61626C653A206E6577206F776E657220697320746865207A65726F2061 PUSH1 0x44 DUP3 ADD MSTORE PUSH6 0x646472657373 PUSH1 0xD0 SHL PUSH1 0x64 DUP3 ADD MSTORE PUSH1 0x84 SWAP1 REVERT JUMPDEST CALLVALUE PUSH2 0x57E JUMPI PUSH1 0x20 DUP1 PUSH1 0x3 NOT CALLDATASIZE ADD SLT PUSH2 0x57E JUMPI PUSH1 0x4 CALLDATALOAD SWAP1 PUSH1 0x2 SWAP2 PUSH2 0x6AF DUP4 SLOAD DUP3 LT PUSH2 0x35F9 JUMP JUMPDEST DUP1 PUSH1 0x0 MSTORE PUSH1 0x1 SWAP3 DUP4 DUP4 MSTORE PUSH1 0xFF PUSH1 0xA PUSH1 0x40 PUSH1 0x0 KECCAK256 ADD SLOAD AND DUP1 ISZERO PUSH2 0x810 JUMPI JUMPDEST ISZERO PUSH2 0x7BB JUMPI DUP4 DUP4 DUP4 PUSH1 0x0 MSTORE DUP2 DUP2 MSTORE PUSH1 0x6 SWAP3 DUP4 PUSH1 0x40 PUSH1 0x0 KECCAK256 ADD SLOAD SWAP4 PUSH2 0x708 PUSH2 0x6F2 DUP7 PUSH2 0x3293 JUMP JUMPDEST SWAP6 PUSH2 0x700 PUSH1 0x40 MLOAD SWAP8 DUP9 PUSH2 0x3272 JUMP JUMPDEST DUP1 DUP8 MSTORE PUSH2 0x3293 JUMP JUMPDEST DUP6 DUP5 ADD SWAP7 SWAP1 PUSH1 0x1F NOT ADD CALLDATASIZE DUP9 CALLDATACOPY PUSH1 0x0 DUP6 JUMPDEST PUSH2 0x759 JUMPI JUMPDEST POP POP POP POP PUSH1 0x40 MLOAD SWAP3 DUP2 DUP5 ADD SWAP1 DUP3 DUP6 MSTORE MLOAD DUP1 SWAP2 MSTORE PUSH1 0x40 DUP5 ADD SWAP5 SWAP2 PUSH1 0x0 JUMPDEST DUP3 DUP2 LT PUSH2 0x746 JUMPI DUP6 DUP8 SUB DUP7 RETURN JUMPDEST DUP4 MLOAD DUP8 MSTORE SWAP6 DUP2 ADD SWAP6 SWAP3 DUP2 ADD SWAP3 DUP5 ADD PUSH2 0x739 JUMP JUMPDEST SWAP1 DUP6 SWAP8 SWAP6 SWAP3 SWAP2 DUP2 PUSH1 0x0 SWAP9 SWAP7 SWAP9 MSTORE DUP4 DUP9 MSTORE DUP3 PUSH1 0x40 PUSH1 0x0 KECCAK256 ADD SLOAD DUP2 LT ISZERO PUSH2 0x7AF JUMPI PUSH2 0x7A2 SWAP1 PUSH1 0x5 PUSH1 0x40 PUSH1 0x0 KECCAK256 ADD DUP2 PUSH1 0x0 MSTORE DUP10 MSTORE DUP6 PUSH1 0x40 PUSH1 0x0 KECCAK256 ADD SLOAD PUSH2 0x79C DUP3 DUP10 PUSH2 0x3802 JUMP JUMPDEST MSTORE PUSH2 0x35EA JUMP JUMPDEST SWAP1 SWAP2 SWAP3 SWAP6 SWAP8 SWAP7 SWAP5 SWAP7 PUSH2 0x718 JUMP JUMPDEST POP SWAP7 SWAP5 SWAP7 SWAP6 SWAP4 SWAP6 PUSH2 0x71D JUMP JUMPDEST PUSH1 0x40 MLOAD PUSH3 0x461BCD PUSH1 0xE5 SHL DUP2 MSTORE PUSH1 0x4 DUP2 ADD DUP5 SWAP1 MSTORE PUSH1 0x27 PUSH1 0x24 DUP3 ADD MSTORE PUSH32 0x566F74696E6753797374656D3A20726573756C7461646F73206E6F2064697370 PUSH1 0x44 DUP3 ADD MSTORE PUSH7 0x6F6E69626C6573 PUSH1 0xC8 SHL PUSH1 0x64 DUP3 ADD MSTORE PUSH1 0x84 SWAP1 REVERT JUMPDEST POP PUSH1 0x3 PUSH1 0x40 PUSH1 0x0 KECCAK256 ADD SLOAD TIMESTAMP GT PUSH2 0x6CC JUMP JUMPDEST CALLVALUE PUSH2 0x57E JUMPI PUSH2 0x82F CALLDATASIZE PUSH2 0x3426 JUMP JUMPDEST SWAP1 PUSH1 0x1 DUP1 PUSH1 0xA0 SHL SUB PUSH1 0x0 SLOAD AND CALLER EQ DUP1 ISZERO PUSH2 0xC96 JUMPI JUMPDEST PUSH2 0x84D SWAP1 PUSH2 0x34C7 JUMP JUMPDEST PUSH2 0x85A PUSH1 0x2 SLOAD DUP5 LT PUSH2 0x35F9 JUMP JUMPDEST DUP3 PUSH1 0x0 MSTORE PUSH1 0x1 PUSH1 0x20 MSTORE PUSH2 0x876 PUSH1 0x2 PUSH1 0x40 PUSH1 0x0 KECCAK256 ADD SLOAD TIMESTAMP LT PUSH2 0x3651 JUMP JUMPDEST DUP3 PUSH1 0x0 MSTORE PUSH1 0x1 PUSH1 0x20 MSTORE PUSH2 0x894 PUSH1 0xFF PUSH1 0xA PUSH1 0x40 PUSH1 0x0 KECCAK256 ADD SLOAD AND ISZERO PUSH2 0x36AF JUMP JUMPDEST DUP1 MLOAD ISZERO PUSH2 0xC3C JUMPI PUSH2 0x8A7 DUP3 MLOAD ISZERO ISZERO PUSH2 0x3577 JUMP JUMPDEST DUP3 PUSH1 0x0 MSTORE PUSH1 0x1 PUSH1 0x20 MSTORE PUSH1 0x64 PUSH1 0x6 PUSH1 0x40 PUSH1 0x0 KECCAK256 ADD SLOAD LT ISZERO PUSH2 0xBE2 JUMPI DUP3 PUSH1 0x0 MSTORE PUSH1 0x1 PUSH1 0x20 MSTORE PUSH1 0x6 PUSH1 0x40 PUSH1 0x0 KECCAK256 ADD SLOAD SWAP2 PUSH1 0x40 MLOAD SWAP1 PUSH1 0x80 DUP3 ADD DUP3 DUP2 LT PUSH1 0x1 PUSH1 0x1 PUSH1 0x40 SHL SUB DUP3 GT OR PUSH2 0x437 JUMPI PUSH1 0x40 MSTORE DUP3 DUP3 MSTORE PUSH1 0x20 DUP3 ADD MSTORE PUSH1 0x0 PUSH1 0x40 DUP3 ADD MSTORE TIMESTAMP PUSH1 0x60 DUP3 ADD MSTORE DUP4 PUSH1 0x0 MSTORE PUSH1 0x1 PUSH1 0x20 MSTORE PUSH1 0x5 PUSH1 0x40 PUSH1 0x0 KECCAK256 ADD DUP4 PUSH1 0x0 MSTORE PUSH1 0x20 MSTORE PUSH1 0x40 PUSH1 0x0 KECCAK256 SWAP1 DUP1 MLOAD DUP1 MLOAD SWAP1 PUSH1 0x1 PUSH1 0x1 PUSH1 0x40 SHL SUB DUP3 GT PUSH2 0x437 JUMPI DUP2 SWAP1 PUSH2 0x943 DUP6 SLOAD PUSH2 0x3300 JUMP JUMPDEST PUSH1 0x1F DUP2 GT PUSH2 0xB92 JUMPI JUMPDEST POP PUSH1 0x20 SWAP1 PUSH1 0x1F DUP4 GT PUSH1 0x1 EQ PUSH2 0xB2C JUMPI PUSH1 0x0 SWAP3 PUSH2 0xB21 JUMPI JUMPDEST POP POP DUP2 PUSH1 0x1 SHL SWAP2 PUSH1 0x0 NOT SWAP1 PUSH1 0x3 SHL SHR NOT AND OR DUP3 SSTORE JUMPDEST PUSH1 0x1 DUP3 ADD PUSH1 0x20 DUP3 ADD MLOAD DUP1 MLOAD SWAP1 PUSH1 0x1 PUSH1 0x1 PUSH1 0x40 SHL SUB DUP3 GT PUSH2 0x437 JUMPI PUSH2 0x99C DUP4 SLOAD PUSH2 0x3300 JUMP JUMPDEST PUSH1 0x1F DUP2 GT PUSH2 0xAD9 JUMPI JUMPDEST POP SWAP2 PUSH1 0x20 SWAP8 SWAP4 SWAP2 DUP8 SWAP6 SWAP4 DUP10 SWAP1 PUSH1 0x1F DUP4 GT PUSH1 0x1 EQ PUSH2 0xA6B JUMPI SWAP2 DUP1 PUSH1 0x60 SWAP5 SWAP3 PUSH1 0x3 SWAP7 SWAP5 PUSH1 0x0 SWAP3 PUSH2 0xA60 JUMPI JUMPDEST POP POP DUP2 PUSH1 0x1 SHL SWAP2 PUSH1 0x0 NOT SWAP1 DUP8 SHL SHR NOT AND OR SWAP1 SSTORE JUMPDEST PUSH1 0x40 DUP2 ADD MLOAD PUSH1 0x2 DUP6 ADD SSTORE ADD MLOAD SWAP2 ADD SSTORE DUP1 PUSH1 0x0 MSTORE PUSH1 0x1 DUP6 MSTORE PUSH1 0x6 PUSH1 0x40 PUSH1 0x0 KECCAK256 ADD PUSH2 0xA0B DUP2 SLOAD PUSH2 0x35EA JUMP JUMPDEST SWAP1 SSTORE DUP1 PUSH1 0x0 MSTORE PUSH1 0x1 DUP6 MSTORE TIMESTAMP PUSH1 0xC PUSH1 0x40 PUSH1 0x0 KECCAK256 ADD SSTORE PUSH32 0x215B7E673452BF74F22FF23E0CEAE9BB39A67A2AB41E8213510B47F2DAFDA7DB PUSH1 0x40 MLOAD DUP7 DUP2 MSTORE DUP1 PUSH2 0xA55 CALLER SWAP7 DUP10 DUP4 ADD SWAP1 PUSH2 0x32C0 JUMP JUMPDEST SUB SWAP1 LOG4 PUSH1 0x40 MLOAD SWAP1 DUP2 MSTORE RETURN JUMPDEST ADD MLOAD SWAP1 POP DUP13 DUP1 PUSH2 0x9CE JUMP JUMPDEST SWAP1 PUSH1 0x1F NOT DUP4 AND SWAP2 DUP5 PUSH1 0x0 MSTORE DUP12 PUSH1 0x0 KECCAK256 SWAP3 PUSH1 0x0 JUMPDEST DUP2 DUP2 LT PUSH2 0xABF JUMPI POP SWAP3 PUSH1 0x1 SWAP3 DUP6 SWAP3 PUSH1 0x3 SWAP9 SWAP7 PUSH1 0x60 SWAP9 SWAP7 LT PUSH2 0xAA7 JUMPI JUMPDEST POP POP POP DUP2 SHL ADD SWAP1 SSTORE PUSH2 0x9E2 JUMP JUMPDEST ADD MLOAD PUSH1 0x0 NOT DUP4 DUP10 SHL PUSH1 0xF8 AND SHR NOT AND SWAP1 SSTORE DUP13 DUP1 DUP1 PUSH2 0xA9A JUMP JUMPDEST DUP3 DUP5 ADD MLOAD DUP6 SSTORE DUP13 SWAP11 POP PUSH1 0x1 SWAP1 SWAP5 ADD SWAP4 SWAP3 DUP14 ADD SWAP3 DUP14 ADD PUSH2 0xA7E JUMP JUMPDEST DUP4 PUSH1 0x0 MSTORE PUSH1 0x20 PUSH1 0x0 KECCAK256 PUSH1 0x1F DUP5 ADD PUSH1 0x5 SHR DUP2 ADD SWAP2 PUSH1 0x20 DUP6 LT PUSH2 0xB17 JUMPI JUMPDEST PUSH1 0x1F ADD PUSH1 0x5 SHR ADD SWAP1 JUMPDEST DUP2 DUP2 LT PUSH2 0xB0B JUMPI POP PUSH2 0x9A5 JUMP JUMPDEST PUSH1 0x0 DUP2 SSTORE PUSH1 0x1 ADD PUSH2 0xAFE JUMP JUMPDEST SWAP1 SWAP2 POP DUP2 SWAP1 PUSH2 0xAF5 JUMP JUMPDEST ADD MLOAD SWAP1 POP DUP8 DUP1 PUSH2 0x963 JUMP JUMPDEST PUSH1 0x0 DUP7 DUP2 MSTORE PUSH1 0x20 DUP2 KECCAK256 SWAP4 POP PUSH1 0x1F NOT DUP6 AND SWAP1 JUMPDEST DUP2 DUP2 LT PUSH2 0xB7A JUMPI POP SWAP1 DUP5 PUSH1 0x1 SWAP6 SWAP5 SWAP4 SWAP3 LT PUSH2 0xB61 JUMPI JUMPDEST POP POP POP DUP2 SHL ADD DUP3 SSTORE PUSH2 0x978 JUMP JUMPDEST ADD MLOAD PUSH1 0x0 NOT PUSH1 0xF8 DUP5 PUSH1 0x3 SHL AND SHR NOT AND SWAP1 SSTORE DUP8 DUP1 DUP1 PUSH2 0xB54 JUMP JUMPDEST SWAP3 SWAP4 PUSH1 0x20 PUSH1 0x1 DUP2 SWAP3 DUP8 DUP7 ADD MLOAD DUP2 SSTORE ADD SWAP6 ADD SWAP4 ADD PUSH2 0xB3E JUMP JUMPDEST SWAP1 SWAP2 POP DUP5 PUSH1 0x0 MSTORE PUSH1 0x20 PUSH1 0x0 KECCAK256 PUSH1 0x1F DUP5 ADD PUSH1 0x5 SHR DUP2 ADD PUSH1 0x20 DUP6 LT PUSH2 0xBDB JUMPI JUMPDEST SWAP1 DUP5 SWAP4 SWAP3 SWAP2 JUMPDEST PUSH1 0x1F DUP4 ADD PUSH1 0x5 SHR DUP3 ADD DUP2 LT PUSH2 0xBCC JUMPI POP POP PUSH2 0x94C JUMP JUMPDEST PUSH1 0x0 DUP2 SSTORE DUP6 SWAP5 POP PUSH1 0x1 ADD PUSH2 0xBB6 JUMP JUMPDEST POP DUP1 PUSH2 0xBB0 JUMP JUMPDEST PUSH1 0x40 MLOAD PUSH3 0x461BCD PUSH1 0xE5 SHL DUP2 MSTORE PUSH1 0x20 PUSH1 0x4 DUP3 ADD MSTORE PUSH1 0x2C PUSH1 0x24 DUP3 ADD MSTORE PUSH32 0x566F74696E6753797374656D3A206C696D6974652064652063616E6469646174 PUSH1 0x44 DUP3 ADD MSTORE PUSH12 0x6F7320616C63616E7A61646F PUSH1 0xA0 SHL PUSH1 0x64 DUP3 ADD MSTORE PUSH1 0x84 SWAP1 REVERT JUMPDEST PUSH1 0x40 MLOAD PUSH3 0x461BCD PUSH1 0xE5 SHL DUP2 MSTORE PUSH1 0x20 PUSH1 0x4 DUP3 ADD MSTORE PUSH1 0x2C PUSH1 0x24 DUP3 ADD MSTORE PUSH32 0x566F74696E6753797374656D3A20656C206E6F6D627265206E6F207075656465 PUSH1 0x44 DUP3 ADD MSTORE PUSH12 0x20657374617220766163696F PUSH1 0xA0 SHL PUSH1 0x64 DUP3 ADD MSTORE PUSH1 0x84 SWAP1 REVERT JUMPDEST POP CALLER PUSH1 0x0 SWAP1 DUP2 MSTORE PUSH1 0x3 PUSH1 0x20 MSTORE PUSH1 0x40 SWAP1 KECCAK256 SLOAD PUSH1 0xFF AND PUSH2 0x844 JUMP JUMPDEST CALLVALUE PUSH2 0x57E JUMPI PUSH1 0x20 CALLDATASIZE PUSH1 0x3 NOT ADD SLT PUSH2 0x57E JUMPI PUSH1 0x4 CALLDATALOAD PUSH1 0x0 PUSH2 0x160 PUSH1 0x40 MLOAD PUSH2 0xCD4 DUP2 PUSH2 0x323B JUMP JUMPDEST DUP3 DUP2 MSTORE PUSH1 0x60 PUSH1 0x20 DUP3 ADD MSTORE PUSH1 0x60 PUSH1 0x40 DUP3 ADD MSTORE DUP3 PUSH1 0x60 DUP3 ADD MSTORE DUP3 PUSH1 0x80 DUP3 ADD MSTORE DUP3 PUSH1 0xA0 DUP3 ADD MSTORE DUP3 PUSH1 0xC0 DUP3 ADD MSTORE DUP3 PUSH1 0xE0 DUP3 ADD MSTORE DUP3 PUSH2 0x100 DUP3 ADD MSTORE DUP3 PUSH2 0x120 DUP3 ADD MSTORE DUP3 PUSH2 0x140 DUP3 ADD MSTORE ADD MSTORE PUSH2 0xD27 PUSH1 0x2 SLOAD DUP3 LT PUSH2 0x35F9 JUMP JUMPDEST DUP1 PUSH1 0x0 MSTORE PUSH1 0x1 PUSH1 0x20 MSTORE PUSH1 0x40 PUSH1 0x0 KECCAK256 PUSH1 0x2 DUP2 ADD SLOAD PUSH1 0x3 DUP3 ADD SLOAD PUSH1 0xFF PUSH1 0x4 DUP5 ADD SLOAD AND PUSH1 0x6 DUP5 ADD SLOAD PUSH1 0x7 DUP6 ADD SLOAD SWAP2 PUSH1 0xA DUP7 ADD SLOAD SWAP4 PUSH1 0xB DUP8 ADD SLOAD SWAP6 PUSH1 0x1 PUSH2 0xDA5 PUSH1 0xC DUP11 ADD SLOAD SWAP10 PUSH1 0x40 MLOAD SWAP12 PUSH2 0xD76 DUP14 PUSH2 0x323B JUMP JUMPDEST DUP13 MSTORE PUSH1 0x40 MLOAD PUSH2 0xD90 DUP2 PUSH2 0xD89 DUP2 DUP6 PUSH2 0x333A JUMP JUMPDEST SUB DUP3 PUSH2 0x3272 JUMP JUMPDEST PUSH1 0x20 DUP14 ADD MSTORE PUSH2 0xD89 PUSH1 0x40 MLOAD DUP1 SWAP5 DUP2 SWAP4 ADD PUSH2 0x333A JUMP JUMPDEST PUSH1 0x40 DUP11 ADD MSTORE PUSH1 0x60 DUP10 ADD MSTORE PUSH1 0x80 DUP9 ADD MSTORE ISZERO ISZERO PUSH1 0xA0 DUP8 ADD MSTORE PUSH1 0xC0 DUP7 ADD MSTORE PUSH1 0xE0 DUP6 ADD MSTORE PUSH1 0xFF DUP2 AND ISZERO ISZERO PUSH2 0x100 DUP6 ADD MSTORE PUSH1 0x1 DUP1 PUSH1 0xA0 SHL SUB SWAP1 PUSH1 0x8 SHR AND PUSH2 0x120 DUP5 ADD MSTORE PUSH2 0x140 DUP4 ADD MSTORE PUSH2 0x160 DUP3 ADD MSTORE PUSH1 0x40 MLOAD DUP1 SWAP2 PUSH1 0x20 DUP3 MSTORE DUP1 MLOAD PUSH1 0x20 DUP4 ADD MSTORE PUSH2 0x160 PUSH2 0xE36 PUSH2 0xE20 PUSH1 0x20 DUP5 ADD MLOAD PUSH2 0x180 PUSH1 0x40 DUP8 ADD MSTORE PUSH2 0x1A0 DUP7 ADD SWAP1 PUSH2 0x32C0 JUMP JUMPDEST PUSH1 0x40 DUP5 ADD MLOAD DUP6 DUP3 SUB PUSH1 0x1F NOT ADD PUSH1 0x60 DUP8 ADD MSTORE PUSH2 0x32C0 JUMP JUMPDEST SWAP2 PUSH1 0x60 DUP2 ADD MLOAD PUSH1 0x80 DUP6 ADD MSTORE PUSH1 0x80 DUP2 ADD MLOAD PUSH1 0xA0 DUP6 ADD MSTORE PUSH1 0xA0 DUP2 ADD MLOAD ISZERO ISZERO PUSH1 0xC0 DUP6 ADD MSTORE PUSH1 0xC0 DUP2 ADD MLOAD PUSH1 0xE0 DUP6 ADD MSTORE PUSH1 0xE0 DUP2 ADD MLOAD PUSH2 0x100 DUP6 ADD MSTORE PUSH2 0x100 DUP2 ADD MLOAD ISZERO ISZERO PUSH2 0x120 DUP6 ADD MSTORE PUSH1 0x1 DUP1 PUSH1 0xA0 SHL SUB PUSH2 0x120 DUP3 ADD MLOAD AND PUSH2 0x140 DUP6 ADD MSTORE PUSH2 0x140 DUP2 ADD MLOAD DUP3 DUP6 ADD MSTORE ADD MLOAD PUSH2 0x180 DUP4 ADD MSTORE SUB SWAP1 RETURN JUMPDEST CALLVALUE PUSH2 0x57E JUMPI PUSH2 0x180 CALLDATASIZE PUSH1 0x3 NOT ADD SLT PUSH2 0x57E JUMPI CALLDATASIZE PUSH1 0x43 SLT ISZERO PUSH2 0x57E JUMPI PUSH1 0x40 MLOAD PUSH2 0xECB DUP2 PUSH2 0x3257 JUMP JUMPDEST PUSH1 0x64 DUP2 CALLDATASIZE DUP3 GT PUSH2 0x57E JUMPI PUSH1 0x24 SWAP1 JUMPDEST DUP3 DUP3 LT PUSH2 0x14E8 JUMPI POP POP CALLDATASIZE PUSH1 0x83 SLT ISZERO PUSH2 0x57E JUMPI PUSH1 0x40 MLOAD SWAP2 PUSH2 0xEF8 DUP4 PUSH2 0x3257 JUMP JUMPDEST PUSH1 0xE4 DUP4 CALLDATASIZE DUP3 GT PUSH2 0x57E JUMPI DUP4 SWAP1 JUMPDEST DUP3 DUP3 LT PUSH2 0x1497 JUMPI POP POP CALLDATASIZE PUSH2 0x103 SLT ISZERO PUSH2 0x57E JUMPI PUSH1 0x40 MLOAD SWAP1 PUSH2 0xF25 DUP3 PUSH2 0x3257 JUMP JUMPDEST DUP2 PUSH2 0x124 SWAP2 CALLDATASIZE DUP4 GT PUSH2 0x57E JUMPI SWAP1 JUMPDEST DUP3 DUP3 LT PUSH2 0x1487 JUMPI POP POP PUSH2 0xF4B PUSH1 0x2 SLOAD PUSH1 0x4 CALLDATALOAD LT PUSH2 0x35F9 JUMP JUMPDEST PUSH1 0x4 CALLDATALOAD PUSH1 0x0 MSTORE PUSH1 0x1 PUSH1 0x20 MSTORE PUSH1 0xFF PUSH1 0x4 PUSH1 0x40 PUSH1 0x0 KECCAK256 ADD SLOAD AND ISZERO PUSH2 0x142C JUMPI PUSH1 0x4 CALLDATALOAD PUSH1 0x0 MSTORE PUSH1 0x1 PUSH1 0x20 MSTORE PUSH1 0x2 PUSH1 0x40 PUSH1 0x0 KECCAK256 ADD SLOAD TIMESTAMP LT PUSH2 0x13D2 JUMPI PUSH1 0x4 CALLDATALOAD PUSH1 0x0 MSTORE PUSH1 0x1 PUSH1 0x20 MSTORE PUSH1 0x3 PUSH1 0x40 PUSH1 0x0 KECCAK256 ADD SLOAD TIMESTAMP GT PUSH2 0x137E JUMPI PUSH2 0xFA7 PUSH1 0x5 SLOAD ISZERO PUSH2 0x351F JUMP JUMPDEST PUSH1 0x1 PUSH1 0x5 SSTORE PUSH1 0x4 SLOAD PUSH1 0x1 PUSH1 0x1 PUSH1 0xA0 SHL SUB AND SWAP2 DUP3 ISZERO PUSH2 0x1329 JUMPI PUSH1 0x4 CALLDATALOAD PUSH1 0x0 MSTORE PUSH1 0x1 PUSH1 0x20 MSTORE PUSH1 0x40 PUSH1 0x0 KECCAK256 SWAP6 PUSH1 0xD DUP8 ADD SLOAD DUP1 ISZERO PUSH2 0x12BF JUMPI DUP4 CALLDATALOAD SUB PUSH2 0x1270 JUMPI PUSH2 0x144 CALLDATALOAD PUSH1 0x0 MSTORE PUSH1 0xE DUP8 ADD PUSH1 0x20 MSTORE PUSH1 0xFF PUSH1 0x40 PUSH1 0x0 KECCAK256 SLOAD AND PUSH2 0x1206 JUMPI PUSH1 0x40 MLOAD SWAP3 DUP4 PUSH1 0x60 DUP2 ADD LT PUSH1 0x1 PUSH1 0x1 PUSH1 0x40 SHL SUB PUSH1 0x60 DUP7 ADD GT OR PUSH2 0x437 JUMPI SWAP1 DUP4 SWAP3 SWAP2 PUSH1 0x60 PUSH2 0x105C SWAP8 SWAP6 ADD PUSH1 0x40 MSTORE PUSH1 0x60 CALLDATASIZE DUP6 CALLDATACOPY CALLDATALOAD DUP4 MSTORE PUSH2 0x144 CALLDATALOAD PUSH1 0x20 DUP5 ADD MSTORE PUSH2 0x164 CALLDATALOAD PUSH1 0x40 DUP5 ADD MSTORE PUSH1 0x40 MLOAD SWAP6 DUP7 SWAP5 PUSH4 0x8A3CFF5 PUSH1 0xE1 SHL DUP7 MSTORE PUSH1 0x4 DUP7 ADD SWAP1 PUSH2 0x382C JUMP JUMPDEST PUSH1 0x0 PUSH1 0x44 DUP6 ADD JUMPDEST PUSH1 0x2 DUP3 LT PUSH2 0x11E0 JUMPI POP POP POP PUSH2 0x107C SWAP1 PUSH1 0xC4 DUP5 ADD SWAP1 PUSH2 0x382C JUMP JUMPDEST PUSH1 0x0 PUSH2 0x104 DUP4 ADD JUMPDEST PUSH1 0x3 DUP3 LT PUSH2 0x11C6 JUMPI POP POP POP PUSH2 0x164 DUP2 PUSH1 0x20 SWAP4 GAS STATICCALL SWAP1 DUP2 ISZERO PUSH2 0x11BA JUMPI PUSH1 0x0 SWAP2 PUSH2 0x117F JUMPI JUMPDEST POP ISZERO PUSH2 0x113D JUMPI POP PUSH2 0x144 CALLDATALOAD PUSH1 0x0 MSTORE PUSH1 0xE DUP2 ADD PUSH1 0x20 MSTORE PUSH1 0x40 PUSH1 0x0 KECCAK256 PUSH1 0xFF NOT SWAP1 PUSH1 0x1 DUP3 DUP3 SLOAD AND OR SWAP1 SSTORE PUSH2 0x164 CALLDATALOAD PUSH1 0x0 MSTORE PUSH1 0xF DUP3 ADD PUSH1 0x20 MSTORE PUSH1 0x1 PUSH1 0x40 PUSH1 0x0 KECCAK256 SWAP2 DUP3 SLOAD AND OR SWAP1 SSTORE PUSH1 0x7 DUP2 ADD PUSH2 0x10F8 DUP2 SLOAD PUSH2 0x35EA JUMP JUMPDEST SWAP1 SSTORE PUSH1 0xC TIMESTAMP SWAP2 ADD SSTORE PUSH1 0x40 MLOAD PUSH2 0x164 CALLDATALOAD DUP2 MSTORE PUSH2 0x144 CALLDATALOAD SWAP1 PUSH32 0x28DE4266D9C8895CACA0BF78416D213805A2FE7314AB3A5DA163DADA0F8D730B PUSH1 0x20 PUSH1 0x4 CALLDATALOAD SWAP3 LOG3 PUSH1 0x0 PUSH1 0x5 SSTORE STOP JUMPDEST PUSH1 0x40 MLOAD PUSH3 0x461BCD PUSH1 0xE5 SHL DUP2 MSTORE PUSH1 0x20 PUSH1 0x4 DUP3 ADD DUP2 SWAP1 MSTORE PUSH1 0x24 DUP3 ADD MSTORE PUSH32 0x566F74696E6753797374656D3A20507275656261205A4B20696E76616C696461 PUSH1 0x44 DUP3 ADD MSTORE REVERT JUMPDEST SWAP1 POP PUSH1 0x20 DUP2 RETURNDATASIZE PUSH1 0x20 GT PUSH2 0x11B2 JUMPI JUMPDEST DUP2 PUSH2 0x119A PUSH1 0x20 SWAP4 DUP4 PUSH2 0x3272 JUMP JUMPDEST DUP2 ADD SUB SLT PUSH2 0x57E JUMPI MLOAD DUP1 ISZERO ISZERO DUP2 SUB PUSH2 0x57E JUMPI DUP4 PUSH2 0x10A7 JUMP JUMPDEST RETURNDATASIZE SWAP2 POP PUSH2 0x118D JUMP JUMPDEST PUSH1 0x40 MLOAD RETURNDATASIZE PUSH1 0x0 DUP3 RETURNDATACOPY RETURNDATASIZE SWAP1 REVERT JUMPDEST DUP3 SWAP4 POP PUSH1 0x20 DUP1 SWAP2 PUSH1 0x1 SWAP4 SWAP5 MLOAD DUP2 MSTORE ADD SWAP4 ADD SWAP2 ADD DUP5 SWAP3 PUSH2 0x1084 JUMP JUMPDEST DUP3 SWAP4 SWAP5 SWAP6 POP PUSH1 0x40 DUP2 PUSH2 0x11F8 PUSH1 0x20 SWAP4 PUSH1 0x1 SWAP6 SWAP7 MLOAD PUSH2 0x382C JUMP JUMPDEST ADD SWAP4 ADD SWAP2 ADD DUP7 SWAP5 SWAP4 SWAP3 PUSH2 0x1063 JUMP JUMPDEST PUSH1 0x40 MLOAD PUSH3 0x461BCD PUSH1 0xE5 SHL DUP2 MSTORE PUSH1 0x20 PUSH1 0x4 DUP3 ADD MSTORE PUSH1 0x3F PUSH1 0x24 DUP3 ADD MSTORE PUSH32 0x566F74696E6753797374656D3A20566F746F20796120656D697469646F20636F PUSH1 0x44 DUP3 ADD MSTORE PUSH32 0x6E2065737465206E756C6966696361646F722028646F626C6520766F746F2900 DUP2 DUP9 ADD MSTORE PUSH1 0x84 SWAP1 REVERT JUMPDEST PUSH1 0x40 MLOAD PUSH3 0x461BCD PUSH1 0xE5 SHL DUP2 MSTORE PUSH1 0x20 PUSH1 0x4 DUP3 ADD MSTORE PUSH1 0x22 PUSH1 0x24 DUP3 ADD MSTORE PUSH32 0x566F74696E6753797374656D3A204D65726B6C6520726F6F7420696E76616C69 PUSH1 0x44 DUP3 ADD MSTORE PUSH2 0x646F PUSH1 0xF0 SHL DUP2 DUP9 ADD MSTORE PUSH1 0x84 SWAP1 REVERT JUMPDEST PUSH1 0x40 MLOAD PUSH3 0x461BCD PUSH1 0xE5 SHL DUP2 MSTORE PUSH1 0x20 PUSH1 0x4 DUP3 ADD MSTORE PUSH1 0x39 PUSH1 0x24 DUP3 ADD MSTORE PUSH32 0x566F74696E6753797374656D3A204D65726B6C6520726F6F74206E6F20657374 PUSH1 0x44 DUP3 ADD MSTORE PUSH32 0x61626C656369646F2070617261206C6120656C656363696F6E00000000000000 DUP2 DUP10 ADD MSTORE PUSH1 0x84 SWAP1 REVERT JUMPDEST PUSH1 0x40 MLOAD PUSH3 0x461BCD PUSH1 0xE5 SHL DUP2 MSTORE PUSH1 0x20 PUSH1 0x4 DUP3 ADD MSTORE PUSH1 0x28 PUSH1 0x24 DUP3 ADD MSTORE PUSH32 0x566F74696E6753797374656D3A205665726966696361646F72206E6F20636F6E PUSH1 0x44 DUP3 ADD MSTORE PUSH8 0x666967757261646F PUSH1 0xC0 SHL DUP2 DUP8 ADD MSTORE PUSH1 0x84 SWAP1 REVERT JUMPDEST PUSH1 0x40 MLOAD PUSH3 0x461BCD PUSH1 0xE5 SHL DUP2 MSTORE PUSH1 0x20 PUSH1 0x4 DUP3 ADD MSTORE PUSH1 0x27 PUSH1 0x24 DUP3 ADD MSTORE PUSH32 0x566F74696E6753797374656D3A206C6120656C656363696F6E2068612066696E PUSH1 0x44 DUP3 ADD MSTORE PUSH7 0x616C697A61646F PUSH1 0xC8 SHL DUP2 DUP7 ADD MSTORE PUSH1 0x84 SWAP1 REVERT JUMPDEST PUSH1 0x40 MLOAD PUSH3 0x461BCD PUSH1 0xE5 SHL DUP2 MSTORE PUSH1 0x20 PUSH1 0x4 DUP3 ADD MSTORE PUSH1 0x2D PUSH1 0x24 DUP3 ADD MSTORE PUSH32 0x566F74696E6753797374656D3A206C6120656C656363696F6E2061756E206E6F PUSH1 0x44 DUP3 ADD MSTORE PUSH13 0x20686120636F6D656E7A61646F PUSH1 0x98 SHL DUP2 DUP7 ADD MSTORE PUSH1 0x84 SWAP1 REVERT JUMPDEST PUSH1 0x40 MLOAD PUSH3 0x461BCD PUSH1 0xE5 SHL DUP2 MSTORE PUSH1 0x20 PUSH1 0x4 DUP3 ADD MSTORE PUSH1 0x2E PUSH1 0x24 DUP3 ADD MSTORE PUSH32 0x566F74696E6753797374656D3A206C6120656C656363696F6E206E6F20656E63 PUSH1 0x44 DUP3 ADD MSTORE PUSH14 0x6F6E747261646120616374697661 PUSH1 0x90 SHL DUP2 DUP7 ADD MSTORE PUSH1 0x84 SWAP1 REVERT JUMPDEST DUP2 CALLDATALOAD DUP2 MSTORE PUSH1 0x20 SWAP2 DUP3 ADD SWAP2 ADD PUSH2 0xF33 JUMP JUMPDEST CALLDATASIZE PUSH1 0x1F DUP4 ADD SLT ISZERO PUSH2 0x57E JUMPI PUSH1 0x40 MLOAD PUSH2 0x14AE DUP2 PUSH2 0x3257 JUMP JUMPDEST DUP1 PUSH1 0x40 DUP5 ADD CALLDATASIZE DUP2 GT PUSH2 0x57E JUMPI DUP5 SWAP2 JUMPDEST DUP2 DUP4 LT PUSH2 0x14D8 JUMPI POP POP POP DUP2 PUSH1 0x20 SWAP2 PUSH1 0x40 SWAP4 MSTORE ADD SWAP2 ADD SWAP1 PUSH2 0xF05 JUMP JUMPDEST DUP3 CALLDATALOAD DUP2 MSTORE PUSH1 0x20 SWAP3 DUP4 ADD SWAP3 ADD PUSH2 0x14BD JUMP JUMPDEST DUP2 CALLDATALOAD DUP2 MSTORE PUSH1 0x20 SWAP2 DUP3 ADD SWAP2 ADD PUSH2 0xED9 JUMP JUMPDEST CALLVALUE PUSH2 0x57E JUMPI PUSH2 0x1506 CALLDATASIZE PUSH2 0x32AA JUMP JUMPDEST PUSH1 0x0 SLOAD PUSH1 0x1 PUSH1 0x1 PUSH1 0xA0 SHL SUB AND CALLER EQ DUP1 ISZERO PUSH2 0x16A0 JUMPI JUMPDEST PUSH2 0x1524 SWAP1 PUSH2 0x34C7 JUMP JUMPDEST PUSH2 0x1531 PUSH1 0x2 SLOAD DUP4 LT PUSH2 0x35F9 JUMP JUMPDEST PUSH2 0x153D PUSH1 0x5 SLOAD ISZERO PUSH2 0x351F JUMP JUMPDEST PUSH1 0x1 DUP1 PUSH1 0x5 SSTORE DUP3 PUSH1 0x0 MSTORE PUSH1 0x20 DUP2 DUP2 MSTORE PUSH2 0x1560 PUSH1 0xFF PUSH1 0x4 PUSH1 0x40 PUSH1 0x0 KECCAK256 ADD SLOAD AND PUSH2 0x3752 JUMP JUMPDEST PUSH2 0x156B DUP4 ISZERO ISZERO PUSH2 0x379E JUMP JUMPDEST DUP4 PUSH1 0x0 MSTORE DUP2 DUP2 MSTORE PUSH1 0x8 PUSH1 0x40 PUSH1 0x0 KECCAK256 ADD DUP4 PUSH1 0x0 MSTORE DUP2 MSTORE PUSH1 0xFF PUSH1 0x40 PUSH1 0x0 KECCAK256 SLOAD AND PUSH2 0x1636 JUMPI PUSH1 0x40 MLOAD DUP2 DUP2 ADD SWAP1 DUP1 DUP3 LT PUSH1 0x1 PUSH1 0x1 PUSH1 0x40 SHL SUB DUP4 GT OR PUSH2 0x437 JUMPI PUSH2 0x15DE SWAP2 PUSH1 0x40 MSTORE DUP4 DUP2 MSTORE DUP6 PUSH1 0x0 MSTORE DUP4 DUP4 MSTORE PUSH1 0x8 PUSH1 0x40 PUSH1 0x0 KECCAK256 ADD DUP6 PUSH1 0x0 MSTORE DUP4 MSTORE PUSH1 0x40 PUSH1 0x0 KECCAK256 SWAP1 MLOAD ISZERO ISZERO PUSH1 0xFF DUP1 NOT DUP4 SLOAD AND SWAP2 ISZERO ISZERO AND OR SWAP1 SSTORE JUMP JUMPDEST DUP4 PUSH1 0x0 MSTORE DUP2 DUP2 MSTORE PUSH1 0x9 PUSH1 0x40 PUSH1 0x0 KECCAK256 ADD PUSH2 0x15F7 DUP2 SLOAD PUSH2 0x35EA JUMP JUMPDEST SWAP1 SSTORE DUP4 PUSH1 0x0 MSTORE MSTORE TIMESTAMP PUSH1 0xC PUSH1 0x40 PUSH1 0x0 KECCAK256 ADD SSTORE CALLER SWAP2 PUSH32 0x82350FFB4CFD6CFFADA59AC532AB28A3129CDE41D8589863D8F6ADFD91A899EA PUSH1 0x0 DUP1 LOG4 PUSH1 0x0 PUSH1 0x5 SSTORE STOP JUMPDEST PUSH1 0x84 SWAP1 PUSH1 0x40 MLOAD SWAP1 PUSH3 0x461BCD PUSH1 0xE5 SHL DUP3 MSTORE PUSH1 0x4 DUP3 ADD MSTORE PUSH1 0x3A PUSH1 0x24 DUP3 ADD MSTORE PUSH32 0x566F74696E6753797374656D3A20766F74616E74652079612072656769737472 PUSH1 0x44 DUP3 ADD MSTORE PUSH32 0x61646F20636F6E2065737465206964656E746966696361646F72000000000000 PUSH1 0x64 DUP3 ADD MSTORE REVERT JUMPDEST POP CALLER PUSH1 0x0 SWAP1 DUP2 MSTORE PUSH1 0x3 PUSH1 0x20 MSTORE PUSH1 0x40 SWAP1 KECCAK256 SLOAD PUSH1 0xFF AND PUSH2 0x151B JUMP JUMPDEST CALLVALUE PUSH2 0x57E JUMPI PUSH2 0x16C7 CALLDATASIZE PUSH2 0x32AA JUMP JUMPDEST SWAP1 PUSH2 0x16D5 PUSH1 0x2 SLOAD DUP3 LT PUSH2 0x35F9 JUMP JUMPDEST PUSH2 0x16E0 DUP3 ISZERO ISZERO PUSH2 0x379E JUMP JUMPDEST PUSH1 0x0 MSTORE PUSH1 0x1 PUSH1 0x20 MSTORE PUSH1 0x8 PUSH1 0x40 PUSH1 0x0 KECCAK256 ADD SWAP1 PUSH1 0x0 MSTORE PUSH1 0x20 MSTORE PUSH1 0x20 PUSH1 0xFF PUSH1 0x40 PUSH1 0x0 KECCAK256 SLOAD AND PUSH1 0x40 MLOAD SWAP1 ISZERO ISZERO DUP2 MSTORE RETURN JUMPDEST CALLVALUE PUSH2 0x57E JUMPI PUSH2 0x171A CALLDATASIZE PUSH2 0x3426 JUMP JUMPDEST SWAP1 SWAP2 PUSH1 0x1 DUP1 PUSH1 0xA0 SHL SUB PUSH1 0x0 SLOAD AND CALLER EQ DUP1 ISZERO PUSH2 0x1A62 JUMPI JUMPDEST PUSH2 0x1739 SWAP1 PUSH2 0x34C7 JUMP JUMPDEST PUSH2 0x1746 PUSH1 0x2 SLOAD DUP3 LT PUSH2 0x35F9 JUMP JUMPDEST DUP1 PUSH1 0x0 MSTORE PUSH1 0x1 SWAP3 PUSH1 0x20 SWAP4 DUP1 DUP6 MSTORE PUSH2 0x1766 PUSH1 0x2 PUSH1 0x40 PUSH1 0x0 KECCAK256 ADD SLOAD TIMESTAMP LT PUSH2 0x3651 JUMP JUMPDEST DUP3 PUSH1 0x0 MSTORE DUP1 DUP6 MSTORE PUSH1 0x40 PUSH1 0x0 KECCAK256 SWAP2 DUP1 MLOAD SWAP1 DUP2 PUSH2 0x194D JUMPI JUMPDEST POP POP DUP4 MLOAD SWAP4 DUP5 PUSH2 0x17F7 JUMPI JUMPDEST POP PUSH32 0x87649461DACF4D8645F796B6FE7BFBA3007117716D377D4579E4057CDC4B6E9D SWAP3 SWAP4 POP TIMESTAMP PUSH1 0xC DUP4 ADD SSTORE PUSH2 0x17E4 PUSH1 0x2 DUP4 ADD SLOAD SWAP6 PUSH1 0x3 DUP5 ADD SLOAD SWAP3 PUSH1 0x40 MLOAD SWAP5 PUSH1 0x80 DUP7 MSTORE PUSH2 0x17D6 PUSH1 0x80 DUP8 ADD DUP3 PUSH2 0x333A JUMP JUMPDEST SWAP3 DUP7 DUP5 SUB SWAP1 DUP8 ADD MSTORE ADD PUSH2 0x333A JUMP JUMPDEST SWAP5 PUSH1 0x40 DUP4 ADD MSTORE PUSH1 0x60 DUP3 ADD MSTORE DUP1 CALLER SWAP5 SUB SWAP1 LOG3 STOP JUMPDEST DUP2 DUP4 ADD SWAP1 PUSH1 0x1 PUSH1 0x1 PUSH1 0x40 SHL SUB DUP7 GT PUSH2 0x437 JUMPI PUSH2 0x1813 DUP3 SLOAD PUSH2 0x3300 JUMP JUMPDEST PUSH1 0x1F DUP2 GT PUSH2 0x1904 JUMPI JUMPDEST POP DUP7 SWAP1 PUSH1 0x1F DUP8 GT PUSH1 0x1 EQ PUSH2 0x187E JUMPI SWAP6 DUP1 SWAP2 PUSH32 0x87649461DACF4D8645F796B6FE7BFBA3007117716D377D4579E4057CDC4B6E9D SWAP7 SWAP8 PUSH1 0x0 SWAP3 PUSH2 0x1873 JUMPI JUMPDEST POP POP PUSH1 0x0 NOT PUSH1 0x3 DUP4 SWAP1 SHL SHR NOT AND SWAP1 DUP4 SHL OR SWAP1 SSTORE JUMPDEST DUP4 SWAP3 PUSH2 0x1787 JUMP JUMPDEST ADD MLOAD SWAP1 POP DUP9 DUP1 PUSH2 0x1858 JUMP JUMPDEST SWAP1 PUSH1 0x1F NOT DUP8 AND SWAP2 DUP4 PUSH1 0x0 MSTORE DUP9 PUSH1 0x0 KECCAK256 SWAP3 PUSH1 0x0 JUMPDEST DUP11 DUP3 DUP3 LT PUSH2 0x18F0 JUMPI POP POP SWAP2 DUP6 SWAP4 SWAP2 DUP10 PUSH32 0x87649461DACF4D8645F796B6FE7BFBA3007117716D377D4579E4057CDC4B6E9D SWAP10 SWAP11 SWAP5 LT PUSH2 0x18D7 JUMPI JUMPDEST POP POP POP DUP2 SHL ADD SWAP1 SSTORE PUSH2 0x186C JUMP JUMPDEST ADD MLOAD PUSH1 0x0 NOT PUSH1 0xF8 DUP5 PUSH1 0x3 SHL AND SHR NOT AND SWAP1 SSTORE DUP9 DUP1 DUP1 PUSH2 0x18CA JUMP JUMPDEST DUP4 DUP6 ADD MLOAD DUP7 SSTORE SWAP5 DUP8 ADD SWAP5 SWAP4 DUP5 ADD SWAP4 ADD PUSH2 0x1891 JUMP JUMPDEST DUP3 PUSH1 0x0 MSTORE DUP8 PUSH1 0x0 KECCAK256 PUSH1 0x1F DUP9 ADD PUSH1 0x5 SHR DUP2 ADD SWAP2 DUP10 DUP10 LT PUSH2 0x1943 JUMPI JUMPDEST PUSH1 0x1F ADD PUSH1 0x5 SHR ADD SWAP1 DUP5 SWAP1 JUMPDEST DUP3 DUP2 LT PUSH2 0x1937 JUMPI POP POP PUSH2 0x181C JUMP JUMPDEST PUSH1 0x0 DUP2 SSTORE ADD DUP5 SWAP1 PUSH2 0x1929 JUMP JUMPDEST SWAP1 SWAP2 POP DUP2 SWAP1 PUSH2 0x191E JUMP JUMPDEST PUSH1 0x1 PUSH1 0x1 PUSH1 0x40 SHL SUB DUP3 GT PUSH2 0x437 JUMPI DUP2 SWAP1 PUSH2 0x1967 DUP6 SLOAD PUSH2 0x3300 JUMP JUMPDEST PUSH1 0x1F DUP2 GT PUSH2 0x1A0F JUMPI JUMPDEST POP DUP8 SWAP1 PUSH1 0x1F DUP4 GT PUSH1 0x1 EQ PUSH2 0x19AC JUMPI PUSH1 0x0 SWAP3 PUSH2 0x19A1 JUMPI JUMPDEST POP POP PUSH1 0x0 NOT PUSH1 0x3 DUP4 SWAP1 SHL SHR NOT AND SWAP1 DUP3 SHL OR DUP3 SSTORE JUMPDEST DUP6 DUP1 PUSH2 0x177C JUMP JUMPDEST ADD MLOAD SWAP1 POP DUP8 DUP1 PUSH2 0x1986 JUMP JUMPDEST SWAP1 DUP5 SWAP4 POP PUSH1 0x1F NOT DUP4 AND SWAP2 DUP7 PUSH1 0x0 MSTORE DUP10 PUSH1 0x0 KECCAK256 SWAP3 PUSH1 0x0 JUMPDEST DUP12 DUP3 DUP3 LT PUSH2 0x19F9 JUMPI POP POP DUP5 GT PUSH2 0x19E0 JUMPI JUMPDEST POP POP POP DUP2 SHL ADD DUP3 SSTORE PUSH2 0x199A JUMP JUMPDEST ADD MLOAD PUSH1 0x0 NOT PUSH1 0xF8 DUP5 PUSH1 0x3 SHL AND SHR NOT AND SWAP1 SSTORE DUP8 DUP1 DUP1 PUSH2 0x19D3 JUMP JUMPDEST DUP4 DUP6 ADD MLOAD DUP7 SSTORE DUP9 SWAP8 SWAP1 SWAP6 ADD SWAP5 SWAP4 DUP5 ADD SWAP4 ADD PUSH2 0x19C2 JUMP JUMPDEST SWAP1 SWAP2 POP DUP5 PUSH1 0x0 MSTORE DUP8 PUSH1 0x0 KECCAK256 PUSH1 0x1F DUP5 ADD PUSH1 0x5 SHR DUP2 ADD SWAP2 DUP10 DUP6 LT PUSH2 0x1A58 JUMPI JUMPDEST DUP5 SWAP4 SWAP3 SWAP2 PUSH1 0x1F DUP8 SWAP3 ADD PUSH1 0x5 SHR ADD SWAP2 JUMPDEST DUP3 DUP2 LT PUSH2 0x1A49 JUMPI POP POP PUSH2 0x1970 JUMP JUMPDEST PUSH1 0x0 DUP2 SSTORE DUP6 SWAP5 POP DUP7 SWAP2 ADD PUSH2 0x1A3B JUMP JUMPDEST SWAP1 SWAP2 POP DUP2 SWAP1 PUSH2 0x1A2C JUMP JUMPDEST POP CALLER PUSH1 0x0 SWAP1 DUP2 MSTORE PUSH1 0x3 PUSH1 0x20 MSTORE PUSH1 0x40 SWAP1 KECCAK256 SLOAD PUSH1 0xFF AND PUSH2 0x1730 JUMP JUMPDEST CALLVALUE PUSH2 0x57E JUMPI PUSH1 0x20 CALLDATASIZE PUSH1 0x3 NOT ADD SLT PUSH2 0x57E JUMPI PUSH1 0x4 CALLDATALOAD PUSH2 0x1A9C PUSH1 0x2 SLOAD DUP3 LT PUSH2 0x35F9 JUMP JUMPDEST PUSH1 0x0 MSTORE PUSH1 0x1 PUSH1 0x20 MSTORE PUSH1 0x20 PUSH1 0x7 PUSH1 0x40 PUSH1 0x0 KECCAK256 ADD SLOAD PUSH1 0x40 MLOAD SWAP1 DUP2 MSTORE RETURN JUMPDEST CALLVALUE PUSH2 0x57E JUMPI PUSH1 0x0 CALLDATASIZE PUSH1 0x3 NOT ADD SLT PUSH2 0x57E JUMPI PUSH1 0x20 PUSH1 0x40 MLOAD PUSH1 0x64 DUP2 MSTORE RETURN JUMPDEST CALLVALUE PUSH2 0x57E JUMPI PUSH1 0x20 CALLDATASIZE PUSH1 0x3 NOT ADD SLT PUSH2 0x57E JUMPI PUSH1 0x4 CALLDATALOAD PUSH1 0x1 PUSH1 0x1 PUSH1 0xA0 SHL SUB DUP2 AND SWAP1 DUP2 SWAP1 SUB PUSH2 0x57E JUMPI PUSH2 0x1B01 PUSH2 0x346F JUMP JUMPDEST DUP1 PUSH1 0x0 MSTORE PUSH1 0x3 PUSH1 0x20 MSTORE PUSH1 0xFF PUSH1 0x40 PUSH1 0x0 KECCAK256 SLOAD AND ISZERO PUSH2 0x1B57 JUMPI DUP1 PUSH1 0x0 MSTORE PUSH1 0x3 PUSH1 0x20 MSTORE PUSH1 0x40 PUSH1 0x0 KECCAK256 PUSH1 0xFF NOT DUP2 SLOAD AND SWAP1 SSTORE CALLER SWAP1 PUSH32 0x17D7F044D47E4FAE1701F86266D0A674DB3F792671BD1B974ACE77A09AF1C827 PUSH1 0x0 DUP1 LOG3 STOP JUMPDEST PUSH1 0x40 MLOAD PUSH3 0x461BCD PUSH1 0xE5 SHL DUP2 MSTORE PUSH1 0x20 PUSH1 0x4 DUP3 ADD MSTORE PUSH1 0x1C PUSH1 0x24 DUP3 ADD MSTORE PUSH32 0x566F74696E6753797374656D3A206E6F206573206F70657261646F7200000000 PUSH1 0x44 DUP3 ADD MSTORE PUSH1 0x64 SWAP1 REVERT JUMPDEST CALLVALUE PUSH2 0x57E JUMPI PUSH1 0x20 DUP1 PUSH1 0x3 NOT CALLDATASIZE ADD SLT PUSH2 0x57E JUMPI PUSH1 0x4 CALLDATALOAD PUSH1 0x1 DUP1 PUSH1 0xA0 SHL SUB PUSH1 0x0 SLOAD AND CALLER EQ DUP1 ISZERO PUSH2 0x1CA5 JUMPI JUMPDEST PUSH2 0x1BCE SWAP1 PUSH2 0x34C7 JUMP JUMPDEST PUSH2 0x1BDB PUSH1 0x2 SLOAD DUP3 LT PUSH2 0x35F9 JUMP JUMPDEST DUP1 PUSH1 0x0 MSTORE PUSH1 0x1 DUP3 MSTORE PUSH1 0xFF PUSH1 0x4 PUSH1 0x40 PUSH1 0x0 KECCAK256 ADD SLOAD AND ISZERO PUSH2 0x1C4D JUMPI DUP1 PUSH1 0x0 MSTORE PUSH1 0x1 DUP3 MSTORE PUSH1 0x4 PUSH1 0x40 PUSH1 0x0 KECCAK256 ADD PUSH1 0xFF NOT DUP2 SLOAD AND SWAP1 SSTORE TIMESTAMP PUSH1 0x3 PUSH1 0x40 PUSH1 0x0 KECCAK256 ADD SSTORE TIMESTAMP PUSH1 0xC PUSH1 0x40 PUSH1 0x0 KECCAK256 ADD SSTORE PUSH32 0xC320AD245CBB75AF6BC33306823DF83424412EC171E460708CB5D30E80D40E45 PUSH1 0x40 MLOAD SWAP3 TIMESTAMP DUP5 MSTORE CALLER SWAP4 LOG3 STOP JUMPDEST PUSH1 0x40 MLOAD PUSH3 0x461BCD PUSH1 0xE5 SHL DUP2 MSTORE PUSH1 0x4 DUP2 ADD DUP4 SWAP1 MSTORE PUSH1 0x2A PUSH1 0x24 DUP3 ADD MSTORE PUSH32 0x566F74696E6753797374656D3A206C6120656C656363696F6E20796120657374 PUSH1 0x44 DUP3 ADD MSTORE PUSH10 0x6120696E616374697661 PUSH1 0xB0 SHL PUSH1 0x64 DUP3 ADD MSTORE PUSH1 0x84 SWAP1 REVERT JUMPDEST POP CALLER PUSH1 0x0 SWAP1 DUP2 MSTORE PUSH1 0x3 DUP4 MSTORE PUSH1 0x40 SWAP1 KECCAK256 SLOAD PUSH1 0xFF AND PUSH2 0x1BC5 JUMP JUMPDEST CALLVALUE PUSH2 0x57E JUMPI PUSH1 0x0 CALLDATASIZE PUSH1 0x3 NOT ADD SLT PUSH2 0x57E JUMPI PUSH1 0x20 PUSH1 0x2 SLOAD PUSH1 0x40 MLOAD SWAP1 DUP2 MSTORE RETURN JUMPDEST CALLVALUE PUSH2 0x57E JUMPI PUSH1 0x20 DUP1 PUSH1 0x3 NOT CALLDATASIZE ADD SLT PUSH2 0x57E JUMPI PUSH1 0x4 CALLDATALOAD PUSH1 0x1 PUSH1 0x1 PUSH1 0xA0 SHL SUB DUP2 AND SWAP2 SWAP1 DUP3 SWAP1 SUB PUSH2 0x57E JUMPI PUSH2 0x1D0B PUSH2 0x346F JUMP JUMPDEST DUP2 ISZERO PUSH2 0x1DAB JUMPI DUP2 PUSH1 0x0 MSTORE PUSH1 0x3 DUP2 MSTORE PUSH1 0xFF PUSH1 0x40 PUSH1 0x0 KECCAK256 SLOAD AND PUSH2 0x1D67 JUMPI PUSH1 0x3 SWAP1 DUP3 PUSH1 0x0 MSTORE MSTORE PUSH1 0x40 PUSH1 0x0 KECCAK256 PUSH1 0x1 PUSH1 0xFF NOT DUP3 SLOAD AND OR SWAP1 SSTORE CALLER SWAP1 PUSH32 0x780DC183FEB0E4F9714CD802B3C0A21894B7CCB4172C992569D2ACB5D45F91C PUSH1 0x0 DUP1 LOG3 STOP JUMPDEST PUSH1 0x64 SWAP1 PUSH1 0x40 MLOAD SWAP1 PUSH3 0x461BCD PUSH1 0xE5 SHL DUP3 MSTORE PUSH1 0x4 DUP3 ADD MSTORE PUSH1 0x1C PUSH1 0x24 DUP3 ADD MSTORE PUSH32 0x566F74696E6753797374656D3A207961206573206F70657261646F7200000000 PUSH1 0x44 DUP3 ADD MSTORE REVERT JUMPDEST PUSH1 0x64 SWAP1 PUSH1 0x40 MLOAD SWAP1 PUSH3 0x461BCD PUSH1 0xE5 SHL DUP3 MSTORE DUP1 PUSH1 0x4 DUP4 ADD MSTORE PUSH1 0x24 DUP3 ADD MSTORE PUSH32 0x566F74696E6753797374656D3A20646972656363696F6E20696E76616C696461 PUSH1 0x44 DUP3 ADD MSTORE REVERT JUMPDEST CALLVALUE PUSH2 0x57E JUMPI PUSH1 0x0 CALLDATASIZE PUSH1 0x3 NOT ADD SLT PUSH2 0x57E JUMPI PUSH1 0x0 SLOAD PUSH1 0x40 MLOAD PUSH1 0x1 PUSH1 0x1 PUSH1 0xA0 SHL SUB SWAP1 SWAP2 AND DUP2 MSTORE PUSH1 0x20 SWAP1 RETURN JUMPDEST CALLVALUE PUSH2 0x57E JUMPI PUSH1 0x80 CALLDATASIZE PUSH1 0x3 NOT ADD SLT PUSH2 0x57E JUMPI PUSH1 0x4 CALLDATALOAD PUSH1 0x1 PUSH1 0x1 PUSH1 0x40 SHL SUB DUP2 GT PUSH2 0x57E JUMPI PUSH2 0x1E47 SWAP1 CALLDATASIZE SWAP1 PUSH1 0x4 ADD PUSH2 0x33D0 JUMP JUMPDEST PUSH1 0x24 CALLDATALOAD PUSH1 0x1 PUSH1 0x1 PUSH1 0x40 SHL SUB DUP2 GT PUSH2 0x57E JUMPI PUSH2 0x1E66 SWAP1 CALLDATASIZE SWAP1 PUSH1 0x4 ADD PUSH2 0x33D0 JUMP JUMPDEST SWAP1 PUSH1 0x1 DUP1 PUSH1 0xA0 SHL SUB PUSH1 0x0 SLOAD AND CALLER EQ DUP1 ISZERO PUSH2 0x23AC JUMPI JUMPDEST PUSH2 0x1E84 SWAP1 PUSH2 0x34C7 JUMP JUMPDEST PUSH2 0x1E90 PUSH1 0x5 SLOAD ISZERO PUSH2 0x351F JUMP JUMPDEST PUSH1 0x1 PUSH1 0x5 SSTORE DUP1 MLOAD ISZERO PUSH2 0x2352 JUMPI PUSH2 0x1EA8 DUP3 MLOAD ISZERO ISZERO PUSH2 0x3577 JUMP JUMPDEST TIMESTAMP PUSH1 0x44 CALLDATALOAD GT ISZERO PUSH2 0x22EF JUMPI PUSH1 0x44 CALLDATALOAD PUSH1 0x64 CALLDATALOAD GT ISZERO PUSH2 0x2278 JUMPI PUSH2 0xE10 PUSH2 0x1ECF PUSH1 0x44 CALLDATALOAD PUSH1 0x64 CALLDATALOAD PUSH2 0x35DD JUMP JUMPDEST LT PUSH2 0x2234 JUMPI PUSH3 0x278D00 PUSH2 0x1EE6 PUSH1 0x44 CALLDATALOAD PUSH1 0x64 CALLDATALOAD PUSH2 0x35DD JUMP JUMPDEST GT PUSH2 0x21F0 JUMPI PUSH1 0x2 SLOAD SWAP1 DUP2 PUSH1 0x0 MSTORE PUSH1 0x1 PUSH1 0x20 MSTORE PUSH1 0x40 PUSH1 0x0 KECCAK256 DUP2 MLOAD PUSH1 0x1 PUSH1 0x1 PUSH1 0x40 SHL SUB DUP2 GT PUSH2 0x437 JUMPI PUSH2 0x1F17 DUP3 SLOAD PUSH2 0x3300 JUMP JUMPDEST PUSH1 0x1F DUP2 GT PUSH2 0x21AC JUMPI JUMPDEST POP DUP1 PUSH1 0x20 PUSH1 0x1F DUP3 GT PUSH1 0x1 EQ PUSH2 0x2148 JUMPI PUSH1 0x0 SWAP2 PUSH2 0x213D JUMPI JUMPDEST POP DUP2 PUSH1 0x1 SHL SWAP2 PUSH1 0x0 NOT SWAP1 PUSH1 0x3 SHL SHR NOT AND OR DUP2 SSTORE JUMPDEST DUP4 MLOAD PUSH1 0x1 PUSH1 0x1 PUSH1 0x40 SHL SUB DUP2 GT PUSH2 0x437 JUMPI PUSH2 0x1F68 PUSH1 0x1 DUP4 ADD SLOAD PUSH2 0x3300 JUMP JUMPDEST SWAP5 PUSH1 0x1F DUP7 GT PUSH2 0x20F6 JUMPI JUMPDEST PUSH1 0x20 SWAP6 POP DUP6 SWAP1 PUSH1 0x1F DUP4 GT PUSH1 0x1 EQ PUSH2 0x2084 JUMPI SWAP2 DUP1 PUSH1 0x0 SWAP5 SWAP3 PUSH1 0xD SWAP5 DUP7 SWAP3 PUSH2 0x2079 JUMPI JUMPDEST POP POP DUP2 PUSH1 0x1 SHL SWAP2 DUP6 NOT SWAP1 PUSH1 0x3 SHL SHR NOT AND OR PUSH1 0x1 DUP3 ADD SSTORE JUMPDEST PUSH1 0x44 CALLDATALOAD PUSH1 0x2 DUP3 ADD SSTORE PUSH1 0x64 CALLDATALOAD PUSH1 0x3 DUP3 ADD SSTORE PUSH1 0x4 DUP2 ADD PUSH1 0x1 PUSH1 0xFF NOT DUP3 SLOAD AND OR SWAP1 SSTORE DUP3 PUSH1 0x6 DUP3 ADD SSTORE DUP3 PUSH1 0x7 DUP3 ADD SSTORE DUP3 PUSH1 0x9 DUP3 ADD SSTORE PUSH1 0xA DUP2 ADD DUP1 SLOAD PUSH2 0x100 PUSH1 0x1 PUSH1 0xA8 SHL SUB CALLER PUSH1 0x8 SHL AND SWAP1 PUSH11 0xFFFFFFFFFFFFFFFFFFFFFF PUSH1 0xA8 SHL AND OR SWAP1 SSTORE TIMESTAMP PUSH1 0xB DUP3 ADD SSTORE TIMESTAMP PUSH1 0xC DUP3 ADD SSTORE ADD SSTORE PUSH2 0x201C PUSH1 0x2 SLOAD PUSH2 0x35EA JUMP JUMPDEST PUSH1 0x2 SSTORE DUP2 PUSH32 0x13AC008E0CDCE4387B5F85E53DD6FD03C11F7170F920652AF23FEA8321705596 PUSH2 0x2056 PUSH1 0x40 MLOAD SWAP4 PUSH1 0x60 DUP6 MSTORE PUSH1 0x60 DUP6 ADD SWAP1 PUSH2 0x32C0 JUMP JUMPDEST SWAP3 PUSH1 0x44 CALLDATALOAD DUP7 DUP3 ADD MSTORE PUSH1 0x64 CALLDATALOAD PUSH1 0x40 DUP3 ADD MSTORE DUP1 CALLER SWAP5 SUB SWAP1 LOG3 PUSH1 0x0 PUSH1 0x5 SSTORE PUSH1 0x40 MLOAD SWAP1 DUP2 MSTORE RETURN JUMPDEST ADD MLOAD SWAP1 POP DUP9 DUP1 PUSH2 0x1F93 JUMP JUMPDEST SWAP1 PUSH1 0x1 DUP5 ADD PUSH1 0x0 MSTORE DUP7 PUSH1 0x0 KECCAK256 SWAP2 PUSH1 0x0 JUMPDEST PUSH1 0x1F NOT DUP6 AND DUP2 LT PUSH2 0x20DF JUMPI POP SWAP3 PUSH1 0x0 SWAP5 SWAP3 PUSH1 0x1 SWAP3 PUSH1 0xD SWAP6 DUP4 PUSH1 0x1F NOT DUP2 AND LT PUSH2 0x20C7 JUMPI JUMPDEST POP POP POP DUP2 SHL ADD PUSH1 0x1 DUP3 ADD SSTORE PUSH2 0x1FAA JUMP JUMPDEST ADD MLOAD DUP7 NOT PUSH1 0xF8 DUP5 PUSH1 0x3 SHL AND SHR NOT AND SWAP1 SSTORE DUP9 DUP1 DUP1 PUSH2 0x20B7 JUMP JUMPDEST SWAP2 SWAP3 DUP9 PUSH1 0x1 DUP2 SWAP3 DUP7 DUP6 ADD MLOAD DUP2 SSTORE ADD SWAP5 ADD SWAP3 ADD PUSH2 0x2094 JUMP JUMPDEST PUSH1 0x1 DUP4 ADD PUSH1 0x0 MSTORE PUSH1 0x20 PUSH1 0x0 KECCAK256 PUSH1 0x1F DUP4 ADD PUSH1 0x5 SHR DUP2 ADD PUSH1 0x20 DUP5 LT PUSH2 0x2136 JUMPI JUMPDEST PUSH1 0x1F DUP9 ADD PUSH1 0x5 SHR DUP3 ADD DUP2 LT PUSH2 0x212A JUMPI POP POP PUSH2 0x1F72 JUMP JUMPDEST PUSH1 0x0 DUP2 SSTORE PUSH1 0x1 ADD PUSH2 0x2114 JUMP JUMPDEST POP DUP1 PUSH2 0x2114 JUMP JUMPDEST SWAP1 POP DUP4 ADD MLOAD DUP7 PUSH2 0x1F37 JUMP JUMPDEST PUSH1 0x0 DUP5 DUP2 MSTORE PUSH1 0x20 DUP2 KECCAK256 SWAP3 POP PUSH1 0x1F NOT DUP5 AND SWAP1 JUMPDEST DUP2 DUP2 LT PUSH2 0x2194 JUMPI POP SWAP1 DUP4 PUSH1 0x1 SWAP5 SWAP4 SWAP3 LT PUSH2 0x217B JUMPI JUMPDEST POP POP DUP2 SHL ADD DUP2 SSTORE PUSH2 0x1F4B JUMP JUMPDEST DUP6 ADD MLOAD PUSH1 0x0 NOT PUSH1 0xF8 DUP5 PUSH1 0x3 SHL AND SHR NOT AND SWAP1 SSTORE DUP7 DUP1 PUSH2 0x216F JUMP JUMPDEST SWAP2 SWAP3 PUSH1 0x20 PUSH1 0x1 DUP2 SWAP3 DUP7 DUP11 ADD MLOAD DUP2 SSTORE ADD SWAP5 ADD SWAP3 ADD PUSH2 0x215A JUMP JUMPDEST DUP3 PUSH1 0x0 MSTORE PUSH1 0x20 PUSH1 0x0 KECCAK256 PUSH1 0x1F DUP4 ADD PUSH1 0x5 SHR DUP2 ADD PUSH1 0x20 DUP5 LT PUSH2 0x21E9 JUMPI JUMPDEST PUSH1 0x1F DUP4 ADD PUSH1 0x5 SHR DUP3 ADD DUP2 LT PUSH2 0x21DD JUMPI POP POP PUSH2 0x1F20 JUMP JUMPDEST PUSH1 0x0 DUP2 SSTORE PUSH1 0x1 ADD PUSH2 0x21C7 JUMP JUMPDEST POP DUP1 PUSH2 0x21C7 JUMP JUMPDEST PUSH1 0x64 PUSH1 0x40 MLOAD PUSH3 0x461BCD PUSH1 0xE5 SHL DUP2 MSTORE PUSH1 0x20 PUSH1 0x4 DUP3 ADD MSTORE PUSH1 0x20 PUSH1 0x24 DUP3 ADD MSTORE PUSH32 0x566F74696E6753797374656D3A206475726163696F6E206D7579206C61726761 PUSH1 0x44 DUP3 ADD MSTORE REVERT JUMPDEST PUSH1 0x64 PUSH1 0x40 MLOAD PUSH3 0x461BCD PUSH1 0xE5 SHL DUP2 MSTORE PUSH1 0x20 PUSH1 0x4 DUP3 ADD MSTORE PUSH1 0x20 PUSH1 0x24 DUP3 ADD MSTORE PUSH32 0x566F74696E6753797374656D3A206475726163696F6E206D757920636F727461 PUSH1 0x44 DUP3 ADD MSTORE REVERT JUMPDEST PUSH1 0x40 MLOAD PUSH3 0x461BCD PUSH1 0xE5 SHL DUP2 MSTORE PUSH1 0x20 PUSH1 0x4 DUP3 ADD MSTORE PUSH1 0x43 PUSH1 0x24 DUP3 ADD MSTORE PUSH32 0x566F74696E6753797374656D3A206C6120686F72612064652066696E20646562 PUSH1 0x44 DUP3 ADD MSTORE PUSH32 0x652073657220706F73746572696F722061206C6120686F726120646520696E69 PUSH1 0x64 DUP3 ADD MSTORE PUSH3 0x63696F PUSH1 0xE8 SHL PUSH1 0x84 DUP3 ADD MSTORE PUSH1 0xA4 SWAP1 REVERT JUMPDEST PUSH1 0x40 MLOAD PUSH3 0x461BCD PUSH1 0xE5 SHL DUP2 MSTORE PUSH1 0x20 PUSH1 0x4 DUP3 ADD MSTORE PUSH1 0x35 PUSH1 0x24 DUP3 ADD MSTORE PUSH32 0x566F74696E6753797374656D3A206C6120686F726120646520696E6963696F20 PUSH1 0x44 DUP3 ADD MSTORE PUSH21 0x646562652073657220656E20656C2066757475726F PUSH1 0x58 SHL PUSH1 0x64 DUP3 ADD MSTORE PUSH1 0x84 SWAP1 REVERT JUMPDEST PUSH1 0x40 MLOAD PUSH3 0x461BCD PUSH1 0xE5 SHL DUP2 MSTORE PUSH1 0x20 PUSH1 0x4 DUP3 ADD MSTORE PUSH1 0x2C PUSH1 0x24 DUP3 ADD MSTORE PUSH32 0x566F74696E6753797374656D3A20656C20746974756C6F206E6F207075656465 PUSH1 0x44 DUP3 ADD MSTORE PUSH12 0x20657374617220766163696F PUSH1 0xA0 SHL PUSH1 0x64 DUP3 ADD MSTORE PUSH1 0x84 SWAP1 REVERT JUMPDEST POP CALLER PUSH1 0x0 SWAP1 DUP2 MSTORE PUSH1 0x3 PUSH1 0x20 MSTORE PUSH1 0x40 SWAP1 KECCAK256 SLOAD PUSH1 0xFF AND PUSH2 0x1E7B JUMP JUMPDEST CALLVALUE PUSH2 0x57E JUMPI PUSH2 0x23D3 CALLDATASIZE PUSH2 0x32AA JUMP JUMPDEST SWAP1 PUSH2 0x23E1 PUSH1 0x2 SLOAD DUP3 LT PUSH2 0x35F9 JUMP JUMPDEST DUP2 ISZERO PUSH2 0x2413 JUMPI PUSH1 0x0 MSTORE PUSH1 0x1 PUSH1 0x20 MSTORE PUSH1 0xE PUSH1 0x40 PUSH1 0x0 KECCAK256 ADD SWAP1 PUSH1 0x0 MSTORE PUSH1 0x20 MSTORE PUSH1 0x20 PUSH1 0xFF PUSH1 0x40 PUSH1 0x0 KECCAK256 SLOAD AND PUSH1 0x40 MLOAD SWAP1 ISZERO ISZERO DUP2 MSTORE RETURN JUMPDEST PUSH1 0x40 MLOAD PUSH3 0x461BCD PUSH1 0xE5 SHL DUP2 MSTORE PUSH1 0x20 PUSH1 0x4 DUP3 ADD MSTORE PUSH1 0x2D PUSH1 0x24 DUP3 ADD MSTORE PUSH32 0x566F74696E6753797374656D3A206E756C6C696669657248617368206E6F2070 PUSH1 0x44 DUP3 ADD MSTORE PUSH13 0x7565646520736572206365726F PUSH1 0x98 SHL PUSH1 0x64 DUP3 ADD MSTORE PUSH1 0x84 SWAP1 REVERT JUMPDEST CALLVALUE PUSH2 0x57E JUMPI PUSH1 0x0 CALLDATASIZE PUSH1 0x3 NOT ADD SLT PUSH2 0x57E JUMPI PUSH2 0x2487 PUSH2 0x346F JUMP JUMPDEST PUSH1 0x0 DUP1 SLOAD PUSH1 0x1 PUSH1 0x1 PUSH1 0xA0 SHL SUB NOT DUP2 AND DUP3 SSTORE PUSH1 0x1 PUSH1 0x1 PUSH1 0xA0 SHL SUB AND PUSH32 0x8BE0079C531659141344CD1FD0A4F28419497F9722A3DAAFE3B4186F6B6457E0 DUP3 DUP1 LOG3 STOP JUMPDEST CALLVALUE PUSH2 0x57E JUMPI PUSH1 0x20 CALLDATASIZE PUSH1 0x3 NOT ADD SLT PUSH2 0x57E JUMPI PUSH1 0x4 CALLDATALOAD PUSH1 0x0 MSTORE PUSH1 0x1 PUSH1 0x20 MSTORE PUSH2 0x256A PUSH1 0x40 PUSH1 0x0 KECCAK256 PUSH1 0x40 MLOAD SWAP1 PUSH2 0x2504 DUP3 PUSH2 0x24FD DUP2 DUP5 PUSH2 0x333A JUMP JUMPDEST SUB DUP4 PUSH2 0x3272 JUMP JUMPDEST PUSH1 0x40 MLOAD PUSH2 0x2518 DUP2 PUSH2 0xD89 DUP2 PUSH1 0x1 DUP7 ADD PUSH2 0x333A JUMP JUMPDEST PUSH1 0x2 DUP3 ADD SLOAD SWAP2 PUSH1 0x3 DUP2 ADD SLOAD PUSH1 0xFF PUSH1 0x4 DUP4 ADD SLOAD AND PUSH1 0x6 DUP4 ADD SLOAD PUSH1 0x7 DUP5 ADD SLOAD PUSH1 0x9 DUP6 ADD SLOAD SWAP2 PUSH1 0xA DUP7 ADD SLOAD SWAP4 PUSH1 0xB DUP8 ADD SLOAD SWAP6 PUSH2 0x2578 PUSH1 0xD PUSH1 0xC DUP11 ADD SLOAD SWAP10 ADD SLOAD SWAP10 PUSH1 0x40 MLOAD SWAP14 DUP15 SWAP14 DUP15 PUSH2 0x1A0 SWAP1 DUP2 DUP2 MSTORE ADD SWAP1 PUSH2 0x32C0 JUMP JUMPDEST DUP14 DUP2 SUB PUSH1 0x20 DUP16 ADD MSTORE SWAP1 PUSH2 0x32C0 JUMP JUMPDEST PUSH1 0x40 DUP13 ADD SWAP11 SWAP1 SWAP11 MSTORE PUSH1 0x60 DUP12 ADD MSTORE ISZERO ISZERO PUSH1 0x80 DUP11 ADD MSTORE PUSH1 0xA0 DUP10 ADD MSTORE PUSH1 0xC0 DUP9 ADD MSTORE PUSH1 0xE0 DUP8 ADD MSTORE PUSH1 0xFF DUP2 AND ISZERO ISZERO PUSH2 0x100 DUP8 ADD MSTORE PUSH1 0x8 SHR PUSH1 0x1 PUSH1 0x1 PUSH1 0xA0 SHL SUB AND PUSH2 0x120 DUP7 ADD MSTORE PUSH2 0x140 DUP6 ADD MSTORE PUSH2 0x160 DUP5 ADD MSTORE PUSH2 0x180 DUP4 ADD MSTORE SUB SWAP1 RETURN JUMPDEST CALLVALUE PUSH2 0x57E JUMPI PUSH1 0x0 CALLDATASIZE PUSH1 0x3 NOT ADD SLT PUSH2 0x57E JUMPI PUSH1 0x20 PUSH1 0x40 MLOAD PUSH3 0x278D00 DUP2 MSTORE RETURN JUMPDEST CALLVALUE PUSH2 0x57E JUMPI PUSH1 0x20 CALLDATASIZE PUSH1 0x3 NOT ADD SLT PUSH2 0x57E JUMPI PUSH1 0x4 CALLDATALOAD PUSH1 0x1 PUSH1 0x1 PUSH1 0xA0 SHL SUB DUP2 AND SWAP1 DUP2 SWAP1 SUB PUSH2 0x57E JUMPI PUSH2 0x261B PUSH2 0x346F JUMP JUMPDEST DUP1 ISZERO PUSH2 0x2667 JUMPI PUSH1 0x20 DUP2 PUSH32 0x480B37E3D134E44CB444C9703493C7DB564C707CB8A18CECEA165F340431DA1F SWAP3 PUSH12 0xFFFFFFFFFFFFFFFFFFFFFFFF PUSH1 0xA0 SHL PUSH1 0x4 SLOAD AND OR PUSH1 0x4 SSTORE PUSH1 0x40 MLOAD SWAP1 DUP2 MSTORE LOG1 STOP JUMPDEST PUSH1 0x40 MLOAD PUSH3 0x461BCD PUSH1 0xE5 SHL DUP2 MSTORE PUSH1 0x20 PUSH1 0x4 DUP3 ADD MSTORE PUSH1 0x2E PUSH1 0x24 DUP3 ADD MSTORE PUSH32 0x566F74696E6753797374656D3A20646972656363696F6E20696E76616C696461 PUSH1 0x44 DUP3 ADD MSTORE PUSH14 0x103830B930903B32B934B334B2B9 PUSH1 0x91 SHL PUSH1 0x64 DUP3 ADD MSTORE PUSH1 0x84 SWAP1 REVERT JUMPDEST CALLVALUE PUSH2 0x57E JUMPI PUSH1 0x40 CALLDATASIZE PUSH1 0x3 NOT ADD SLT PUSH2 0x57E JUMPI PUSH1 0x4 CALLDATALOAD PUSH1 0x24 CALLDATALOAD SWAP1 PUSH2 0x26E8 PUSH1 0x2 SLOAD DUP3 LT PUSH2 0x35F9 JUMP JUMPDEST DUP1 PUSH1 0x0 MSTORE PUSH1 0x1 PUSH1 0x20 MSTORE PUSH2 0x2704 PUSH1 0x6 PUSH1 0x40 PUSH1 0x0 KECCAK256 ADD SLOAD DUP4 LT PUSH2 0x3707 JUMP JUMPDEST PUSH1 0x0 MSTORE PUSH1 0x1 PUSH1 0x20 MSTORE PUSH1 0x5 PUSH1 0x40 PUSH1 0x0 KECCAK256 ADD SWAP1 PUSH1 0x0 MSTORE PUSH1 0x20 MSTORE PUSH2 0x276D PUSH1 0x40 PUSH1 0x0 KECCAK256 PUSH1 0x2 DUP2 ADD SLOAD PUSH2 0x277B PUSH1 0x1 PUSH2 0x2759 PUSH1 0x40 MLOAD SWAP5 PUSH2 0x2749 DUP7 PUSH2 0x2742 DUP2 DUP5 PUSH2 0x333A JUMP JUMPDEST SUB DUP8 PUSH2 0x3272 JUMP JUMPDEST PUSH2 0xD89 PUSH1 0x40 MLOAD DUP1 SWAP5 DUP2 SWAP4 ADD PUSH2 0x333A JUMP JUMPDEST PUSH1 0x40 MLOAD SWAP5 DUP6 SWAP5 PUSH1 0x60 DUP7 MSTORE PUSH1 0x60 DUP7 ADD SWAP1 PUSH2 0x32C0 JUMP JUMPDEST SWAP1 DUP5 DUP3 SUB PUSH1 0x20 DUP7 ADD MSTORE PUSH2 0x32C0 JUMP JUMPDEST SWAP1 PUSH1 0x40 DUP4 ADD MSTORE SUB SWAP1 RETURN JUMPDEST CALLVALUE PUSH2 0x57E JUMPI PUSH1 0x0 CALLDATASIZE PUSH1 0x3 NOT ADD SLT PUSH2 0x57E JUMPI PUSH1 0x4 SLOAD PUSH1 0x40 MLOAD PUSH1 0x1 PUSH1 0x1 PUSH1 0xA0 SHL SUB SWAP1 SWAP2 AND DUP2 MSTORE PUSH1 0x20 SWAP1 RETURN JUMPDEST CALLVALUE PUSH2 0x57E JUMPI PUSH1 0x20 PUSH2 0x27D4 PUSH2 0x27C1 CALLDATASIZE PUSH2 0x32AA JUMP JUMPDEST SWAP1 PUSH2 0x27CF PUSH1 0x2 SLOAD DUP3 LT PUSH2 0x35F9 JUMP JUMPDEST PUSH2 0x3854 JUMP JUMPDEST PUSH1 0x40 MLOAD SWAP1 ISZERO ISZERO DUP2 MSTORE RETURN JUMPDEST CALLVALUE PUSH2 0x57E JUMPI PUSH1 0x60 CALLDATASIZE PUSH1 0x3 NOT ADD SLT PUSH2 0x57E JUMPI PUSH1 0x4 CALLDATALOAD PUSH1 0x24 CALLDATALOAD SWAP1 PUSH1 0x44 CALLDATALOAD SWAP1 PUSH2 0x2807 PUSH1 0x2 SLOAD DUP3 LT PUSH2 0x35F9 JUMP JUMPDEST PUSH2 0x2813 PUSH1 0x5 SLOAD ISZERO PUSH2 0x351F JUMP JUMPDEST PUSH1 0x1 PUSH1 0x5 SSTORE DUP1 PUSH1 0x0 MSTORE PUSH1 0x20 PUSH1 0x1 DUP2 MSTORE PUSH1 0x40 PUSH1 0x0 KECCAK256 SWAP4 PUSH1 0xFF PUSH1 0xA DUP7 ADD SLOAD AND PUSH2 0x29F6 JUMPI PUSH1 0x6 DUP6 ADD SLOAD DUP2 LT ISZERO PUSH2 0x29B3 JUMPI DUP4 PUSH1 0x0 MSTORE PUSH1 0xF DUP6 ADD DUP3 MSTORE PUSH1 0xFF PUSH1 0x40 PUSH1 0x0 KECCAK256 SLOAD AND ISZERO PUSH2 0x2948 JUMPI PUSH1 0x10 DUP6 ADD SWAP5 DUP5 PUSH1 0x0 MSTORE DUP6 DUP4 MSTORE PUSH1 0xFF PUSH1 0x40 PUSH1 0x0 KECCAK256 SLOAD AND PUSH2 0x28DD JUMPI PUSH32 0x28CC31696AA888AA6307052C35B2AF96E0ECFF781B9F6CFF96B93D86BE35210A SWAP4 SWAP5 SWAP6 DUP3 PUSH1 0x0 MSTORE PUSH1 0x5 DUP3 ADD DUP5 MSTORE PUSH1 0x2 PUSH1 0x40 PUSH1 0x0 KECCAK256 ADD PUSH2 0x28B1 DUP2 SLOAD PUSH2 0x35EA JUMP JUMPDEST SWAP1 SSTORE DUP7 PUSH1 0x0 MSTORE DUP4 MSTORE PUSH1 0x40 PUSH1 0x0 KECCAK256 PUSH1 0x1 PUSH1 0xFF NOT DUP3 SLOAD AND OR SWAP1 SSTORE PUSH1 0xC TIMESTAMP SWAP2 ADD SSTORE PUSH1 0x40 MLOAD SWAP1 DUP2 MSTORE LOG3 PUSH1 0x0 PUSH1 0x5 SSTORE STOP JUMPDEST PUSH1 0x40 MLOAD PUSH3 0x461BCD PUSH1 0xE5 SHL DUP2 MSTORE PUSH1 0x4 DUP2 ADD DUP5 SWAP1 MSTORE PUSH1 0x39 PUSH1 0x24 DUP3 ADD MSTORE PUSH32 0x566F74696E6753797374656D3A204573746520636F6D70726F6D69736F206465 PUSH1 0x44 DUP3 ADD MSTORE PUSH32 0x20766F746F207961206861207369646F20726576656C61646F00000000000000 PUSH1 0x64 DUP3 ADD MSTORE PUSH1 0x84 SWAP1 REVERT JUMPDEST PUSH1 0x40 MLOAD PUSH3 0x461BCD PUSH1 0xE5 SHL DUP2 MSTORE PUSH1 0x4 DUP2 ADD DUP4 SWAP1 MSTORE PUSH1 0x39 PUSH1 0x24 DUP3 ADD MSTORE PUSH32 0x566F74696E6753797374656D3A20436F6D70726F6D69736F20646520766F746F PUSH1 0x44 DUP3 ADD MSTORE PUSH32 0x20696E76616C69646F206F206E6F20656E636F6E747261646F00000000000000 PUSH1 0x64 DUP3 ADD MSTORE PUSH1 0x84 SWAP1 REVERT JUMPDEST PUSH1 0x64 DUP3 PUSH1 0x40 MLOAD SWAP1 PUSH3 0x461BCD PUSH1 0xE5 SHL DUP3 MSTORE DUP1 PUSH1 0x4 DUP4 ADD MSTORE PUSH1 0x24 DUP3 ADD MSTORE PUSH32 0x566F74696E6753797374656D3A2043616E64696461746F20696E76616C69646F PUSH1 0x44 DUP3 ADD MSTORE REVERT JUMPDEST PUSH1 0x40 MLOAD PUSH3 0x461BCD PUSH1 0xE5 SHL DUP2 MSTORE PUSH1 0x4 DUP2 ADD DUP4 SWAP1 MSTORE PUSH1 0x31 PUSH1 0x24 DUP3 ADD MSTORE PUSH32 0x566F74696E6753797374656D3A204C6F7320726573756C7461646F7320796120 PUSH1 0x44 DUP3 ADD MSTORE PUSH17 0x657374616E2066696E616C697A61646F73 PUSH1 0x78 SHL PUSH1 0x64 DUP3 ADD MSTORE PUSH1 0x84 SWAP1 REVERT JUMPDEST CALLVALUE PUSH2 0x57E JUMPI PUSH1 0x0 CALLDATASIZE PUSH1 0x3 NOT ADD SLT PUSH2 0x57E JUMPI PUSH1 0x20 PUSH1 0x40 MLOAD PUSH2 0xE10 DUP2 MSTORE RETURN JUMPDEST CALLVALUE PUSH2 0x57E JUMPI PUSH1 0x20 DUP1 PUSH1 0x3 NOT CALLDATASIZE ADD SLT PUSH2 0x57E JUMPI PUSH1 0x4 CALLDATALOAD PUSH1 0x1 DUP1 PUSH1 0xA0 SHL SUB PUSH1 0x0 SLOAD AND CALLER EQ DUP1 ISZERO PUSH2 0x2C02 JUMPI JUMPDEST PUSH2 0x2AA4 SWAP1 PUSH2 0x34C7 JUMP JUMPDEST PUSH2 0x2AB1 PUSH1 0x2 SLOAD DUP3 LT PUSH2 0x35F9 JUMP JUMPDEST DUP1 PUSH1 0x0 MSTORE PUSH1 0x1 DUP3 MSTORE PUSH1 0xFF PUSH1 0x4 PUSH1 0x40 PUSH1 0x0 KECCAK256 ADD SLOAD AND ISZERO DUP1 ISZERO PUSH2 0x2BF1 JUMPI JUMPDEST ISZERO PUSH2 0x2B9A JUMPI DUP1 PUSH1 0x0 MSTORE PUSH1 0x1 DUP3 MSTORE PUSH1 0xFF PUSH1 0xA PUSH1 0x40 PUSH1 0x0 KECCAK256 ADD SLOAD AND PUSH2 0x2B45 JUMPI DUP1 PUSH1 0x0 MSTORE PUSH1 0x1 DUP3 MSTORE PUSH1 0xA PUSH1 0x40 PUSH1 0x0 KECCAK256 ADD PUSH1 0x1 PUSH1 0xFF NOT DUP3 SLOAD AND OR SWAP1 SSTORE TIMESTAMP PUSH1 0xC PUSH1 0x40 PUSH1 0x0 KECCAK256 ADD SSTORE PUSH32 0x7A30F32AFB8D01F041903FE97047958DA31A80DA375EA2E6549E63D037F8CDF8 PUSH1 0x7 PUSH1 0x40 PUSH1 0x0 KECCAK256 ADD SLOAD SWAP3 PUSH1 0x40 MLOAD SWAP4 DUP5 MSTORE CALLER SWAP4 LOG3 STOP JUMPDEST PUSH1 0x40 MLOAD PUSH3 0x461BCD PUSH1 0xE5 SHL DUP2 MSTORE PUSH1 0x4 DUP2 ADD DUP4 SWAP1 MSTORE PUSH1 0x27 PUSH1 0x24 DUP3 ADD MSTORE PUSH32 0x566F74696E6753797374656D3A20726573756C7461646F732079612066696E61 PUSH1 0x44 DUP3 ADD MSTORE PUSH7 0x6C697A61646F73 PUSH1 0xC8 SHL PUSH1 0x64 DUP3 ADD MSTORE PUSH1 0x84 SWAP1 REVERT JUMPDEST PUSH1 0x40 MLOAD PUSH3 0x461BCD PUSH1 0xE5 SHL DUP2 MSTORE PUSH1 0x4 DUP2 ADD DUP4 SWAP1 MSTORE PUSH1 0x29 PUSH1 0x24 DUP3 ADD MSTORE PUSH32 0x566F74696E6753797374656D3A206C6120656C656363696F6E2061756E206573 PUSH1 0x44 DUP3 ADD MSTORE PUSH9 0x746120616374697661 PUSH1 0xB8 SHL PUSH1 0x64 DUP3 ADD MSTORE PUSH1 0x84 SWAP1 REVERT JUMPDEST POP PUSH1 0x3 PUSH1 0x40 PUSH1 0x0 KECCAK256 ADD SLOAD TIMESTAMP GT PUSH2 0x2ACD JUMP JUMPDEST POP CALLER PUSH1 0x0 SWAP1 DUP2 MSTORE PUSH1 0x3 DUP4 MSTORE PUSH1 0x40 SWAP1 KECCAK256 SLOAD PUSH1 0xFF AND PUSH2 0x2A9B JUMP JUMPDEST CALLVALUE PUSH2 0x57E JUMPI PUSH2 0x2C28 CALLDATASIZE PUSH2 0x32AA JUMP JUMPDEST PUSH1 0x0 SLOAD PUSH1 0x1 PUSH1 0x1 PUSH1 0xA0 SHL SUB AND CALLER EQ DUP1 ISZERO PUSH2 0x2D58 JUMPI JUMPDEST PUSH2 0x2C46 SWAP1 PUSH2 0x34C7 JUMP JUMPDEST PUSH2 0x2C53 PUSH1 0x2 SLOAD DUP4 LT PUSH2 0x35F9 JUMP JUMPDEST DUP2 PUSH1 0x0 MSTORE PUSH1 0x1 PUSH1 0x20 MSTORE PUSH1 0x40 PUSH1 0x0 KECCAK256 SWAP1 PUSH1 0xD DUP3 ADD SWAP1 DUP2 SLOAD PUSH2 0x2D02 JUMPI DUP1 ISZERO PUSH2 0x2CA9 JUMPI PUSH32 0xB04B7D6145A7588FDCF339A22877D5965F861C171204FC37688058C5F6C06D3B SWAP3 DUP2 PUSH1 0x20 SWAP4 SSTORE PUSH1 0xC TIMESTAMP SWAP2 ADD SSTORE PUSH1 0x40 MLOAD SWAP1 DUP2 MSTORE LOG2 STOP JUMPDEST PUSH1 0x40 MLOAD PUSH3 0x461BCD PUSH1 0xE5 SHL DUP2 MSTORE PUSH1 0x20 PUSH1 0x4 DUP3 ADD MSTORE PUSH1 0x2B PUSH1 0x24 DUP3 ADD MSTORE PUSH32 0x566F74696E6753797374656D3A204D65726B6C6520726F6F74206E6F20707565 PUSH1 0x44 DUP3 ADD MSTORE PUSH11 0x646520736572206365726F PUSH1 0xA8 SHL PUSH1 0x64 DUP3 ADD MSTORE PUSH1 0x84 SWAP1 REVERT JUMPDEST PUSH1 0x40 MLOAD PUSH3 0x461BCD PUSH1 0xE5 SHL DUP2 MSTORE PUSH1 0x20 PUSH1 0x4 DUP3 ADD MSTORE PUSH1 0x28 PUSH1 0x24 DUP3 ADD MSTORE PUSH32 0x566F74696E6753797374656D3A204D65726B6C6520726F6F7420796120657374 PUSH1 0x44 DUP3 ADD MSTORE PUSH8 0x61626C656369646F PUSH1 0xC0 SHL PUSH1 0x64 DUP3 ADD MSTORE PUSH1 0x84 SWAP1 REVERT JUMPDEST POP CALLER PUSH1 0x0 SWAP1 DUP2 MSTORE PUSH1 0x3 PUSH1 0x20 MSTORE PUSH1 0x40 SWAP1 KECCAK256 SLOAD PUSH1 0xFF AND PUSH2 0x2C3D JUMP JUMPDEST CALLVALUE PUSH2 0x57E JUMPI PUSH1 0x20 CALLDATASIZE PUSH1 0x3 NOT ADD SLT PUSH2 0x57E JUMPI PUSH1 0x4 CALLDATALOAD PUSH1 0x1 PUSH1 0x1 PUSH1 0xA0 SHL SUB DUP2 AND SWAP1 DUP2 SWAP1 SUB PUSH2 0x57E JUMPI PUSH1 0x0 MSTORE PUSH1 0x3 PUSH1 0x20 MSTORE PUSH1 0x20 PUSH1 0xFF PUSH1 0x40 PUSH1 0x0 KECCAK256 SLOAD AND PUSH1 0x40 MLOAD SWAP1 ISZERO ISZERO DUP2 MSTORE RETURN JUMPDEST CALLVALUE PUSH2 0x57E JUMPI PUSH2 0x2DC2 CALLDATASIZE PUSH2 0x32AA JUMP JUMPDEST PUSH1 0x0 SLOAD PUSH1 0x1 PUSH1 0x1 PUSH1 0xA0 SHL SUB AND CALLER EQ DUP1 ISZERO PUSH2 0x2F1D JUMPI JUMPDEST PUSH2 0x2DE0 SWAP1 PUSH2 0x34C7 JUMP JUMPDEST PUSH2 0x2DED PUSH1 0x2 SLOAD DUP4 LT PUSH2 0x35F9 JUMP JUMPDEST DUP2 PUSH1 0x0 MSTORE PUSH1 0x20 PUSH1 0x1 DUP2 MSTORE PUSH2 0x2E0A PUSH1 0x2 PUSH1 0x40 PUSH1 0x0 KECCAK256 ADD SLOAD TIMESTAMP LT PUSH2 0x3651 JUMP JUMPDEST PUSH2 0x2E15 DUP3 ISZERO ISZERO PUSH2 0x379E JUMP JUMPDEST DUP3 PUSH1 0x0 MSTORE PUSH1 0x1 DUP2 MSTORE PUSH1 0x8 PUSH1 0x40 PUSH1 0x0 KECCAK256 ADD DUP3 PUSH1 0x0 MSTORE DUP2 MSTORE PUSH1 0x40 PUSH1 0x0 KECCAK256 DUP1 SLOAD PUSH1 0xFF DUP2 AND ISZERO PUSH2 0x2EB2 JUMPI PUSH1 0xFF NOT AND SWAP1 SSTORE DUP3 PUSH1 0x0 MSTORE PUSH1 0x1 DUP2 MSTORE PUSH1 0x9 PUSH1 0x40 PUSH1 0x0 KECCAK256 ADD SWAP1 DUP2 SLOAD SWAP2 DUP3 ISZERO PUSH2 0x2E9C JUMPI PUSH1 0x1 SWAP3 PUSH1 0x0 NOT ADD SWAP1 SSTORE DUP4 PUSH1 0x0 MSTORE MSTORE TIMESTAMP PUSH1 0xC PUSH1 0x40 PUSH1 0x0 KECCAK256 ADD SSTORE CALLER SWAP2 PUSH32 0xF6E3CA2D6CEC67764D79FBE8D18F592E8E4B32EB4A27CB7EC441FB23551C844A PUSH1 0x0 DUP1 LOG4 STOP JUMPDEST PUSH4 0x4E487B71 PUSH1 0xE0 SHL PUSH1 0x0 MSTORE PUSH1 0x11 PUSH1 0x4 MSTORE PUSH1 0x24 PUSH1 0x0 REVERT JUMPDEST PUSH1 0x40 MLOAD PUSH3 0x461BCD PUSH1 0xE5 SHL DUP2 MSTORE PUSH1 0x4 DUP2 ADD DUP5 SWAP1 MSTORE PUSH1 0x3A PUSH1 0x24 DUP3 ADD MSTORE PUSH32 0x566F74696E6753797374656D3A20766F74616E7465206E6F2072656769737472 PUSH1 0x44 DUP3 ADD MSTORE PUSH32 0x61646F20636F6E2065737465206964656E746966696361646F72000000000000 PUSH1 0x64 DUP3 ADD MSTORE PUSH1 0x84 SWAP1 REVERT JUMPDEST POP CALLER PUSH1 0x0 SWAP1 DUP2 MSTORE PUSH1 0x3 PUSH1 0x20 MSTORE PUSH1 0x40 SWAP1 KECCAK256 SLOAD PUSH1 0xFF AND PUSH2 0x2DD7 JUMP JUMPDEST CALLVALUE PUSH2 0x57E JUMPI PUSH1 0x40 CALLDATASIZE PUSH1 0x3 NOT ADD SLT PUSH2 0x57E JUMPI PUSH1 0x1 PUSH1 0x1 PUSH1 0x40 SHL SUB PUSH1 0x24 DUP1 CALLDATALOAD SWAP1 PUSH1 0x4 CALLDATALOAD SWAP1 DUP4 DUP4 GT PUSH2 0x57E JUMPI CALLDATASIZE PUSH1 0x23 DUP5 ADD SLT ISZERO PUSH2 0x57E JUMPI DUP3 PUSH1 0x4 ADD CALLDATALOAD SWAP3 PUSH2 0x2F79 DUP5 PUSH2 0x3293 JUMP JUMPDEST SWAP1 PUSH2 0x2F87 PUSH1 0x40 MLOAD SWAP3 DUP4 PUSH2 0x3272 JUMP JUMPDEST DUP5 DUP3 MSTORE PUSH1 0x20 SWAP5 DUP4 DUP7 DUP5 ADD SWAP2 PUSH1 0x5 SHL DUP4 ADD ADD SWAP2 CALLDATASIZE DUP4 GT PUSH2 0x57E JUMPI DUP5 DUP8 SWAP2 ADD SWAP2 JUMPDEST DUP4 DUP4 LT PUSH2 0x322B JUMPI POP POP POP POP PUSH1 0x1 DUP1 PUSH1 0xA0 SHL SUB PUSH1 0x0 SLOAD AND CALLER EQ DUP1 ISZERO PUSH2 0x3213 JUMPI JUMPDEST PUSH2 0x2FCE SWAP1 PUSH2 0x34C7 JUMP JUMPDEST PUSH2 0x2FDB PUSH1 0x2 SLOAD DUP5 LT PUSH2 0x35F9 JUMP JUMPDEST PUSH2 0x2FE7 PUSH1 0x5 SLOAD ISZERO PUSH2 0x351F JUMP JUMPDEST PUSH1 0x1 SWAP5 DUP6 PUSH1 0x5 SSTORE DUP4 PUSH1 0x0 MSTORE DUP6 DUP6 MSTORE PUSH1 0xFF SWAP1 PUSH2 0x300B DUP3 PUSH1 0x4 PUSH1 0x40 PUSH1 0x0 KECCAK256 ADD SLOAD AND PUSH2 0x3752 JUMP JUMPDEST PUSH1 0x64 SWAP3 DUP4 DUP2 MLOAD GT PUSH2 0x31BD JUMPI PUSH1 0x0 DUP9 JUMPDEST PUSH2 0x303A JUMPI JUMPDEST DUP9 DUP9 DUP9 PUSH1 0x0 MSTORE MSTORE TIMESTAMP PUSH1 0xC PUSH1 0x40 PUSH1 0x0 KECCAK256 ADD SSTORE PUSH1 0x0 PUSH1 0x5 SSTORE PUSH1 0x0 DUP1 RETURN JUMPDEST DUP2 MLOAD DUP2 LT ISZERO PUSH2 0x31B8 JUMPI PUSH2 0x304D DUP2 DUP4 PUSH2 0x3802 JUMP JUMPDEST MLOAD DUP1 ISZERO PUSH2 0x314F JUMPI SWAP1 DUP10 SWAP6 SWAP5 SWAP4 SWAP3 SWAP2 DUP9 PUSH1 0x0 MSTORE DUP7 DUP11 MSTORE PUSH1 0x8 DUP1 PUSH1 0x40 PUSH1 0x0 KECCAK256 ADD DUP3 PUSH1 0x0 MSTORE DUP12 MSTORE DUP6 PUSH1 0x40 PUSH1 0x0 KECCAK256 SLOAD AND ISZERO PUSH2 0x3094 JUMPI JUMPDEST POP POP PUSH2 0x308A SWAP1 PUSH2 0x35EA JUMP JUMPDEST SWAP1 SWAP2 SWAP3 SWAP4 SWAP5 PUSH2 0x301A JUMP JUMPDEST SWAP1 SWAP2 SWAP3 SWAP4 SWAP5 SWAP6 SWAP7 POP PUSH1 0x40 MLOAD SWAP1 DUP11 DUP3 ADD DUP3 DUP2 LT DUP8 DUP3 GT OR PUSH2 0x313A JUMPI DUP13 SWAP9 SWAP8 SWAP7 SWAP6 SWAP5 SWAP3 PUSH2 0x308A SWAP5 SWAP3 DUP11 DUP15 DUP15 PUSH2 0x30F0 SWAP6 PUSH1 0x40 MSTORE DUP3 DUP6 MSTORE PUSH1 0x0 MSTORE MSTORE PUSH1 0x40 PUSH1 0x0 KECCAK256 ADD DUP4 PUSH1 0x0 MSTORE DUP14 MSTORE PUSH1 0x40 PUSH1 0x0 KECCAK256 SWAP1 MLOAD ISZERO ISZERO PUSH1 0xFF DUP1 NOT DUP4 SLOAD AND SWAP2 ISZERO ISZERO AND OR SWAP1 SSTORE JUMP JUMPDEST DUP10 PUSH1 0x0 MSTORE DUP8 DUP12 MSTORE PUSH1 0x9 PUSH1 0x40 PUSH1 0x0 KECCAK256 ADD PUSH2 0x3109 DUP2 SLOAD PUSH2 0x35EA JUMP JUMPDEST SWAP1 SSTORE CALLER SWAP1 DUP11 PUSH32 0x82350FFB4CFD6CFFADA59AC532AB28A3129CDE41D8589863D8F6ADFD91A899EA PUSH1 0x0 DUP1 LOG4 SWAP1 DUP12 PUSH2 0x307F JUMP JUMPDEST DUP10 PUSH4 0x4E487B71 PUSH1 0xE0 SHL PUSH1 0x0 MSTORE PUSH1 0x41 PUSH1 0x4 MSTORE PUSH1 0x0 REVERT JUMPDEST PUSH1 0x40 MLOAD PUSH3 0x461BCD PUSH1 0xE5 SHL DUP2 MSTORE PUSH1 0x4 DUP2 ADD DUP11 SWAP1 MSTORE PUSH1 0x37 DUP2 DUP10 ADD MSTORE PUSH32 0x566F74696E6753797374656D3A20766F7465724964656E746966696572206E6F PUSH1 0x44 DUP3 ADD MSTORE PUSH32 0x20707565646520736572206365726F20656E206C6F7465000000000000000000 DUP2 DUP9 ADD MSTORE PUSH1 0x84 SWAP1 REVERT JUMPDEST PUSH2 0x301F JUMP JUMPDEST PUSH1 0x40 MLOAD PUSH3 0x461BCD PUSH1 0xE5 SHL DUP2 MSTORE PUSH1 0x4 DUP2 ADD DUP9 SWAP1 MSTORE PUSH1 0x2A DUP2 DUP8 ADD MSTORE PUSH32 0x566F74696E6753797374656D3A2064656D61736961646F7320766F74616E7465 PUSH1 0x44 DUP3 ADD MSTORE PUSH10 0x7320706F72206C6F7465 PUSH1 0xB0 SHL DUP2 DUP7 ADD MSTORE PUSH1 0x84 SWAP1 REVERT JUMPDEST POP CALLER PUSH1 0x0 SWAP1 DUP2 MSTORE PUSH1 0x3 DUP6 MSTORE PUSH1 0x40 SWAP1 KECCAK256 SLOAD PUSH1 0xFF AND PUSH2 0x2FC5 JUMP JUMPDEST DUP3 CALLDATALOAD DUP2 MSTORE SWAP2 DUP2 ADD SWAP2 DUP8 SWAP2 ADD PUSH2 0x2FA6 JUMP JUMPDEST PUSH2 0x180 DUP2 ADD SWAP1 DUP2 LT PUSH1 0x1 PUSH1 0x1 PUSH1 0x40 SHL SUB DUP3 GT OR PUSH2 0x437 JUMPI PUSH1 0x40 MSTORE JUMP JUMPDEST PUSH1 0x40 DUP2 ADD SWAP1 DUP2 LT PUSH1 0x1 PUSH1 0x1 PUSH1 0x40 SHL SUB DUP3 GT OR PUSH2 0x437 JUMPI PUSH1 0x40 MSTORE JUMP JUMPDEST SWAP1 PUSH1 0x1F DUP1 NOT SWAP2 ADD AND DUP2 ADD SWAP1 DUP2 LT PUSH1 0x1 PUSH1 0x1 PUSH1 0x40 SHL SUB DUP3 GT OR PUSH2 0x437 JUMPI PUSH1 0x40 MSTORE JUMP JUMPDEST PUSH1 0x1 PUSH1 0x1 PUSH1 0x40 SHL SUB DUP2 GT PUSH2 0x437 JUMPI PUSH1 0x5 SHL PUSH1 0x20 ADD SWAP1 JUMP JUMPDEST PUSH1 0x40 SWAP1 PUSH1 0x3 NOT ADD SLT PUSH2 0x57E JUMPI PUSH1 0x4 CALLDATALOAD SWAP1 PUSH1 0x24 CALLDATALOAD SWAP1 JUMP JUMPDEST SWAP2 SWAP1 DUP3 MLOAD SWAP3 DUP4 DUP3 MSTORE PUSH1 0x0 JUMPDEST DUP5 DUP2 LT PUSH2 0x32EC JUMPI POP POP DUP3 PUSH1 0x0 PUSH1 0x20 DUP1 SWAP5 SWAP6 DUP5 ADD ADD MSTORE PUSH1 0x1F DUP1 NOT SWAP2 ADD AND ADD ADD SWAP1 JUMP JUMPDEST PUSH1 0x20 DUP2 DUP4 ADD DUP2 ADD MLOAD DUP5 DUP4 ADD DUP3 ADD MSTORE ADD PUSH2 0x32CB JUMP JUMPDEST SWAP1 PUSH1 0x1 DUP3 DUP2 SHR SWAP3 AND DUP1 ISZERO PUSH2 0x3330 JUMPI JUMPDEST PUSH1 0x20 DUP4 LT EQ PUSH2 0x331A JUMPI JUMP JUMPDEST PUSH4 0x4E487B71 PUSH1 0xE0 SHL PUSH1 0x0 MSTORE PUSH1 0x22 PUSH1 0x4 MSTORE PUSH1 0x24 PUSH1 0x0 REVERT JUMPDEST SWAP2 PUSH1 0x7F AND SWAP2 PUSH2 0x330F JUMP JUMPDEST SWAP1 PUSH1 0x0 SWAP3 SWAP2 DUP1 SLOAD SWAP2 PUSH2 0x334B DUP4 PUSH2 0x3300 JUMP JUMPDEST SWAP2 DUP3 DUP3 MSTORE PUSH1 0x1 SWAP4 DUP5 DUP2 AND SWAP1 DUP2 PUSH1 0x0 EQ PUSH2 0x33AD JUMPI POP PUSH1 0x1 EQ PUSH2 0x336D JUMPI JUMPDEST POP POP POP POP JUMP JUMPDEST SWAP1 SWAP2 SWAP4 SWAP5 POP PUSH1 0x0 MSTORE PUSH1 0x20 SWAP3 DUP4 PUSH1 0x0 KECCAK256 SWAP3 DUP5 PUSH1 0x0 SWAP5 JUMPDEST DUP4 DUP7 LT PUSH2 0x3399 JUMPI POP POP POP POP ADD ADD SWAP1 CODESIZE DUP1 DUP1 DUP1 PUSH2 0x3367 JUMP JUMPDEST DUP1 SLOAD DUP6 DUP8 ADD DUP4 ADD MSTORE SWAP5 ADD SWAP4 DUP6 SWAP1 DUP3 ADD PUSH2 0x3382 JUMP JUMPDEST SWAP3 SWAP5 POP POP POP PUSH1 0x20 SWAP4 SWAP5 POP PUSH1 0xFF NOT AND DUP4 DUP4 ADD MSTORE ISZERO ISZERO PUSH1 0x5 SHL ADD ADD SWAP1 CODESIZE DUP1 DUP1 DUP1 PUSH2 0x3367 JUMP JUMPDEST DUP2 PUSH1 0x1F DUP3 ADD SLT ISZERO PUSH2 0x57E JUMPI DUP1 CALLDATALOAD SWAP1 PUSH1 0x1 PUSH1 0x1 PUSH1 0x40 SHL SUB DUP3 GT PUSH2 0x437 JUMPI PUSH1 0x40 MLOAD SWAP3 PUSH2 0x3404 PUSH1 0x1F DUP5 ADD PUSH1 0x1F NOT AND PUSH1 0x20 ADD DUP6 PUSH2 0x3272 JUMP JUMPDEST DUP3 DUP5 MSTORE PUSH1 0x20 DUP4 DUP4 ADD ADD GT PUSH2 0x57E JUMPI DUP2 PUSH1 0x0 SWAP3 PUSH1 0x20 DUP1 SWAP4 ADD DUP4 DUP7 ADD CALLDATACOPY DUP4 ADD ADD MSTORE SWAP1 JUMP JUMPDEST PUSH1 0x60 PUSH1 0x3 NOT DUP3 ADD SLT PUSH2 0x57E JUMPI PUSH1 0x4 CALLDATALOAD SWAP2 PUSH1 0x1 PUSH1 0x1 PUSH1 0x40 SHL SUB PUSH1 0x24 CALLDATALOAD DUP2 DUP2 GT PUSH2 0x57E JUMPI DUP4 PUSH2 0x3455 SWAP2 PUSH1 0x4 ADD PUSH2 0x33D0 JUMP JUMPDEST SWAP3 PUSH1 0x44 CALLDATALOAD SWAP2 DUP3 GT PUSH2 0x57E JUMPI PUSH2 0x346C SWAP2 PUSH1 0x4 ADD PUSH2 0x33D0 JUMP JUMPDEST SWAP1 JUMP JUMPDEST PUSH1 0x0 SLOAD PUSH1 0x1 PUSH1 0x1 PUSH1 0xA0 SHL SUB AND CALLER SUB PUSH2 0x3483 JUMPI JUMP JUMPDEST PUSH1 0x64 PUSH1 0x40 MLOAD PUSH3 0x461BCD PUSH1 0xE5 SHL DUP2 MSTORE PUSH1 0x20 PUSH1 0x4 DUP3 ADD MSTORE PUSH1 0x20 PUSH1 0x24 DUP3 ADD MSTORE PUSH32 0x4F776E61626C653A2063616C6C6572206973206E6F7420746865206F776E6572 PUSH1 0x44 DUP3 ADD MSTORE REVERT JUMPDEST ISZERO PUSH2 0x34CE JUMPI JUMP JUMPDEST PUSH1 0x40 MLOAD PUSH3 0x461BCD PUSH1 0xE5 SHL DUP2 MSTORE PUSH1 0x20 PUSH1 0x4 DUP3 ADD MSTORE PUSH1 0x23 PUSH1 0x24 DUP3 ADD MSTORE PUSH32 0x566F74696E6753797374656D3A207265717569657265206175746F72697A6163 PUSH1 0x44 DUP3 ADD MSTORE PUSH3 0x34B7B7 PUSH1 0xE9 SHL PUSH1 0x64 DUP3 ADD MSTORE PUSH1 0x84 SWAP1 REVERT JUMPDEST ISZERO PUSH2 0x3526 JUMPI JUMP JUMPDEST PUSH1 0x40 MLOAD PUSH3 0x461BCD PUSH1 0xE5 SHL DUP2 MSTORE PUSH1 0x20 PUSH1 0x4 DUP3 ADD MSTORE PUSH1 0x24 DUP1 DUP3 ADD MSTORE PUSH32 0x566F74696E6753797374656D3A207265656E7472616461206E6F207065726D69 PUSH1 0x44 DUP3 ADD MSTORE PUSH4 0x74696461 PUSH1 0xE0 SHL PUSH1 0x64 DUP3 ADD MSTORE PUSH1 0x84 SWAP1 REVERT JUMPDEST ISZERO PUSH2 0x357E JUMPI JUMP JUMPDEST PUSH1 0x40 MLOAD PUSH3 0x461BCD PUSH1 0xE5 SHL DUP2 MSTORE PUSH1 0x20 PUSH1 0x4 DUP3 ADD MSTORE PUSH1 0x31 PUSH1 0x24 DUP3 ADD MSTORE PUSH32 0x566F74696E6753797374656D3A206C61206465736372697063696F6E206E6F20 PUSH1 0x44 DUP3 ADD MSTORE PUSH17 0x7075656465206573746172207661636961 PUSH1 0x78 SHL PUSH1 0x64 DUP3 ADD MSTORE PUSH1 0x84 SWAP1 REVERT JUMPDEST SWAP2 SWAP1 DUP3 SUB SWAP2 DUP3 GT PUSH2 0x2E9C JUMPI JUMP JUMPDEST PUSH1 0x0 NOT DUP2 EQ PUSH2 0x2E9C JUMPI PUSH1 0x1 ADD SWAP1 JUMP JUMPDEST ISZERO PUSH2 0x3600 JUMPI JUMP JUMPDEST PUSH1 0x40 MLOAD PUSH3 0x461BCD PUSH1 0xE5 SHL DUP2 MSTORE PUSH1 0x20 PUSH1 0x4 DUP3 ADD MSTORE PUSH1 0x23 PUSH1 0x24 DUP3 ADD MSTORE PUSH32 0x566F74696E6753797374656D3A206C6120656C656363696F6E206E6F20657869 PUSH1 0x44 DUP3 ADD MSTORE PUSH3 0x737465 PUSH1 0xE8 SHL PUSH1 0x64 DUP3 ADD MSTORE PUSH1 0x84 SWAP1 REVERT JUMPDEST ISZERO PUSH2 0x3658 JUMPI JUMP JUMPDEST PUSH1 0x40 MLOAD PUSH3 0x461BCD PUSH1 0xE5 SHL DUP2 MSTORE PUSH1 0x20 PUSH1 0x4 DUP3 ADD MSTORE PUSH1 0x29 PUSH1 0x24 DUP3 ADD MSTORE PUSH32 0x566F74696E6753797374656D3A206C6120656C656363696F6E20796120686120 PUSH1 0x44 DUP3 ADD MSTORE PUSH9 0x636F6D656E7A61646F PUSH1 0xB8 SHL PUSH1 0x64 DUP3 ADD MSTORE PUSH1 0x84 SWAP1 REVERT JUMPDEST ISZERO PUSH2 0x36B6 JUMPI JUMP JUMPDEST PUSH1 0x40 MLOAD PUSH3 0x461BCD PUSH1 0xE5 SHL DUP2 MSTORE PUSH1 0x20 PUSH1 0x4 DUP3 ADD MSTORE PUSH1 0x24 DUP1 DUP3 ADD MSTORE PUSH32 0x566F74696E6753797374656D3A20726573756C7461646F732066696E616C697A PUSH1 0x44 DUP3 ADD MSTORE PUSH4 0x61646F73 PUSH1 0xE0 SHL PUSH1 0x64 DUP3 ADD MSTORE PUSH1 0x84 SWAP1 REVERT JUMPDEST ISZERO PUSH2 0x370E JUMPI JUMP JUMPDEST PUSH1 0x64 PUSH1 0x40 MLOAD PUSH3 0x461BCD PUSH1 0xE5 SHL DUP2 MSTORE PUSH1 0x20 PUSH1 0x4 DUP3 ADD MSTORE PUSH1 0x20 PUSH1 0x24 DUP3 ADD MSTORE PUSH32 0x566F74696E6753797374656D3A2063616E64696461746F20696E76616C69646F PUSH1 0x44 DUP3 ADD MSTORE REVERT JUMPDEST ISZERO PUSH2 0x3759 JUMPI JUMP JUMPDEST PUSH1 0x40 MLOAD PUSH3 0x461BCD PUSH1 0xE5 SHL DUP2 MSTORE PUSH1 0x20 PUSH1 0x4 DUP3 ADD MSTORE PUSH1 0x1F PUSH1 0x24 DUP3 ADD MSTORE PUSH32 0x566F74696E6753797374656D3A20656C656363696F6E20696E61637469766100 PUSH1 0x44 DUP3 ADD MSTORE PUSH1 0x64 SWAP1 REVERT JUMPDEST ISZERO PUSH2 0x37A5 JUMPI JUMP JUMPDEST PUSH1 0x40 MLOAD PUSH3 0x461BCD PUSH1 0xE5 SHL DUP2 MSTORE PUSH1 0x20 PUSH1 0x4 DUP3 ADD MSTORE PUSH1 0x2F PUSH1 0x24 DUP3 ADD MSTORE PUSH32 0x566F74696E6753797374656D3A20766F7465724964656E746966696572206E6F PUSH1 0x44 DUP3 ADD MSTORE PUSH15 0x20707565646520736572206365726F PUSH1 0x88 SHL PUSH1 0x64 DUP3 ADD MSTORE PUSH1 0x84 SWAP1 REVERT JUMPDEST DUP1 MLOAD DUP3 LT ISZERO PUSH2 0x3816 JUMPI PUSH1 0x20 SWAP2 PUSH1 0x5 SHL ADD ADD SWAP1 JUMP JUMPDEST PUSH4 0x4E487B71 PUSH1 0xE0 SHL PUSH1 0x0 MSTORE PUSH1 0x32 PUSH1 0x4 MSTORE PUSH1 0x24 PUSH1 0x0 REVERT JUMPDEST PUSH1 0x0 SWAP2 JUMPDEST PUSH1 0x2 DUP4 LT PUSH2 0x383D JUMPI POP POP POP JUMP JUMPDEST PUSH1 0x1 SWAP1 DUP3 MLOAD DUP2 MSTORE PUSH1 0x20 DUP1 SWAP2 ADD SWAP3 ADD SWAP3 ADD SWAP2 SWAP1 PUSH2 0x3830 JUMP JUMPDEST PUSH2 0x385F DUP3 ISZERO ISZERO PUSH2 0x379E JUMP JUMPDEST PUSH1 0x0 MSTORE PUSH1 0x1 PUSH1 0x20 MSTORE PUSH1 0x8 PUSH1 0x40 PUSH1 0x0 KECCAK256 ADD SWAP1 PUSH1 0x0 MSTORE PUSH1 0x20 MSTORE PUSH1 0xFF PUSH1 0x40 PUSH1 0x0 KECCAK256 SLOAD AND SWAP1 JUMP INVALID LOG2 PUSH5 0x6970667358 0x22 SLT KECCAK256 0x22 SMOD SELFDESTRUCT 0xAC 0xB7 0x2A EXP SELFBALANCE 0xBF 0xC6 0x4A EXTCODECOPY POP 0x2C REVERT 0xA7 CREATE2 0xDE 0x5E LOG3 SWAP12 0xE 0xCE EXTCODECOPY 0x5E SWAP8 0xF8 RETURNDATACOPY SWAP5 0xC9 REVERT PUSH22 0x64736F6C634300081100330000000000000000000000 "},"methodIdentifiers":{"MAX_CANDIDATES_PER_ELECTION()":"b51817f0","MAX_ELECTION_DURATION()":"5b6a2da6","MIN_ELECTION_DURATION()":"1b441c9c","addCandidate(uint256,string,string)":"e6c62efc","addOperator(address)":"9870d7fe","anonymousVote(uint256,uint256[2],uint256[2][2],uint256[2],bytes32,bytes32,bytes32)":"d48653f5","authorizedOperators(address)":"181d989b","batchRegisterVoters(uint256,bytes32[])":"064e6b2e","createElection(string,string,uint256,uint256)":"7ad36e84","electionCount()":"997d2830","elections(uint256)":"5e6fef01","endElection(uint256)":"9c98bcbb","finalizeResults(uint256)":"1978e0d3","getCandidate(uint256,uint256)":"4bd46448","getElectionResults(uint256)":"e8ededa6","getElectionSummary(uint256)":"d9148f73","getRegisteredVoterCount(uint256)":"f63ff3d2","getVotedCount(uint256)":"c55cc4e4","getVoterDetails(uint256,bytes32)":"1064d944","getVoterStatus(uint256,bytes32)":"247b0cc1","hasVoted(uint256,bytes32)":"74417bf4","isRegisteredVoter(uint256,bytes32)":"c85407bb","owner()":"8da5cb5b","registerVoter(uint256,bytes32)":"d2bd1738","removeOperator(address)":"ac8a584a","removeVoter(uint256,bytes32)":"12fe885d","renounceOwnership()":"715018a6","revealVote(uint256,uint256,bytes32)":"1d2cd644","setMerkleRoot(uint256,bytes32)":"18712c21","setVerifier(address)":"5437988d","transferOwnership(address)":"f2fde38b","updateCandidate(uint256,uint256,string,string)":"f9abea2f","updateElection(uint256,string,string)":"c7cc2fd2","verifier()":"2b7ac3f3"}}}}}