{
  "_format": "hh-sol-artifact-1",
  "contractName": "VotingSystem",
  "sourceName": "contracts/VotingSystem.sol",
  "abi": [
    {
      "inputs": [],
      "stateMutability": "nonpayable",
      "type": "constructor"
    },
    {
      "anonymous": false,
      "inputs": [
        {
          "indexed": true,
          "internalType": "uint256",
          "name": "electionId",
          "type": "uint256"
        },
        {
          "indexed": true,
          "internalType": "bytes32",
          "name": "nullifierHash",
          "type": "bytes32"
        },
        {
          "indexed": false,
          "internalType": "bytes32",
          "name": "voteCommitment",
          "type": "bytes32"
        }
      ],
      "name": "AnonymousVoteCast",
      "type": "event"
    },
    {
      "anonymous": false,
      "inputs": [
        {
          "indexed": true,
          "internalType": "uint256",
          "name": "electionId",
          "type": "uint256"
        },
        {
          "indexed": true,
          "internalType": "uint256",
          "name": "candidateId",
          "type": "uint256"
        },
        {
          "indexed": false,
          "internalType": "string",
          "name": "name",
          "type": "string"
        },
        {
          "indexed": true,
          "internalType": "address",
          "name": "addedBy",
          "type": "address"
        }
      ],
      "name": "CandidateAdded",
      "type": "event"
    },
    {
      "anonymous": false,
      "inputs": [
        {
          "indexed": true,
          "internalType": "uint256",
          "name": "electionId",
          "type": "uint256"
        },
        {
          "indexed": true,
          "internalType": "uint256",
          "name": "candidateId",
          "type": "uint256"
        },
        {
          "indexed": false,
          "internalType": "string",
          "name": "name",
          "type": "string"
        },
        {
          "indexed": true,
          "internalType": "address",
          "name": "updatedBy",
          "type": "address"
        }
      ],
      "name": "CandidateUpdated",
      "type": "event"
    },
    {
      "anonymous": false,
      "inputs": [
        {
          "indexed": true,
          "internalType": "uint256",
          "name": "electionId",
          "type": "uint256"
        },
        {
          "indexed": false,
          "internalType": "string",
          "name": "title",
          "type": "string"
        },
        {
          "indexed": false,
          "internalType": "uint256",
          "name": "startTime",
          "type": "uint256"
        },
        {
          "indexed": false,
          "internalType": "uint256",
          "name": "endTime",
          "type": "uint256"
        },
        {
          "indexed": true,
          "internalType": "address",
          "name": "creator",
          "type": "address"
        }
      ],
      "name": "ElectionCreated",
      "type": "event"
    },
    {
      "anonymous": false,
      "inputs": [
        {
          "indexed": true,
          "internalType": "uint256",
          "name": "electionId",
          "type": "uint256"
        },
        {
          "indexed": false,
          "internalType": "uint256",
          "name": "endTime",
          "type": "uint256"
        },
        {
          "indexed": true,
          "internalType": "address",
          "name": "endedBy",
          "type": "address"
        }
      ],
      "name": "ElectionEnded",
      "type": "event"
    },
    {
      "anonymous": false,
      "inputs": [
        {
          "indexed": true,
          "internalType": "uint256",
          "name": "electionId",
          "type": "uint256"
        },
        {
          "indexed": false,
          "internalType": "uint256",
          "name": "totalVotes",
          "type": "uint256"
        },
        {
          "indexed": true,
          "internalType": "address",
          "name": "finalizedBy",
          "type": "address"
        }
      ],
      "name": "ElectionFinalized",
      "type": "event"
    },
    {
      "anonymous": false,
      "inputs": [
        {
          "indexed": true,
          "internalType": "uint256",
          "name": "electionId",
          "type": "uint256"
        },
        {
          "indexed": false,
          "internalType": "string",
          "name": "title",
          "type": "string"
        },
        {
          "indexed": false,
          "internalType": "string",
          "name": "description",
          "type": "string"
        },
        {
          "indexed": false,
          "internalType": "uint256",
          "name": "startTime",
          "type": "uint256"
        },
        {
          "indexed": false,
          "internalType": "uint256",
          "name": "endTime",
          "type": "uint256"
        },
        {
          "indexed": true,
          "internalType": "address",
          "name": "updatedBy",
          "type": "address"
        }
      ],
      "name": "ElectionUpdated",
      "type": "event"
    },
    {
      "anonymous": false,
      "inputs": [
        {
          "indexed": true,
          "internalType": "uint256",
          "name": "electionId",
          "type": "uint256"
        },
        {
          "indexed": false,
          "internalType": "bytes32",
          "name": "merkleRoot",
          "type": "bytes32"
        }
      ],
      "name": "MerkleRootSet",
      "type": "event"
    },
    {
      "anonymous": false,
      "inputs": [
        {
          "indexed": true,
          "internalType": "address",
          "name": "operator",
          "type": "address"
        },
        {
          "indexed": true,
          "internalType": "address",
          "name": "addedBy",
          "type": "address"
        }
      ],
      "name": "OperatorAdded",
      "type": "event"
    },
    {
      "anonymous": false,
      "inputs": [
        {
          "indexed": true,
          "internalType": "address",
          "name": "operator",
          "type": "address"
        },
        {
          "indexed": true,
          "internalType": "address",
          "name": "removedBy",
          "type": "address"
        }
      ],
      "name": "OperatorRemoved",
      "type": "event"
    },
    {
      "anonymous": false,
      "inputs": [
        {
          "indexed": true,
          "internalType": "address",
          "name": "previousOwner",
          "type": "address"
        },
        {
          "indexed": true,
          "internalType": "address",
          "name": "newOwner",
          "type": "address"
        }
      ],
      "name": "OwnershipTransferred",
      "type": "event"
    },
    {
      "anonymous": false,
      "inputs": [
        {
          "indexed": false,
          "internalType": "address",
          "name": "verifierAddress",
          "type": "address"
        }
      ],
      "name": "VerifierSet",
      "type": "event"
    },
    {
      "anonymous": false,
      "inputs": [
        {
          "indexed": true,
          "internalType": "uint256",
          "name": "electionId",
          "type": "uint256"
        },
        {
          "indexed": true,
          "internalType": "bytes32",
          "name": "voteCommitment",
          "type": "bytes32"
        },
        {
          "indexed": false,
          "internalType": "uint256",
          "name": "candidateId",
          "type": "uint256"
        }
      ],
      "name": "VoteRevealed",
      "type": "event"
    },
    {
      "anonymous": false,
      "inputs": [
        {
          "indexed": true,
          "internalType": "uint256",
          "name": "electionId",
          "type": "uint256"
        },
        {
          "indexed": true,
          "internalType": "bytes32",
          "name": "voterIdentifier",
          "type": "bytes32"
        },
        {
          "indexed": true,
          "internalType": "address",
          "name": "registeredBy",
          "type": "address"
        }
      ],
      "name": "VoterRegistered",
      "type": "event"
    },
    {
      "anonymous": false,
      "inputs": [
        {
          "indexed": true,
          "internalType": "uint256",
          "name": "electionId",
          "type": "uint256"
        },
        {
          "indexed": true,
          "internalType": "bytes32",
          "name": "voterIdentifier",
          "type": "bytes32"
        },
        {
          "indexed": true,
          "internalType": "address",
          "name": "removedBy",
          "type": "address"
        }
      ],
      "name": "VoterRemoved",
      "type": "event"
    },
    {
      "inputs": [],
      "name": "MAX_CANDIDATES_PER_ELECTION",
      "outputs": [
        {
          "internalType": "uint256",
          "name": "",
          "type": "uint256"
        }
      ],
      "stateMutability": "view",
      "type": "function"
    },
    {
      "inputs": [],
      "name": "MAX_ELECTION_DURATION",
      "outputs": [
        {
          "internalType": "uint256",
          "name": "",
          "type": "uint256"
        }
      ],
      "stateMutability": "view",
      "type": "function"
    },
    {
      "inputs": [],
      "name": "MIN_ELECTION_DURATION",
      "outputs": [
        {
          "internalType": "uint256",
          "name": "",
          "type": "uint256"
        }
      ],
      "stateMutability": "view",
      "type": "function"
    },
    {
      "inputs": [
        {
          "internalType": "uint256",
          "name": "_electionId",
          "type": "uint256"
        },
        {
          "internalType": "string",
          "name": "_name",
          "type": "string"
        }
      ],
      "name": "addCandidate",
      "outputs": [],
      "stateMutability": "nonpayable",
      "type": "function"
    },
    {
      "inputs": [
        {
          "internalType": "uint256",
          "name": "_electionId",
          "type": "uint256"
        },
        {
          "internalType": "string",
          "name": "_name",
          "type": "string"
        },
        {
          "internalType": "string",
          "name": "_description",
          "type": "string"
        }
      ],
      "name": "addCandidate",
      "outputs": [
        {
          "internalType": "uint256",
          "name": "",
          "type": "uint256"
        }
      ],
      "stateMutability": "nonpayable",
      "type": "function"
    },
    {
      "inputs": [
        {
          "internalType": "address",
          "name": "_operator",
          "type": "address"
        }
      ],
      "name": "addOperator",
      "outputs": [],
      "stateMutability": "nonpayable",
      "type": "function"
    },
    {
      "inputs": [
        {
          "internalType": "uint256",
          "name": "_electionId",
          "type": "uint256"
        },
        {
          "internalType": "uint256[2]",
          "name": "_pA",
          "type": "uint256[2]"
        },
        {
          "internalType": "uint256[2][2]",
          "name": "_pB",
          "type": "uint256[2][2]"
        },
        {
          "internalType": "uint256[2]",
          "name": "_pC",
          "type": "uint256[2]"
        },
        {
          "internalType": "bytes32",
          "name": "_merkleRoot",
          "type": "bytes32"
        },
        {
          "internalType": "bytes32",
          "name": "_nullifierHash",
          "type": "bytes32"
        },
        {
          "internalType": "bytes32",
          "name": "_voteCommitment",
          "type": "bytes32"
        }
      ],
      "name": "anonymousVote",
      "outputs": [],
      "stateMutability": "nonpayable",
      "type": "function"
    },
    {
      "inputs": [
        {
          "internalType": "address",
          "name": "",
          "type": "address"
        }
      ],
      "name": "authorizedOperators",
      "outputs": [
        {
          "internalType": "bool",
          "name": "",
          "type": "bool"
        }
      ],
      "stateMutability": "view",
      "type": "function"
    },
    {
      "inputs": [
        {
          "internalType": "uint256",
          "name": "_electionId",
          "type": "uint256"
        },
        {
          "internalType": "bytes32[]",
          "name": "_voterIdentifiers",
          "type": "bytes32[]"
        }
      ],
      "name": "batchRegisterVoters",
      "outputs": [],
      "stateMutability": "nonpayable",
      "type": "function"
    },
    {
      "inputs": [
        {
          "internalType": "string",
          "name": "_title",
          "type": "string"
        },
        {
          "internalType": "string",
          "name": "_description",
          "type": "string"
        },
        {
          "internalType": "uint256",
          "name": "_startTime",
          "type": "uint256"
        },
        {
          "internalType": "uint256",
          "name": "_endTime",
          "type": "uint256"
        },
        {
          "internalType": "string[]",
          "name": "_candidateNames",
          "type": "string[]"
        }
      ],
      "name": "createElection",
      "outputs": [
        {
          "internalType": "uint256",
          "name": "",
          "type": "uint256"
        }
      ],
      "stateMutability": "nonpayable",
      "type": "function"
    },
    {
      "inputs": [],
      "name": "electionCount",
      "outputs": [
        {
          "internalType": "uint256",
          "name": "",
          "type": "uint256"
        }
      ],
      "stateMutability": "view",
      "type": "function"
    },
    {
      "inputs": [
        {
          "internalType": "uint256",
          "name": "",
          "type": "uint256"
        }
      ],
      "name": "elections",
      "outputs": [
        {
          "internalType": "string",
          "name": "title",
          "type": "string"
        },
        {
          "internalType": "string",
          "name": "description",
          "type": "string"
        },
        {
          "internalType": "uint256",
          "name": "startTime",
          "type": "uint256"
        },
        {
          "internalType": "uint256",
          "name": "endTime",
          "type": "uint256"
        },
        {
          "internalType": "bool",
          "name": "isActive",
          "type": "bool"
        },
        {
          "internalType": "uint256",
          "name": "candidateCount",
          "type": "uint256"
        },
        {
          "internalType": "uint256",
          "name": "totalVotes",
          "type": "uint256"
        },
        {
          "internalType": "uint256",
          "name": "registeredVoterCount",
          "type": "uint256"
        },
        {
          "internalType": "bool",
          "name": "resultsFinalized",
          "type": "bool"
        },
        {
          "internalType": "address",
          "name": "creator",
          "type": "address"
        },
        {
          "internalType": "uint256",
          "name": "createdAt",
          "type": "uint256"
        },
        {
          "internalType": "uint256",
          "name": "updatedAt",
          "type": "uint256"
        },
        {
          "internalType": "bytes32",
          "name": "merkleRoot",
          "type": "bytes32"
        }
      ],
      "stateMutability": "view",
      "type": "function"
    },
    {
      "inputs": [
        {
          "internalType": "uint256",
          "name": "_electionId",
          "type": "uint256"
        }
      ],
      "name": "endElection",
      "outputs": [],
      "stateMutability": "nonpayable",
      "type": "function"
    },
    {
      "inputs": [
        {
          "internalType": "uint256",
          "name": "_electionId",
          "type": "uint256"
        }
      ],
      "name": "finalizeResults",
      "outputs": [],
      "stateMutability": "nonpayable",
      "type": "function"
    },
    {
      "inputs": [
        {
          "internalType": "uint256",
          "name": "_electionId",
          "type": "uint256"
        },
        {
          "internalType": "uint256",
          "name": "_candidateId",
          "type": "uint256"
        }
      ],
      "name": "getCandidate",
      "outputs": [
        {
          "internalType": "string",
          "name": "",
          "type": "string"
        },
        {
          "internalType": "string",
          "name": "",
          "type": "string"
        },
        {
          "internalType": "uint256",
          "name": "",
          "type": "uint256"
        }
      ],
      "stateMutability": "view",
      "type": "function"
    },
    {
      "inputs": [
        {
          "internalType": "uint256",
          "name": "_electionId",
          "type": "uint256"
        }
      ],
      "name": "getElectionResults",
      "outputs": [
        {
          "internalType": "uint256[]",
          "name": "",
          "type": "uint256[]"
        }
      ],
      "stateMutability": "view",
      "type": "function"
    },
    {
      "inputs": [
        {
          "internalType": "uint256",
          "name": "_electionId",
          "type": "uint256"
        }
      ],
      "name": "getElectionSummary",
      "outputs": [
        {
          "components": [
            {
              "internalType": "uint256",
              "name": "id",
              "type": "uint256"
            },
            {
              "internalType": "string",
              "name": "title",
              "type": "string"
            },
            {
              "internalType": "string",
              "name": "description",
              "type": "string"
            },
            {
              "internalType": "uint256",
              "name": "startTime",
              "type": "uint256"
            },
            {
              "internalType": "uint256",
              "name": "endTime",
              "type": "uint256"
            },
            {
              "internalType": "bool",
              "name": "isActive",
              "type": "bool"
            },
            {
              "internalType": "uint256",
              "name": "candidateCount",
              "type": "uint256"
            },
            {
              "internalType": "uint256",
              "name": "totalVotes",
              "type": "uint256"
            },
            {
              "internalType": "bool",
              "name": "resultsFinalized",
              "type": "bool"
            },
            {
              "internalType": "address",
              "name": "creator",
              "type": "address"
            },
            {
              "internalType": "uint256",
              "name": "createdAt",
              "type": "uint256"
            },
            {
              "internalType": "uint256",
              "name": "updatedAt",
              "type": "uint256"
            }
          ],
          "internalType": "struct VotingSystem.ElectionSummary",
          "name": "",
          "type": "tuple"
        }
      ],
      "stateMutability": "view",
      "type": "function"
    },
    {
      "inputs": [
        {
          "internalType": "uint256",
          "name": "_electionId",
          "type": "uint256"
        }
      ],
      "name": "getRegisteredVoterCount",
      "outputs": [
        {
          "internalType": "uint256",
          "name": "",
          "type": "uint256"
        }
      ],
      "stateMutability": "view",
      "type": "function"
    },
    {
      "inputs": [
        {
          "internalType": "uint256",
          "name": "_electionId",
          "type": "uint256"
        }
      ],
      "name": "getVotedCount",
      "outputs": [
        {
          "internalType": "uint256",
          "name": "",
          "type": "uint256"
        }
      ],
      "stateMutability": "view",
      "type": "function"
    },
    {
      "inputs": [
        {
          "internalType": "uint256",
          "name": "_electionId",
          "type": "uint256"
        },
        {
          "internalType": "bytes32",
          "name": "_voterIdentifier",
          "type": "bytes32"
        }
      ],
      "name": "getVoterDetails",
      "outputs": [
        {
          "internalType": "bool",
          "name": "isRegistered",
          "type": "bool"
        }
      ],
      "stateMutability": "view",
      "type": "function"
    },
    {
      "inputs": [
        {
          "internalType": "uint256",
          "name": "_electionId",
          "type": "uint256"
        },
        {
          "internalType": "bytes32",
          "name": "_voterIdentifier",
          "type": "bytes32"
        }
      ],
      "name": "getVoterStatus",
      "outputs": [
        {
          "internalType": "bool",
          "name": "isRegistered",
          "type": "bool"
        }
      ],
      "stateMutability": "view",
      "type": "function"
    },
    {
      "inputs": [
        {
          "internalType": "uint256",
          "name": "_electionId",
          "type": "uint256"
        },
        {
          "internalType": "bytes32",
          "name": "_nullifierHash",
          "type": "bytes32"
        }
      ],
      "name": "hasVoted",
      "outputs": [
        {
          "internalType": "bool",
          "name": "",
          "type": "bool"
        }
      ],
      "stateMutability": "view",
      "type": "function"
    },
    {
      "inputs": [
        {
          "internalType": "uint256",
          "name": "_electionId",
          "type": "uint256"
        },
        {
          "internalType": "bytes32",
          "name": "_voterIdentifier",
          "type": "bytes32"
        }
      ],
      "name": "isRegisteredVoter",
      "outputs": [
        {
          "internalType": "bool",
          "name": "",
          "type": "bool"
        }
      ],
      "stateMutability": "view",
      "type": "function"
    },
    {
      "inputs": [],
      "name": "owner",
      "outputs": [
        {
          "internalType": "address",
          "name": "",
          "type": "address"
        }
      ],
      "stateMutability": "view",
      "type": "function"
    },
    {
      "inputs": [
        {
          "internalType": "uint256",
          "name": "_electionId",
          "type": "uint256"
        },
        {
          "internalType": "bytes32",
          "name": "_voterIdentifier",
          "type": "bytes32"
        }
      ],
      "name": "registerVoter",
      "outputs": [],
      "stateMutability": "nonpayable",
      "type": "function"
    },
    {
      "inputs": [
        {
          "internalType": "address",
          "name": "_operator",
          "type": "address"
        }
      ],
      "name": "removeOperator",
      "outputs": [],
      "stateMutability": "nonpayable",
      "type": "function"
    },
    {
      "inputs": [
        {
          "internalType": "uint256",
          "name": "_electionId",
          "type": "uint256"
        },
        {
          "internalType": "bytes32",
          "name": "_voterIdentifier",
          "type": "bytes32"
        }
      ],
      "name": "removeVoter",
      "outputs": [],
      "stateMutability": "nonpayable",
      "type": "function"
    },
    {
      "inputs": [],
      "name": "renounceOwnership",
      "outputs": [],
      "stateMutability": "nonpayable",
      "type": "function"
    },
    {
      "inputs": [
        {
          "internalType": "uint256",
          "name": "_electionId",
          "type": "uint256"
        },
        {
          "internalType": "uint256",
          "name": "_candidateId",
          "type": "uint256"
        },
        {
          "internalType": "bytes32",
          "name": "_voteCommitment",
          "type": "bytes32"
        }
      ],
      "name": "revealVote",
      "outputs": [],
      "stateMutability": "nonpayable",
      "type": "function"
    },
    {
      "inputs": [
        {
          "internalType": "uint256",
          "name": "_electionId",
          "type": "uint256"
        },
        {
          "internalType": "bytes32",
          "name": "_merkleRoot",
          "type": "bytes32"
        }
      ],
      "name": "setMerkleRoot",
      "outputs": [],
      "stateMutability": "nonpayable",
      "type": "function"
    },
    {
      "inputs": [
        {
          "internalType": "address",
          "name": "_verifierAddress",
          "type": "address"
        }
      ],
      "name": "setVerifier",
      "outputs": [],
      "stateMutability": "nonpayable",
      "type": "function"
    },
    {
      "inputs": [
        {
          "internalType": "address",
          "name": "newOwner",
          "type": "address"
        }
      ],
      "name": "transferOwnership",
      "outputs": [],
      "stateMutability": "nonpayable",
      "type": "function"
    },
    {
      "inputs": [
        {
          "internalType": "uint256",
          "name": "_electionId",
          "type": "uint256"
        },
        {
          "internalType": "uint256",
          "name": "_candidateId",
          "type": "uint256"
        },
        {
          "internalType": "string",
          "name": "_name",
          "type": "string"
        },
        {
          "internalType": "string",
          "name": "_description",
          "type": "string"
        }
      ],
      "name": "updateCandidate",
      "outputs": [],
      "stateMutability": "nonpayable",
      "type": "function"
    },
    {
      "inputs": [
        {
          "internalType": "uint256",
          "name": "_electionId",
          "type": "uint256"
        },
        {
          "internalType": "string",
          "name": "_title",
          "type": "string"
        },
        {
          "internalType": "string",
          "name": "_description",
          "type": "string"
        }
      ],
      "name": "updateElection",
      "outputs": [],
      "stateMutability": "nonpayable",
      "type": "function"
    },
    {
      "inputs": [],
      "name": "verifier",
      "outputs": [
        {
          "internalType": "contract IVerifier",
          "name": "",
          "type": "address"
        }
      ],
      "stateMutability": "view",
      "type": "function"
    }
  ],
  "bytecode": "0x6080806040523461005f5760008054336001600160a01b0319821681178355906001600160a01b03167f8be0079c531659141344cd1fd0a4f28419497f9722a3daafe3b4186f6b6457e08380a380600255600555613eb990816100658239f35b600080fdfe6080604052600436101561001257600080fd5b60003560e01c8063064e6b2e146131405780631064d9441461291b57806312fe885d14612fbe5780631750a3d014612f21578063181d989b14612ede57806318712c2114612d875780631978e0d314612bdf5780631b441c9c14612bc25780631d2cd6441461294b578063247b0cc11461291b5780632b7ac3f3146128f25780634bd46448146128305780635437988d1461275a5780635b6a2da61461273c5780635e6fef0114612634578063715018a6146125db57806374417bf41461253257806377de959f14611e125780638da5cb5b14611de95780639870d7fe14611cd6578063997d283014611cb85780639c98bcbb14611b97578063ac8a584a14611ace578063b51817f014611ab2578063c55cc4e414611a76578063c7cc2fd214611707578063c85407bb146116b4578063d2bd1738146114f3578063d48653f514610e9f578063d9148f7314610caa578063e6c62efc1461082c578063e8ededa614610695578063f2fde38b146105ca578063f63ff3d21461058e5763f9abea2f1461019d57600080fd5b34610589576080366003190112610589576001600160401b03602435600435604435838111610589576101d49036906004016134e5565b606435848111610589576101ec9036906004016134e5565b6000546001600160a01b031633148015610570575b61020a906136ec565b6102176002548410613848565b8260005260019060209582875261023760026040600020015442106138a0565b8460005282875261025360ff600a604060002001541615613cda565b8460005282875261026d6006604060002001548710613d32565b8351610458575b81516102cb575b50507fb6e51b6b69e8c7a28ecf62a3e7202f4c8cbf6f0360b70b5055762bec1cfd892a916102c69184600052865242600c60406000200155604051918291878352339783019061353b565b0390a4005b84600052828752600560406000200186600052875282604060002001918051918211610442576102fb835461357b565b601f81116103f9575b508790601f831160011461036d5791807fb6e51b6b69e8c7a28ecf62a3e7202f4c8cbf6f0360b70b5055762bec1cfd892a9694926102c69694600092610362575b5050600019600383901b1c191690831b1790555b9181935061027b565b015190503880610345565b90601f1983169184600052896000209260005b8b8282106103e557505092869491926102c69793837fb6e51b6b69e8c7a28ecf62a3e7202f4c8cbf6f0360b70b5055762bec1cfd892a9a9896106103cc575b505050811b019055610359565b015160001960f88460031b161c191690553880806103bf565b838501518655948801949384019301610380565b8360005288600020601f840160051c8101918a8510610438575b601f0160051c019085905b82811061042c575050610304565b6000815501859061041e565b9091508190610413565b634e487b7160e01b600052604160045260246000fd5b8460005282875260056040600020018660005287526040600020845182811161044257610485825461357b565b601f8111610527575b508089601f82116001146104c6576000916104bb575b50600019600383901b1c191690851b179055610274565b9050860151386104a4565b869250601f19821690846000528b6000209160005b8d82821061051157505083116104f8575b5050811b019055610274565b88015160001960f88460031b161c1916905538806104ec565b838c015185558a969094019392830192016104db565b8260005289600020601f830160051c8101918b8410610566575b601f0160051c019086905b82811061055a57505061048e565b6000815501869061054c565b9091508190610541565b503360009081526003602052604090205460ff16610201565b600080fd5b34610589576020366003190112610589576004356105af6002548210613848565b60005260016020526020600960406000200154604051908152f35b34610589576020366003190112610589576004356001600160a01b0381811691829003610589576105f9613694565b811561064157600054826bffffffffffffffffffffffff60a01b821617600055167f8be0079c531659141344cd1fd0a4f28419497f9722a3daafe3b4186f6b6457e0600080a3005b60405162461bcd60e51b815260206004820152602660248201527f4f776e61626c653a206e6577206f776e657220697320746865207a65726f206160448201526564647265737360d01b6064820152608490fd5b346105895760208060031936011261058957600435906002916106ba83548210613848565b8060005260019283835260ff600a6040600020015416801561081b575b156107c6578383836000528181526006928360406000200154936107136106fd866134b8565b9561070b6040519788613497565b8087526134b8565b8584019690601f19013688376000855b610764575b5050505060405192818401908285525180915260408401949160005b8281106107515785870386f35b8351875295810195928101928401610744565b9085979592918160009896985283885282604060002001548110156107ba576107ad90600560406000200181600052895285604060002001546107a7828961381e565b5261380f565b9091929597969496610723565b50969496959395610728565b60405162461bcd60e51b815260048101849052602760248201527f566f74696e6753797374656d3a20726573756c7461646f73206e6f20646973706044820152666f6e69626c657360c81b6064820152608490fd5b5060036040600020015442116106d7565b346105895761083a3661364b565b9060018060a01b036000541633148015610c91575b610858906136ec565b6108656002548410613848565b82600052600160205261088160026040600020015442106138a0565b82600052600160205261089f60ff600a604060002001541615613cda565b805115610c37576108b28251151561379c565b82600052600160205260646006604060002001541015610bdd5782600052600160205260066040600020015491604051906108ec82613461565b82825260208201526000604082015242606082015283600052600160205260056040600020018360005260205260406000209080518051906001600160401b03821161044257819061093e855461357b565b601f8111610b8d575b50602090601f8311600114610b2757600092610b1c575b50508160011b916000199060031b1c19161782555b6001820160208201518051906001600160401b03821161044257610997835461357b565b601f8111610ad4575b509160209793918795938990601f8311600114610a665791806060949260039694600092610a5b575b50508160011b9160001990871b1c19161790555b60408101516002850155015191015580600052600185526006604060002001610a06815461380f565b9055806000526001855242600c604060002001557f215b7e673452bf74f22ff23e0ceae9bb39a67a2ab41e8213510b47f2dafda7db60405186815280610a5033968983019061353b565b0390a4604051908152f35b015190508c806109c9565b90601f19831691846000528b6000209260005b818110610aba5750926001928592600398966060989610610aa2575b505050811b0190556109dd565b015160001983891b60f8161c191690558c8080610a95565b8284015185558c9a50600190940193928d01928d01610a79565b836000526020600020601f840160051c81019160208510610b12575b601f0160051c01905b818110610b0657506109a0565b60008155600101610af9565b9091508190610af0565b01519050878061095e565b6000868152602081209350601f198516905b818110610b755750908460019594939210610b5c575b505050811b018255610973565b015160001960f88460031b161c19169055878080610b4f565b92936020600181928786015181550195019301610b39565b909150846000526020600020601f840160051c810160208510610bd6575b90849392915b601f830160051c82018110610bc7575050610947565b60008155859450600101610bb1565b5080610bab565b60405162461bcd60e51b815260206004820152602c60248201527f566f74696e6753797374656d3a206c696d6974652064652063616e646964617460448201526b6f7320616c63616e7a61646f60a01b6064820152608490fd5b60405162461bcd60e51b815260206004820152602c60248201527f566f74696e6753797374656d3a20656c206e6f6d627265206e6f20707565646560448201526b20657374617220766163696f60a01b6064820152608490fd5b503360009081526003602052604090205460ff1661084f565b34610589576020366003190112610589576004356000610160604051610ccf81613445565b82815260606020820152606060408201528260608201528260808201528260a08201528260c08201528260e08201528261010082015282610120820152826101408201520152610d226002548210613848565b80600052600160205260406000206002810154600382015460ff6004840154166006840154600785015491600a86015493600b870154956001610da0600c8a0154996040519b610d718d613445565b8c52604051610d8b81610d8481856135b5565b0382613497565b60208d0152610d8460405180948193016135b5565b60408a015260608901526080880152151560a087015260c086015260e085015260ff8116151561010085015260018060a01b039060081c1661012084015261014083015261016082015260405180916020825280516020830152610160610e31610e1b602084015161018060408701526101a086019061353b565b6040840151858203601f1901606087015261353b565b9160608101516080850152608081015160a085015260a0810151151560c085015260c081015160e085015260e0810151610100850152610100810151151561012085015260018060a01b03610120820151166101408501526101408101518285015201516101808301520390f35b346105895761018036600319011261058957366043121561058957604051610ec68161347c565b606481368211610589576024905b8282106114e357505036608312156105895760405191610ef38361347c565b60e4833682116105895783905b8282106114925750503661010312156105895760405190610f208261347c565b816101249136831161058957905b828210611482575050610f4660025460043510613848565b600435600052600160205260ff600460406000200154161561142757600435600052600160205260026040600020015442106113cd576004356000526001602052600360406000200154421161137957610fa260055415613744565b60016005556004546001600160a01b0316918215611324576004356000526001602052604060002095600d87015480156112ba5783350361126b5761014435600052600e870160205260ff6040600020541661120157604051928360608101106001600160401b036060860111176104425790839291606061105797950160405260603685373583526101443560208401526101643560408401526040519586946308a3cff560e11b86526004860190613e2d565b6000604485015b600282106111db575050506110779060c4840190613e2d565b600061010483015b600382106111c157505050610164816020935afa9081156111b55760009161117a575b5015611138575061014435600052600e8101602052604060002060ff199060018282541617905561016435600052600f82016020526001604060002091825416179055600781016110f3815461380f565b9055600c4291015560405161016435815261014435907f28de4266d9c8895caca0bf78416d213805a2fe7314ab3a5da163dada0f8d730b602060043592a36000600555005b60405162461bcd60e51b815260206004820181905260248201527f566f74696e6753797374656d3a20507275656261205a4b20696e76616c6964616044820152fd5b90506020813d6020116111ad575b8161119560209383613497565b810103126105895751801515810361058957836110a2565b3d9150611188565b6040513d6000823e3d90fd5b82935060208091600193945181520193019101849261107f565b82939495506040816111f36020936001959651613e2d565b01930191018694939261105e565b60405162461bcd60e51b815260206004820152603f60248201527f566f74696e6753797374656d3a20566f746f20796120656d697469646f20636f60448201527f6e2065737465206e756c6966696361646f722028646f626c6520766f746f290081880152608490fd5b60405162461bcd60e51b815260206004820152602260248201527f566f74696e6753797374656d3a204d65726b6c6520726f6f7420696e76616c69604482015261646f60f01b81880152608490fd5b60405162461bcd60e51b815260206004820152603960248201527f566f74696e6753797374656d3a204d65726b6c6520726f6f74206e6f2065737460448201527f61626c656369646f2070617261206c6120656c656363696f6e0000000000000081890152608490fd5b60405162461bcd60e51b815260206004820152602860248201527f566f74696e6753797374656d3a205665726966696361646f72206e6f20636f6e604482015267666967757261646f60c01b81870152608490fd5b60405162461bcd60e51b815260206004820152602760248201527f566f74696e6753797374656d3a206c6120656c656363696f6e2068612066696e604482015266616c697a61646f60c81b81860152608490fd5b60405162461bcd60e51b815260206004820152602d60248201527f566f74696e6753797374656d3a206c6120656c656363696f6e2061756e206e6f60448201526c20686120636f6d656e7a61646f60981b81860152608490fd5b60405162461bcd60e51b815260206004820152602e60248201527f566f74696e6753797374656d3a206c6120656c656363696f6e206e6f20656e6360448201526d6f6e74726164612061637469766160901b81860152608490fd5b8135815260209182019101610f2e565b36601f83011215610589576040516114a98161347c565b80604084013681116105895784915b8183106114d357505050816020916040935201910190610f00565b82358152602092830192016114b8565b8135815260209182019101610ed4565b3461058957611501366134cf565b6000546001600160a01b03163314801561169b575b61151f906136ec565b61152c6002548310613848565b61153860055415613744565b60018060055582600052602081815261155b60ff60046040600020015416613d7d565b611566831515613dc9565b83600052818152600860406000200183600052815260ff6040600020541661163157604051818101908082106001600160401b03831117610442576115d99160405283815285600052838352600860406000200185600052835260406000209051151560ff801983541691151516179055565b8360005281815260096040600020016115f2815461380f565b9055836000525242600c6040600020015533917f82350ffb4cfd6cffada59ac532ab28a3129cde41d8589863d8f6adfd91a899ea600080a46000600555005b6084906040519062461bcd60e51b82526004820152603a60248201527f566f74696e6753797374656d3a20766f74616e7465207961207265676973747260448201527f61646f20636f6e2065737465206964656e746966696361646f720000000000006064820152fd5b503360009081526003602052604090205460ff16611516565b34610589576116c2366134cf565b906116d06002548210613848565b6116db821515613dc9565b6000526001602052600860406000200190600052602052602060ff604060002054166040519015158152f35b34610589576117153661364b565b909160018060a01b036000541633148015611a5d575b611734906136ec565b6117416002548210613848565b8060005260019260209380855261176160026040600020015442106138a0565b8260005280855260406000209180519081611948575b5050835193846117f2575b507f87649461dacf4d8645f796b6fe7bfba3007117716d377d4579e4057cdc4b6e9d92935042600c8301556117df60028301549560038401549260405194608086526117d160808701826135b5565b9286840390870152016135b5565b94604083015260608201528033940390a3005b818301906001600160401b0386116104425761180e825461357b565b601f81116118ff575b508690601f8711600114611879579580917f87649461dacf4d8645f796b6fe7bfba3007117716d377d4579e4057cdc4b6e9d969760009261186e575b5050600019600383901b1c191690831b1790555b8392611782565b015190508880611853565b90601f1987169183600052886000209260005b8a8282106118eb57505091859391897f87649461dacf4d8645f796b6fe7bfba3007117716d377d4579e4057cdc4b6e9d999a94106118d2575b505050811b019055611867565b015160001960f88460031b161c191690558880806118c5565b83850151865594870194938401930161188c565b8260005287600020601f880160051c81019189891061193e575b601f0160051c019084905b828110611932575050611817565b60008155018490611924565b9091508190611919565b6001600160401b038211610442578190611962855461357b565b601f8111611a0a575b508790601f83116001146119a75760009261199c575b5050600019600383901b1c191690821b1782555b8580611777565b015190508780611981565b90849350601f1983169186600052896000209260005b8b8282106119f457505084116119db575b505050811b018255611995565b015160001960f88460031b161c191690558780806119ce565b83850151865588979095019493840193016119bd565b9091508460005287600020601f840160051c810191898510611a53575b84939291601f87920160051c01915b828110611a4457505061196b565b60008155859450869101611a36565b9091508190611a27565b503360009081526003602052604090205460ff1661172b565b3461058957602036600319011261058957600435611a976002548210613848565b60005260016020526020600760406000200154604051908152f35b3461058957600036600319011261058957602060405160648152f35b34610589576020366003190112610589576004356001600160a01b0381169081900361058957611afc613694565b80600052600360205260ff6040600020541615611b5257806000526003602052604060002060ff19815416905533907f17d7f044d47e4fae1701f86266d0a674db3f792671bd1b974ace77a09af1c827600080a3005b60405162461bcd60e51b815260206004820152601c60248201527f566f74696e6753797374656d3a206e6f206573206f70657261646f72000000006044820152606490fd5b34610589576020806003193601126105895760043560018060a01b036000541633148015611ca0575b611bc9906136ec565b611bd66002548210613848565b806000526001825260ff6004604060002001541615611c48578060005260018252600460406000200160ff1981541690554260036040600020015542600c604060002001557fc320ad245cbb75af6bc33306823df83424412ec171e460708cb5d30e80d40e45604051924284523393a3005b60405162461bcd60e51b815260048101839052602a60248201527f566f74696e6753797374656d3a206c6120656c656363696f6e207961206573746044820152696120696e61637469766160b01b6064820152608490fd5b5033600090815260038352604090205460ff16611bc0565b34610589576000366003190112610589576020600254604051908152f35b3461058957602080600319360112610589576004356001600160a01b038116919082900361058957611d06613694565b8115611da657816000526003815260ff60406000205416611d625760039082600052526040600020600160ff1982541617905533907f0780dc183feb0e4f9714cd802b3c0a21894b7ccb4172c992569d2acb5d45f91c600080a3005b6064906040519062461bcd60e51b82526004820152601c60248201527f566f74696e6753797374656d3a207961206573206f70657261646f72000000006044820152fd5b6064906040519062461bcd60e51b825280600483015260248201527f566f74696e6753797374656d3a20646972656363696f6e20696e76616c6964616044820152fd5b34610589576000366003190112610589576000546040516001600160a01b039091168152602090f35b346105895760a0366003190112610589576004356001600160401b03811161058957611e429036906004016134e5565b6024356001600160401b03811161058957611e619036906004016134e5565b6084918235906001600160401b0382116105895736602383011215610589578160040135611e8e816134b8565b92611e9c6040519485613497565b8184526024602085019260051b820101903682116105895760248101925b828410612503575050505060018060a01b0360005416331480156124ea575b611ee2906136ec565b611eee60055415613744565b600160055580511561249157611f068351151561379c565b6044904282351115612430576064948235863511156123bc57610e10611f2e84358835613802565b106123795762278d00611f4384358835613802565b11612336576001845111156122db578584511161228f57506002549384600052600160205260406000209082516001600160401b03811161044257611f88835461357b565b601f811161224b575b50806020601f82116001146121e7576000916121dc575b508160011b916000199060031b1c19161782555b8051906001600160401b03821161044257611fda600184015461357b565b601f8111612195575b50602090601f831160011461212157918060009492600d948692612116575b50508160011b9185199060031b1c19161760018201555b843560028201558735600382015560048101600160ff19825416179055826006820155826007820155826009820155600a81018054610100600160a81b033360081b16906affffffffffffffffffffff60a81b1617905542600b82015542600c820155015561208960025461380f565b60025560005b83518110156120ba57806120b06120a96120b5938761381e565b51876138fe565b61380f565b61208f565b60208584817f13ac008e0cdce4387b5f85e53dd6fd03c11f7170f920652af23fea8321705596868b6120f76040519260608452606084019061353b565b9435878301523560408201528033940390a36000600555604051908152f35b015190508a80612002565b906001840160005260206000209160005b601f198516811061217d57509260009492600192600d9583601f19811610612165575b505050811b016001820155612019565b0151861960f88460031b161c191690558a8080612155565b91926020600181928685015181550194019201612132565b600184016000526020600020601f840160051c8101602085106121d5575b601f830160051c820181106121c9575050611fe3565b600081556001016121b3565b50806121b3565b905084015189611fa8565b6000858152602081209250601f198416905b8181106122335750908360019493921061221a575b5050811b018255611fbc565b86015160001960f88460031b161c19169055898061220e565b9192602060018192868b0151815501940192016121f9565b836000526020600020601f830160051c810160208410612288575b601f830160051c8201811061227c575050611f91565b60008155600101612266565b5080612266565b60405162461bcd60e51b815260206004820152602360248201527f566f74696e6753797374656d3a2064656d61736961646f732063616e646964618185015262746f7360e81b81880152fd5b60405162461bcd60e51b815260206004820152603260248201527f566f74696e6753797374656d3a2073652072657175696572656e20616c206d6581850152716e6f7320646f732063616e64696461746f7360701b81880152fd5b60405162461bcd60e51b815260206004820181905260248201527f566f74696e6753797374656d3a206475726163696f6e206d7579206c61726761818501528690fd5b60405162461bcd60e51b815260206004820181905260248201527f566f74696e6753797374656d3a206475726163696f6e206d757920636f727461818501528690fd5b826263696f60e81b60a4927f652073657220706f73746572696f722061206c6120686f726120646520696e69897f566f74696e6753797374656d3a206c6120686f72612064652066696e206465626040519562461bcd60e51b87526020600488015260436024880152860152840152820152fd5b60405162461bcd60e51b815260206004820152603560248201527f566f74696e6753797374656d3a206c6120686f726120646520696e6963696f208184015274646562652073657220656e20656c2066757475726f60581b60648201528590fd5b60405162461bcd60e51b815260206004820152602c60248201527f566f74696e6753797374656d3a20656c20746974756c6f206e6f20707565646560448201526b20657374617220766163696f60a01b60648201528490fd5b503360009081526003602052604090205460ff16611ed9565b83356001600160401b038111610589576020916125278392602436918701016134e5565b815201930192611eba565b3461058957612540366134cf565b9061254e6002548210613848565b8115612580576000526001602052600e60406000200190600052602052602060ff604060002054166040519015158152f35b60405162461bcd60e51b815260206004820152602d60248201527f566f74696e6753797374656d3a206e756c6c696669657248617368206e6f207060448201526c7565646520736572206365726f60981b6064820152608490fd5b34610589576000366003190112610589576125f4613694565b600080546001600160a01b0319811682556001600160a01b03167f8be0079c531659141344cd1fd0a4f28419497f9722a3daafe3b4186f6b6457e08280a3005b346105895760203660031901126105895760043560005260016020526126d76040600020604051906126718261266a81846135b5565b0383613497565b60405161268581610d8481600186016135b5565b600282015491600381015460ff60048301541660068301546007840154600985015491600a86015493600b870154956126e5600d600c8a0154990154996040519d8e9d8e6101a090818152019061353b565b8d810360208f01529061353b565b60408c019a909a5260608b0152151560808a015260a089015260c088015260e087015260ff8116151561010087015260081c6001600160a01b03166101208601526101408501526101608401526101808301520390f35b3461058957600036600319011261058957602060405162278d008152f35b34610589576020366003190112610589576004356001600160a01b0381169081900361058957612788613694565b80156127d4576020817f480b37e3d134e44cb444c9703493c7db564c707cb8a18cecea165f340431da1f926bffffffffffffffffffffffff60a01b6004541617600455604051908152a1005b60405162461bcd60e51b815260206004820152602e60248201527f566f74696e6753797374656d3a20646972656363696f6e20696e76616c69646160448201526d103830b930903b32b934b334b2b960911b6064820152608490fd5b3461058957604036600319011261058957600435602435906128556002548210613848565b8060005260016020526128716006604060002001548310613d32565b60005260016020526005604060002001906000526020526128da604060002060028101546128e860016128c6604051946128b6866128af81846135b5565b0387613497565b610d8460405180948193016135b5565b60405194859460608652606086019061353b565b90848203602086015261353b565b9060408301520390f35b34610589576000366003190112610589576004546040516001600160a01b039091168152602090f35b3461058957602061294161292e366134cf565b9061293c6002548210613848565b613e55565b6040519015158152f35b346105895760603660031901126105895760043560243590604435906129746002548210613848565b61298060055415613744565b60016005558060005260206001815260406000209360ff600a86015416612b63576006850154811015612b205783600052600f8501825260ff6040600020541615612ab55760108501948460005285835260ff60406000205416612a4a577f28cc31696aa888aa6307052c35b2af96e0ecff781b9f6cff96b93d86be35210a939495826000526005820184526002604060002001612a1e815461380f565b90558660005283526040600020600160ff19825416179055600c42910155604051908152a36000600555005b60405162461bcd60e51b815260048101849052603960248201527f566f74696e6753797374656d3a204573746520636f6d70726f6d69736f20646560448201527f20766f746f207961206861207369646f20726576656c61646f000000000000006064820152608490fd5b60405162461bcd60e51b815260048101839052603960248201527f566f74696e6753797374656d3a20436f6d70726f6d69736f20646520766f746f60448201527f20696e76616c69646f206f206e6f20656e636f6e747261646f000000000000006064820152608490fd5b6064826040519062461bcd60e51b825280600483015260248201527f566f74696e6753797374656d3a2043616e64696461746f20696e76616c69646f6044820152fd5b60405162461bcd60e51b815260048101839052603160248201527f566f74696e6753797374656d3a204c6f7320726573756c7461646f7320796120604482015270657374616e2066696e616c697a61646f7360781b6064820152608490fd5b34610589576000366003190112610589576020604051610e108152f35b34610589576020806003193601126105895760043560018060a01b036000541633148015612d6f575b612c11906136ec565b612c1e6002548210613848565b806000526001825260ff60046040600020015416158015612d5e575b15612d0757806000526001825260ff600a6040600020015416612cb2578060005260018252600a604060002001600160ff1982541617905542600c604060002001557f7a30f32afb8d01f041903fe97047958da31a80da375ea2e6549e63d037f8cdf8600760406000200154926040519384523393a3005b60405162461bcd60e51b815260048101839052602760248201527f566f74696e6753797374656d3a20726573756c7461646f732079612066696e616044820152666c697a61646f7360c81b6064820152608490fd5b60405162461bcd60e51b815260048101839052602960248201527f566f74696e6753797374656d3a206c6120656c656363696f6e2061756e20657360448201526874612061637469766160b81b6064820152608490fd5b506003604060002001544211612c3a565b5033600090815260038352604090205460ff16612c08565b3461058957612d95366134cf565b6000546001600160a01b031633148015612ec5575b612db3906136ec565b612dc06002548310613848565b816000526001602052604060002090600d8201908154612e6f578015612e16577fb04b7d6145a7588fdcf339a22877d5965f861c171204fc37688058c5f6c06d3b928160209355600c42910155604051908152a2005b60405162461bcd60e51b815260206004820152602b60248201527f566f74696e6753797374656d3a204d65726b6c6520726f6f74206e6f2070756560448201526a646520736572206365726f60a81b6064820152608490fd5b60405162461bcd60e51b815260206004820152602860248201527f566f74696e6753797374656d3a204d65726b6c6520726f6f742079612065737460448201526761626c656369646f60c01b6064820152608490fd5b503360009081526003602052604090205460ff16612daa565b34610589576020366003190112610589576004356001600160a01b03811690819003610589576000526003602052602060ff604060002054166040519015158152f35b34610589576040366003190112610589576024356004356001600160401b03821161058957612f57612fa39236906004016134e5565b9060018060a01b036000541633148015612fa5575b612f75906136ec565b612f826002548210613848565b806000526001602052612f9e60026040600020015442106138a0565b6138fe565b005b503360009081526003602052604090205460ff16612f6c565b3461058957612fcc366134cf565b6000546001600160a01b031633148015613127575b612fea906136ec565b612ff76002548310613848565b8160005260206001815261301460026040600020015442106138a0565b61301f821515613dc9565b826000526001815260086040600020018260005281526040600020805460ff8116156130bc5760ff19169055826000526001815260096040600020019081549182156130a657600192600019019055836000525242600c6040600020015533917ff6e3ca2d6cec67764d79fbe8d18f592e8e4b32eb4a27cb7ec441fb23551c844a600080a4005b634e487b7160e01b600052601160045260246000fd5b60405162461bcd60e51b815260048101849052603a60248201527f566f74696e6753797374656d3a20766f74616e7465206e6f207265676973747260448201527f61646f20636f6e2065737465206964656e746966696361646f720000000000006064820152608490fd5b503360009081526003602052604090205460ff16612fe1565b34610589576040366003190112610589576001600160401b03602480359060043590838311610589573660238401121561058957826004013592613183846134b8565b906131916040519283613497565b848252602094838684019160051b830101913683116105895784879101915b838310613435575050505060018060a01b03600054163314801561341d575b6131d8906136ec565b6131e56002548410613848565b6131f160055415613744565b600194856005558360005285855260ff906132158260046040600020015416613d7d565b606492838151116133c7576000885b613244575b8888886000525242600c604060002001556000600555600080f35b81518110156133c257613257818361381e565b518015613359579089959493929188600052868a52600880604060002001826000528b5285604060002054161561329e575b50506132949061380f565b9091929394613224565b9091929394959650604051908a820182811087821117613344578c98979695949261329494928a8e8e6132fa9560405282855260005252604060002001836000528d5260406000209051151560ff801983541691151516179055565b89600052878b526009604060002001613313815461380f565b905533908a7f82350ffb4cfd6cffada59ac532ab28a3129cde41d8589863d8f6adfd91a899ea600080a4908b613289565b89634e487b7160e01b60005260416004526000fd5b60405162461bcd60e51b8152600481018a90526037818901527f566f74696e6753797374656d3a20766f7465724964656e746966696572206e6f60448201527f20707565646520736572206365726f20656e206c6f746500000000000000000081880152608490fd5b613229565b60405162461bcd60e51b815260048101889052602a818701527f566f74696e6753797374656d3a2064656d61736961646f7320766f74616e74656044820152697320706f72206c6f746560b01b81860152608490fd5b5033600090815260038552604090205460ff166131cf565b82358152918101918791016131b0565b61018081019081106001600160401b0382111761044257604052565b608081019081106001600160401b0382111761044257604052565b604081019081106001600160401b0382111761044257604052565b90601f801991011681019081106001600160401b0382111761044257604052565b6001600160401b0381116104425760051b60200190565b6040906003190112610589576004359060243590565b81601f82011215610589578035906001600160401b0382116104425760405192613519601f8401601f191660200185613497565b8284526020838301011161058957816000926020809301838601378301015290565b919082519283825260005b848110613567575050826000602080949584010152601f8019910116010190565b602081830181015184830182015201613546565b90600182811c921680156135ab575b602083101461359557565b634e487b7160e01b600052602260045260246000fd5b91607f169161358a565b90600092918054916135c68361357b565b91828252600193848116908160001461362857506001146135e8575b50505050565b90919394506000526020928360002092846000945b8386106136145750505050010190388080806135e2565b8054858701830152940193859082016135fd565b9294505050602093945060ff191683830152151560051b010190388080806135e2565b606060031982011261058957600435916001600160401b03602435818111610589578361367a916004016134e5565b9260443591821161058957613691916004016134e5565b90565b6000546001600160a01b031633036136a857565b606460405162461bcd60e51b815260206004820152602060248201527f4f776e61626c653a2063616c6c6572206973206e6f7420746865206f776e65726044820152fd5b156136f357565b60405162461bcd60e51b815260206004820152602360248201527f566f74696e6753797374656d3a207265717569657265206175746f72697a616360448201526234b7b760e91b6064820152608490fd5b1561374b57565b60405162461bcd60e51b8152602060048201526024808201527f566f74696e6753797374656d3a207265656e7472616461206e6f207065726d696044820152637469646160e01b6064820152608490fd5b156137a357565b60405162461bcd60e51b815260206004820152603160248201527f566f74696e6753797374656d3a206c61206465736372697063696f6e206e6f20604482015270707565646520657374617220766163696160781b6064820152608490fd5b919082039182116130a657565b60001981146130a65760010190565b80518210156138325760209160051b010190565b634e487b7160e01b600052603260045260246000fd5b1561384f57565b60405162461bcd60e51b815260206004820152602360248201527f566f74696e6753797374656d3a206c6120656c656363696f6e206e6f2065786960448201526273746560e81b6064820152608490fd5b156138a757565b60405162461bcd60e51b815260206004820152602960248201527f566f74696e6753797374656d3a206c6120656c656363696f6e20796120686120604482015268636f6d656e7a61646f60b81b6064820152608490fd5b8060005260016020526040600020906006820154916064831015613c8057835115613c155760405161392f81613461565b848152604051602081018181106001600160401b038211176104425760405260008152602082015260006040820152426060820152836000526005820160205260406000209080518051906001600160401b038211610442578190613994855461357b565b601f8111613bc5575b50602090601f8311600114613b5957600092613b4e575b50508160011b916000199060031b1c19161782555b60208101518051906001600160401b038211610442576139ec600185015461357b565b601f8111613b07575b50602090601f8311600114613a9357918060039492606094600092613a88575b505060001982861b1c1916600191821b17908501555b6040810151600285015501519101556006613a488183015461380f565b9101557f215b7e673452bf74f22ff23e0ceae9bb39a67a2ab41e8213510b47f2dafda7db6040516020815280613a833396602083019061353b565b0390a4565b015190503880613a15565b906001850160005260206000209160005b601f1985168110613aef5750926003949260019260609583601f19811610613ad7575b505050811b016001850155613a2b565b015160001983881b60f8161c19169055388080613ac7565b91926020600181928685015181550194019201613aa4565b600185016000526020600020601f840160051c810160208510613b47575b601f830160051c82018110613b3b5750506139f5565b60008155600101613b25565b5080613b25565b0151905038806139b4565b9250846000526020600020906000935b601f1984168510613baa576001945083601f19811610613b91575b505050811b0182556139c9565b015160001960f88460031b161c19169055388080613b84565b81810151835560209485019460019093019290910190613b69565b909150846000526020600020601f840160051c810160208510613c0e575b90849392915b601f830160051c82018110613bff57505061399d565b60008155859450600101613be9565b5080613be3565b60405162461bcd60e51b815260206004820152603a60248201527f566f74696e6753797374656d3a20656c206e6f6d6272652064656c2063616e6460448201527f696461746f206e6f20707565646520657374617220766163696f0000000000006064820152608490fd5b60405162461bcd60e51b815260206004820152602c60248201527f566f74696e6753797374656d3a206d6178696d6f2064652063616e646964617460448201526b6f7320616c63616e7a61646f60a01b6064820152608490fd5b15613ce157565b60405162461bcd60e51b8152602060048201526024808201527f566f74696e6753797374656d3a20726573756c7461646f732066696e616c697a60448201526361646f7360e01b6064820152608490fd5b15613d3957565b606460405162461bcd60e51b815260206004820152602060248201527f566f74696e6753797374656d3a2063616e64696461746f20696e76616c69646f6044820152fd5b15613d8457565b60405162461bcd60e51b815260206004820152601f60248201527f566f74696e6753797374656d3a20656c656363696f6e20696e616374697661006044820152606490fd5b15613dd057565b60405162461bcd60e51b815260206004820152602f60248201527f566f74696e6753797374656d3a20766f7465724964656e746966696572206e6f60448201526e20707565646520736572206365726f60881b6064820152608490fd5b6000915b60028310613e3e57505050565b600190825181526020809101920192019190613e31565b613e60821515613dc9565b600052600160205260086040600020019060005260205260ff604060002054169056fea2646970667358221220702a3b470b8bba92c14f8cf9844de23464bbaa8325299131c80d0607c4a0275364736f6c63430008110033",
  "linkReferences": {},
  "deployedLinkReferences": {}
}