{
  "_format": "hh-sol-artifact-1",
  "contractName": "GeneratedVerifier",
  "sourceName": "contracts/GeneratedVerifier.sol",
  "abi": [
    {
      "inputs": [
        {
          "internalType": "uint256[2]",
          "name": "_alpha1",
          "type": "uint256[2]"
        },
        {
          "internalType": "uint256[2][2]",
          "name": "_beta2",
          "type": "uint256[2][2]"
        },
        {
          "internalType": "uint256[2][2]",
          "name": "_gamma2",
          "type": "uint256[2][2]"
        },
        {
          "internalType": "uint256[2][2]",
          "name": "_delta2",
          "type": "uint256[2][2]"
        },
        {
          "internalType": "uint256[2][]",
          "name": "_IC",
          "type": "uint256[2][]"
        }
      ],
      "stateMutability": "nonpayable",
      "type": "constructor"
    },
    {
      "inputs": [],
      "name": "PUBLIC_INPUT_COUNT",
      "outputs": [
        {
          "internalType": "uint256",
          "name": "",
          "type": "uint256"
        }
      ],
      "stateMutability": "view",
      "type": "function"
    },
    {
      "inputs": [
        {
          "internalType": "uint256[2]",
          "name": "_pA",
          "type": "uint256[2]"
        },
        {
          "internalType": "uint256[2][2]",
          "name": "_pB",
          "type": "uint256[2][2]"
        },
        {
          "internalType": "uint256[2]",
          "name": "_pC",
          "type": "uint256[2]"
        },
        {
          "internalType": "uint256[3]",
          "name": "_pubSignals",
          "type": "uint256[3]"
        }
      ],
      "name": "verifyProof",
      "outputs": [
        {
          "internalType": "bool",
          "name": "success",
          "type": "bool"
        }
      ],
      "stateMutability": "view",
      "type": "function"
    }
  ],
  "bytecode": "0x604060808152346103a0576107dc8038038061001a816103da565b9283398101906101e0818303126103a05761003582826103ff565b6100418385840161043f565b9261004f8160c0850161043f565b61005d82610140860161043f565b6101c08501516001600160401b03959192918682116103a057019583601f880112156103a0578651948686116103a55760209761009e898860051b016103da565b95898789815201908a829960061b840101928184116103a0578b808e9201935b858510610388575050505050506004968786510361032c5789519060a08201908111828210176103175786916080918c52838152848b820152858c820152866060820152015260005b600281106103075750506002906000905b600282106102d1575050506006906000905b6002821061029b57505050600a906000905b6002821061026557505050519168010000000000000000831161025057600e549083600e558184106101c4575b5050600e60005282600020926000915b83831061018e578551610351908161048b8239f35b81815160005b600281106101b057505060029060019201950192019193610179565b815188820155849290910190600101610194565b6001600160ff1b03828116830361023b57841684036102265750600e60005283600020600191821b81019084831b015b8181106102015750610169565b6002810183825b82811061021a575050506002016101f4565b60008155018490610208565b601190634e487b7160e01b6000525260246000fd5b601182634e487b7160e01b6000525260246000fd5b604190634e487b7160e01b6000525260246000fd5b86815160005b600281106102875750506002906001920193019101909161013c565b81518682015589929091019060010161026b565b87815160005b600281106102bd5750506002906001920193019101909161012a565b8151868201558a92909101906001016102a1565b88815160005b600281106102f357505060029060019201930191019091610118565b8151868201558b92909101906001016102d7565b8151815590880190600101610107565b604189634e487b7160e01b6000525260246000fd5b895162461bcd60e51b81528089018a9052603060248201527f47656e65726174656456657269666965723a20496e636f7272656374206e756d60448201526f626572206f6620494320706f696e747360801b6064820152608490fd5b61039284866103ff565b8152019201918b8d916100be565b600080fd5b634e487b7160e01b600052604160045260246000fd5b60408051919082016001600160401b038111838210176103a557604052565b6040519190601f01601f191682016001600160401b038111838210176103a557604052565b9080601f830112156103a0576104136103bb565b8092604081019283116103a057905b82821061042f5750505090565b8151815260209182019101610422565b81601f820112156103a0576104526103bb565b809260808301928184116103a057915b838310610470575050505090565b602060409161047f84866103ff565b81520192019161046256fe60806040818152600436101561001457600080fd5b600091823560e01c90816311479fea1461005657506399fb6eb21461003857600080fd5b346100525781600319360112610052576020905160038152f35b5080fd5b919050346101f1576101603660031901126101f15736602312156101f15761007d826101f5565b81604492368411610179576004905b8482106101e157505036606312156101dd5781516100a9816101f5565b8060c4943686116101d957905b85821061017d5750503660e31215610179578251916100d4836101f5565b826101049536871161014d57905b8682106101695750503661012312156101655783516060810181811067ffffffffffffffff8211176101515785526101649536871161014d5760209750905b86821061013e575050610135939450610227565b90519015158152f35b81358152908701908701610121565b8780fd5b634e487b7160e01b88526041600452602488fd5b8580fd5b81358152602091820191016100e2565b8480fd5b36601f830112156101d9578451610193816101f5565b808684013681116101d55791879285949294905b8082106101bf575050815292019160200190506100b6565b813586526020958601958a9550909101906101a7565b8980fd5b8680fd5b8380fd5b813581526020918201910161008c565b8280fd5b6040810190811067ffffffffffffffff82111761021157604052565b634e487b7160e01b600052604160045260246000fd5b9091600e541561030557600e600090815260405192907fbb7b4a454dc3493923482f07822329ed19e8244eff582cc204f8554c3620c3fd81855b600282106102ef57505050610275846101f5565b805b600381106102ca57505051151592836102be575b50826102b3575b50816102a8575b506102a357600190565b600190565b905051151538610299565b511515915038610292565b5151151592503861028b565b60001981146102db57600101610277565b634e487b7160e01b82526011600452602482fd5b6001602081928554815201930191019091610261565b634e487b7160e01b600052603260045260246000fdfea2646970667358221220ea87201c10e69f34c2a98e3d07e1142e28c5fd2e705543510e64df6d15f1742664736f6c63430008110033",
  "linkReferences": {},
  "deployedLinkReferences": {}
}