{
  "_format": "hh-sol-artifact-1",
  "contractName": "VotingSystem_WithToken",
  "sourceName": "contracts/VotingSystem_WithToken.sol",
  "abi": [
    {
      "inputs": [
        {
          "internalType": "address",
          "name": "_votingTokenAddress",
          "type": "address"
        }
      ],
      "stateMutability": "nonpayable",
      "type": "constructor"
    },
    {
      "anonymous": false,
      "inputs": [
        {
          "indexed": true,
          "internalType": "uint256",
          "name": "electionId",
          "type": "uint256"
        },
        {
          "indexed": false,
          "internalType": "uint256",
          "name": "candidateId",
          "type": "uint256"
        },
        {
          "indexed": false,
          "internalType": "string",
          "name": "name",
          "type": "string"
        }
      ],
      "name": "CandidateAdded",
      "type": "event"
    },
    {
      "anonymous": false,
      "inputs": [
        {
          "indexed": true,
          "internalType": "uint256",
          "name": "electionId",
          "type": "uint256"
        },
        {
          "indexed": false,
          "internalType": "string",
          "name": "title",
          "type": "string"
        }
      ],
      "name": "ElectionCreated",
      "type": "event"
    },
    {
      "anonymous": false,
      "inputs": [
        {
          "indexed": true,
          "internalType": "uint256",
          "name": "electionId",
          "type": "uint256"
        },
        {
          "indexed": false,
          "internalType": "bool",
          "name": "isActive",
          "type": "bool"
        }
      ],
      "name": "ElectionStatusChanged",
      "type": "event"
    },
    {
      "anonymous": false,
      "inputs": [
        {
          "indexed": true,
          "internalType": "address",
          "name": "operator",
          "type": "address"
        }
      ],
      "name": "OperatorAdded",
      "type": "event"
    },
    {
      "anonymous": false,
      "inputs": [
        {
          "indexed": true,
          "internalType": "address",
          "name": "operator",
          "type": "address"
        }
      ],
      "name": "OperatorRemoved",
      "type": "event"
    },
    {
      "anonymous": false,
      "inputs": [
        {
          "indexed": true,
          "internalType": "uint256",
          "name": "electionId",
          "type": "uint256"
        }
      ],
      "name": "ResultsFinalized",
      "type": "event"
    },
    {
      "anonymous": false,
      "inputs": [
        {
          "indexed": true,
          "internalType": "address",
          "name": "voter",
          "type": "address"
        },
        {
          "indexed": false,
          "internalType": "uint256",
          "name": "amount",
          "type": "uint256"
        }
      ],
      "name": "TokensSpent",
      "type": "event"
    },
    {
      "anonymous": false,
      "inputs": [
        {
          "indexed": true,
          "internalType": "address",
          "name": "voter",
          "type": "address"
        },
        {
          "indexed": true,
          "internalType": "uint256",
          "name": "electionId",
          "type": "uint256"
        },
        {
          "indexed": false,
          "internalType": "uint256",
          "name": "candidateId",
          "type": "uint256"
        }
      ],
      "name": "VoteCast",
      "type": "event"
    },
    {
      "anonymous": false,
      "inputs": [
        {
          "indexed": true,
          "internalType": "address",
          "name": "voter",
          "type": "address"
        },
        {
          "indexed": true,
          "internalType": "uint256",
          "name": "electionId",
          "type": "uint256"
        }
      ],
      "name": "VoterRegistered",
      "type": "event"
    },
    {
      "inputs": [],
      "name": "TOKENS_REQUIRED_TO_VOTE",
      "outputs": [
        {
          "internalType": "uint256",
          "name": "",
          "type": "uint256"
        }
      ],
      "stateMutability": "view",
      "type": "function"
    },
    {
      "inputs": [
        {
          "internalType": "address",
          "name": "_operator",
          "type": "address"
        }
      ],
      "name": "addAuthorizedOperator",
      "outputs": [],
      "stateMutability": "nonpayable",
      "type": "function"
    },
    {
      "inputs": [
        {
          "internalType": "uint256",
          "name": "_electionId",
          "type": "uint256"
        },
        {
          "internalType": "string",
          "name": "_name",
          "type": "string"
        },
        {
          "internalType": "string",
          "name": "_description",
          "type": "string"
        }
      ],
      "name": "addCandidate",
      "outputs": [],
      "stateMutability": "nonpayable",
      "type": "function"
    },
    {
      "inputs": [],
      "name": "admin",
      "outputs": [
        {
          "internalType": "address",
          "name": "",
          "type": "address"
        }
      ],
      "stateMutability": "view",
      "type": "function"
    },
    {
      "inputs": [
        {
          "internalType": "address",
          "name": "",
          "type": "address"
        }
      ],
      "name": "authorizedOperators",
      "outputs": [
        {
          "internalType": "bool",
          "name": "",
          "type": "bool"
        }
      ],
      "stateMutability": "view",
      "type": "function"
    },
    {
      "inputs": [
        {
          "internalType": "uint256",
          "name": "_electionId",
          "type": "uint256"
        },
        {
          "internalType": "address",
          "name": "_voter",
          "type": "address"
        }
      ],
      "name": "canVote",
      "outputs": [
        {
          "internalType": "bool",
          "name": "",
          "type": "bool"
        }
      ],
      "stateMutability": "view",
      "type": "function"
    },
    {
      "inputs": [
        {
          "internalType": "uint256",
          "name": "_electionId",
          "type": "uint256"
        },
        {
          "internalType": "uint256",
          "name": "_candidateId",
          "type": "uint256"
        }
      ],
      "name": "castVote",
      "outputs": [],
      "stateMutability": "nonpayable",
      "type": "function"
    },
    {
      "inputs": [
        {
          "internalType": "string",
          "name": "_title",
          "type": "string"
        },
        {
          "internalType": "string",
          "name": "_description",
          "type": "string"
        },
        {
          "internalType": "uint256",
          "name": "_startTime",
          "type": "uint256"
        },
        {
          "internalType": "uint256",
          "name": "_endTime",
          "type": "uint256"
        }
      ],
      "name": "createElection",
      "outputs": [
        {
          "internalType": "uint256",
          "name": "",
          "type": "uint256"
        }
      ],
      "stateMutability": "nonpayable",
      "type": "function"
    },
    {
      "inputs": [],
      "name": "electionCount",
      "outputs": [
        {
          "internalType": "uint256",
          "name": "",
          "type": "uint256"
        }
      ],
      "stateMutability": "view",
      "type": "function"
    },
    {
      "inputs": [
        {
          "internalType": "uint256",
          "name": "",
          "type": "uint256"
        }
      ],
      "name": "elections",
      "outputs": [
        {
          "internalType": "string",
          "name": "title",
          "type": "string"
        },
        {
          "internalType": "string",
          "name": "description",
          "type": "string"
        },
        {
          "internalType": "uint256",
          "name": "startTime",
          "type": "uint256"
        },
        {
          "internalType": "uint256",
          "name": "endTime",
          "type": "uint256"
        },
        {
          "internalType": "bool",
          "name": "isActive",
          "type": "bool"
        },
        {
          "internalType": "uint256",
          "name": "candidateCount",
          "type": "uint256"
        },
        {
          "internalType": "uint256",
          "name": "totalVotes",
          "type": "uint256"
        },
        {
          "internalType": "bool",
          "name": "resultsFinalized",
          "type": "bool"
        },
        {
          "internalType": "address",
          "name": "creator",
          "type": "address"
        },
        {
          "internalType": "uint256",
          "name": "createdAt",
          "type": "uint256"
        },
        {
          "internalType": "uint256",
          "name": "updatedAt",
          "type": "uint256"
        }
      ],
      "stateMutability": "view",
      "type": "function"
    },
    {
      "inputs": [
        {
          "internalType": "uint256",
          "name": "_electionId",
          "type": "uint256"
        }
      ],
      "name": "finalizeElection",
      "outputs": [],
      "stateMutability": "nonpayable",
      "type": "function"
    },
    {
      "inputs": [
        {
          "internalType": "uint256",
          "name": "_electionId",
          "type": "uint256"
        },
        {
          "internalType": "uint256",
          "name": "_candidateId",
          "type": "uint256"
        }
      ],
      "name": "getCandidateInfo",
      "outputs": [
        {
          "internalType": "string",
          "name": "name",
          "type": "string"
        },
        {
          "internalType": "string",
          "name": "description",
          "type": "string"
        },
        {
          "internalType": "uint256",
          "name": "voteCount",
          "type": "uint256"
        }
      ],
      "stateMutability": "view",
      "type": "function"
    },
    {
      "inputs": [
        {
          "internalType": "uint256",
          "name": "_electionId",
          "type": "uint256"
        }
      ],
      "name": "getElectionInfo",
      "outputs": [
        {
          "internalType": "string",
          "name": "title",
          "type": "string"
        },
        {
          "internalType": "string",
          "name": "description",
          "type": "string"
        },
        {
          "internalType": "uint256",
          "name": "startTime",
          "type": "uint256"
        },
        {
          "internalType": "uint256",
          "name": "endTime",
          "type": "uint256"
        },
        {
          "internalType": "bool",
          "name": "isActive",
          "type": "bool"
        },
        {
          "internalType": "uint256",
          "name": "candidateCount",
          "type": "uint256"
        },
        {
          "internalType": "uint256",
          "name": "totalVotes",
          "type": "uint256"
        },
        {
          "internalType": "bool",
          "name": "resultsFinalized",
          "type": "bool"
        },
        {
          "internalType": "address",
          "name": "creator",
          "type": "address"
        },
        {
          "internalType": "uint256",
          "name": "createdAt",
          "type": "uint256"
        }
      ],
      "stateMutability": "view",
      "type": "function"
    },
    {
      "inputs": [
        {
          "internalType": "uint256",
          "name": "_electionId",
          "type": "uint256"
        }
      ],
      "name": "getVoterAddresses",
      "outputs": [
        {
          "internalType": "address[]",
          "name": "",
          "type": "address[]"
        }
      ],
      "stateMutability": "view",
      "type": "function"
    },
    {
      "inputs": [
        {
          "internalType": "uint256",
          "name": "_electionId",
          "type": "uint256"
        },
        {
          "internalType": "address",
          "name": "_voter",
          "type": "address"
        }
      ],
      "name": "getVoterInfo",
      "outputs": [
        {
          "internalType": "bool",
          "name": "isRegistered",
          "type": "bool"
        },
        {
          "internalType": "bool",
          "name": "hasVoted",
          "type": "bool"
        },
        {
          "internalType": "uint256",
          "name": "voteTimestamp",
          "type": "uint256"
        },
        {
          "internalType": "uint256",
          "name": "vote",
          "type": "uint256"
        },
        {
          "internalType": "bytes32",
          "name": "voterHash",
          "type": "bytes32"
        }
      ],
      "stateMutability": "view",
      "type": "function"
    },
    {
      "inputs": [
        {
          "internalType": "address",
          "name": "_operator",
          "type": "address"
        }
      ],
      "name": "isAuthorizedOperator",
      "outputs": [
        {
          "internalType": "bool",
          "name": "",
          "type": "bool"
        }
      ],
      "stateMutability": "view",
      "type": "function"
    },
    {
      "inputs": [
        {
          "internalType": "uint256",
          "name": "_electionId",
          "type": "uint256"
        },
        {
          "internalType": "address",
          "name": "_voter",
          "type": "address"
        }
      ],
      "name": "registerVoter",
      "outputs": [],
      "stateMutability": "nonpayable",
      "type": "function"
    },
    {
      "inputs": [
        {
          "internalType": "address",
          "name": "_operator",
          "type": "address"
        }
      ],
      "name": "removeAuthorizedOperator",
      "outputs": [],
      "stateMutability": "nonpayable",
      "type": "function"
    },
    {
      "inputs": [],
      "name": "votingToken",
      "outputs": [
        {
          "internalType": "contract VotingToken",
          "name": "",
          "type": "address"
        }
      ],
      "stateMutability": "view",
      "type": "function"
    },
    {
      "inputs": [
        {
          "internalType": "address",
          "name": "_to",
          "type": "address"
        },
        {
          "internalType": "uint256",
          "name": "_amount",
          "type": "uint256"
        }
      ],
      "name": "withdrawTokens",
      "outputs": [],
      "stateMutability": "nonpayable",
      "type": "function"
    }
  ],
  "bytecode": "0x6080346100e557601f611ff438819003918201601f19168301916001600160401b038311848410176100ea578084926020946040528339810103126100e557516001600160a01b038116908190036100e557600160005580156100a05760018060a01b031990816001541617600155339060025416176002553360005260036020526040600020600160ff19825416179055604051611ef390816101018239f35b60405162461bcd60e51b815260206004820152601b60248201527f446972656363696f6e20646520746f6b656e20696e76616c69646100000000006044820152606490fd5b600080fd5b634e487b7160e01b600052604160045260246000fdfe6080604052600436101561001257600080fd5b60003560e01c806306b091f9146118d35780631537052e14611822578063181d989b14610b0e5780632c0a3f8914611346578063404d2cf81461123e5780635e6fef011461116457806373a12f5a146110825780637ad36e8414610b4d57806382d52c1e14610b0e578063929504a114610aeb57806394c790bb146108c3578063997d2830146108a5578063b03401231461087c578063c5326ebc146107b4578063cdb2867b14610784578063ce99b5df146106ab578063e3f8a79c146105e5578063e6c62efc146101b3578063f851a4401461018a5763fbc759a1146100f857600080fd5b3461018557604036600319011261018557600435610114611a17565b906101226005548210611c3d565b600052600460205260086040600020019060018060a01b031660005260205260a06040600020805490600181015490600360028201549101549160ff604051948181161515865260081c1615156020850152604084015260608301526080820152f35b600080fd5b34610185576000366003190112610185576002546040516001600160a01b039091168152602090f35b346101855760603660031901126101855760243567ffffffffffffffff8111610185576101e4903690600401611b85565b60443567ffffffffffffffff811161018557610204903690600401611b85565b9060018060a01b0360025416331480156105cc575b61022290611bdc565b61023160055460043510611c3d565b600435600052600460205261025160ff600a604060002001541615611c82565b805115610587576004356000526004602052604060002091600683019081549161027a83611c18565b905560405193606085019185831067ffffffffffffffff8411176104aa5760059260405284865260208601526000604086015282600052016020526040600020835180519067ffffffffffffffff82116104aa5781906102da8454611a43565b601f8111610537575b50602090601f83116001146104cb576000926104c0575b50508160011b916000199060031b1c19161781555b602084015180519067ffffffffffffffff82116104aa576103336001840154611a43565b601f811161045f575b50602090601f83116001146103ca5795826002936040937fed8911b3df733b7d5f75724158e54478ea12e30f49c9d31b5261879f5b76586f98996000926103bf575b50508160011b916000199060031b1c19161760018501555b015191015560405190815260406020820152806103ba600435946040830190611b45565b0390a2005b01519050898061037e565b90601f198316916001850160005260206000209260005b8181106104475750936040937fed8911b3df733b7d5f75724158e54478ea12e30f49c9d31b5261879f5b76586f989993600193836002981061042e575b505050811b016001850155610396565b015160001960f88460031b161c1916905589808061041e565b929360206001819287860151815501950193016103e1565b600184016000526020600020601f840160051c810191602085106104a0575b601f0160051c01905b818110610494575061033c565b60008155600101610487565b909150819061047e565b634e487b7160e01b600052604160045260246000fd5b0151905086806102fa565b9250836000526020600020906000935b601f198416851061051c576001945083601f19811610610503575b505050811b01815561030f565b015160001960f88460031b161c191690558680806104f6565b818101518355602094850194600190930192909101906104db565b909150836000526020600020601f840160051c810160208510610580575b90849392915b601f830160051c820181106105715750506102e3565b6000815585945060010161055b565b5080610555565b60405162461bcd60e51b815260206004820152601e60248201527f456c206e6f6d627265206e6f20707565646520657374617220766163696f00006044820152606490fd5b503360009081526003602052604090205460ff16610219565b34610185576020366003190112610185576105fe611a01565b6002546001600160a01b0391906106189083163314611d32565b1680600052600360205260ff604060002054161561066d57806000526003602052604060002060ff1981541690557f80c0b871b97b595b16a7741c1b06fed0c6f6f558639f18ccbce50724325dc40d600080a2005b60405162461bcd60e51b81526020600482015260166024820152754f70657261646f72206e6f206175746f72697a61646f60501b6044820152606490fd5b34610185576020366003190112610185576004356106cc6005548210611c3d565b600052600460205261073160406000206002810154600382015460ff6004840154166006840154600785015490600a86015492600b8701549461073f61071d60016107168b611a9f565b9a01611a9f565b6040519a8b9a610140808d528c0190611b45565b908a820360208c0152611b45565b604089019790975260608801521515608087015260a086015260c085015260ff8116151560e085015260081c6001600160a01b03166101008401526101208301520390f35b346101855760403660031901126101855760206107aa6107a2611a17565b600435611d97565b6040519015158152f35b3461018557602080600319360112610185576004356107d66005548210611c3d565b60005260048152600960406000200160405190818382549182815201908192600052846000209060005b8682821061085f57868661081682880383611a7d565b604051928392818401908285525180915260408401929160005b82811061083f57505050500390f35b83516001600160a01b031685528695509381019392810192600101610830565b83546001600160a01b031685529093019260019283019201610800565b34610185576000366003190112610185576001546040516001600160a01b039091168152602090f35b34610185576000366003190112610185576020600554604051908152f35b34610185576040366003190112610185576004356108df611a17565b6002546001600160a01b039190821633148015610ad2575b61090090611bdc565b61090d6005548410611c3d565b826000526020906004825260086040600020019281169283600052825260ff60406000205416610a955760405190828201906bffffffffffffffffffffffff199060601b16815242603483015260348252606082019167ffffffffffffffff91818410838511176104aa57836040528151902090610100810192848410908411176104aa5760039260405260018452608081016000815260a08201906000825260e060c08401936000855201938452886000526004875260086040600020018860005287526040600020955115159060ff61ff0088549251151560081b1692169061ffff191617178555516001850155516002840155519101558260005260048152600960406000200190815491680100000000000000008310156104aa5760018301808255831015610a7f5760005260002001816bffffffffffffffffffffffff60a01b8254161790557ff16ce2c2236e2c6e3df646f80d657bceef4cd7f3a240c47e82adfa17a5f47241600080a3005b634e487b7160e01b600052603260045260246000fd5b60405162461bcd60e51b8152600481018390526015602482015274566f74616e7465207961207265676973747261646f60581b6044820152606490fd5b503360009081526003602052604090205460ff166108f7565b34610185576000366003190112610185576020604051670de0b6b3a76400008152f35b34610185576020366003190112610185576001600160a01b03610b2f611a01565b166000526003602052602060ff604060002054166040519015158152f35b346101855760803660031901126101855760043567ffffffffffffffff811161018557610b7e903690600401611b85565b6024803567ffffffffffffffff811161018557610b9f903690600401611b85565b6002546001600160a01b031633148015611069575b610bbd90611bdc565b82511561102557805115610fd557426044351115610f81576044356064351115610f1f5760055491610bee83611c18565b600555826000526004602052604060002091845167ffffffffffffffff8111610f0a57610c1b8454611a43565b601f8111610ec4575b50806020601f8211600114610e5d57600091610e52575b508160011b916000199060031b1c19161783555b80519167ffffffffffffffff8311610e3e5750610c6f6001840154611a43565b601f8111610df3575b50916020949184938690601f8311600114610d5c579180610d4694927f52be7c4e77b4de76b7607d621492061fe13b58597e72dfb5e51ab8f6187ed1419694600092610d51575b50508160011b916000199060031b1c19161760018201555b6044356002820155606435600382015560048101805460ff191660011790556000600682018190556007820155600a81018054610100600160a81b0319163360081b610100600160a81b031617905542600b8201819055600c9091015560405186815291829187830190611b45565b0390a2604051908152f35b015190508980610cbf565b9060018401600052876000209160005b601f1985168110610dd9575092610d4694926001927f52be7c4e77b4de76b7607d621492061fe13b58597e72dfb5e51ab8f6187ed141979583601f19811610610dc0575b505050811b016001820155610cd7565b015160001960f88460031b161c19169055898080610db0565b818301518455889750600190930192918901918901610d6c565b600184016000526020600020601f840160051c81019160208510610e34575b601f0160051c01905b818110610e285750610c78565b60008155600101610e1b565b9091508190610e12565b634e487b7160e01b60009081526041600452fd5b905086015187610c3b565b91508460005260206000206000925b601f1983168410610eac576001935082601f19811610610e93575b5050811b018355610c4f565b88015160001960f88460031b161c191690558780610e87565b88810151825560209384019360019092019101610e6c565b846000526020600020601f830160051c810160208410610f03575b601f90920160051c01905b818110610ef75750610c24565b60008155600101610eea565b5080610edf565b82634e487b7160e01b60005260416004526000fd5b60405162461bcd60e51b8152602060048201526035818401527f4c6120686f72612064652066696e20646562652073657220706f73746572696f604482015274722061206c6120686f726120646520696e6963696f60581b6064820152608490fd5b60405162461bcd60e51b8152602060048201526027818401527f4c6120686f726120646520696e6963696f20646562652073657220656e20656c6044820152662066757475726f60c81b6064820152608490fd5b60405162461bcd60e51b8152602060048201526023818401527f4c61206465736372697063696f6e206e6f20707565646520657374617220766160448201526263696160e81b6064820152608490fd5b60405162461bcd60e51b815260206004820152601e818401527f456c20746974756c6f206e6f20707565646520657374617220766163696f00006044820152606490fd5b503360009081526003602052604090205460ff16610bb4565b346101855761109036611a2d565b9061109e6005548210611c3d565b80600052600460205260066040600020015482101561111f576000526004602052600560406000200190600052602052611107604060002060028101546111156110f360016110ec85611a9f565b9401611a9f565b604051948594606086526060860190611b45565b908482036020860152611b45565b9060408301520390f35b60405162461bcd60e51b815260206004820152601760248201527f43616e64696461746f206e6f20656e636f6e747261646f0000000000000000006044820152606490fd5b346101855760203660031901126101855760043560005260046020526111e5604060002061119181611a9f565b9061119e60018201611a9f565b600282015491600381015460ff6004830154166006830154600784015491600a850154936111f3600c600b880154970154976040519b8c9b8c6101608091528d0190611b45565b908b820360208d0152611b45565b60408a019890985260608901521515608088015260a087015260c086015260ff8116151560e086015260081c6001600160a01b03166101008501526101208401526101408301520390f35b3461018557602036600319011261018557611257611a01565b6002546001600160a01b0391906112719083163314611d32565b16801561130c5780600052600360205260ff604060002054166112ce578060005260036020526040600020600160ff198254161790557fac6fa858e9350a46cec16539926e0fde25b7629f84b5a72bffaae4df888ae86d600080a2005b60405162461bcd60e51b81526020600482015260166024820152754f70657261646f72207961206175746f72697a61646f60501b6044820152606490fd5b60405162461bcd60e51b8152602060048201526012602482015271446972656363696f6e20696e76616c69646160701b6044820152606490fd5b346101855761135436611a2d565b906002600054146117dd5760026000556113716005548210611c3d565b8060005260206004815260ff60046040600020015416156117a45781600052600481526002604060002001544210611769578160005260048152600360406000200154421161172f5781600052600481526008918260406000200133600052825260ff60406000205416156116f25780600052600482528260406000200133600052825260ff604060002054841c166116ad578060005260048252600660406000200154841015611673576001546040516370a0823160e01b81523360048201526001600160a01b039091169490938385602481895afa9485156115f357600095611644575b50670de0b6b3a76400008095106115ff5783600095966064604051809881936323b872dd60e01b83523360048401523060248401528b60448401525af19485156115f3577f2efa3c8729bb4709645a357fcbdacbae23c038445bdb417a51d8c1dcc68be465956114cf916000916115c6575b50611ce6565b826000526004845280604060002001336000528452604060002061010061ff00198254161790558260005260048452806040600020013360005284524260016040600020015582600052600484526040600020013360005283528060026040600020015581600052600483526005604060002001816000528352600260406000200161155b8154611c18565b9055816000526004835260076040600020016115778154611c18565b9055816000526004835242600c604060002001556040519081527fb4cfecf70861b7b150d8337780d34fb4cbc2114b5fb1fe51a5c5fca1849f7274833392a36040519283523392a26001600055005b6115e69150863d88116115ec575b6115de8183611a7d565b810190611cce565b886114c9565b503d6115d4565b6040513d6000823e3d90fd5b60405162461bcd60e51b815260048101859052601f60248201527f546f6b656e7320696e737566696369656e746573207061726120766f746172006044820152606490fd5b9094508381813d831161166c575b61165c8183611a7d565b8101031261018557519386611457565b503d611652565b60405162461bcd60e51b815260048101839052601260248201527143616e64696461746f20696e76616c69646f60701b6044820152606490fd5b60405162461bcd60e51b815260048101839052601b60248201527f596120766f746173746520656e206573746120656c656363696f6e00000000006044820152606490fd5b60405162461bcd60e51b8152600481018390526015602482015274566f74616e7465206e6f207265676973747261646f60581b6044820152606490fd5b6064906040519062461bcd60e51b825260048201526013602482015272456c656363696f6e2066696e616c697a61646160681b6044820152fd5b6064906040519062461bcd60e51b825260048201526014602482015273456c656363696f6e206e6f20696e69636961646160601b6044820152fd5b6064906040519062461bcd60e51b825260048201526012602482015271456c656363696f6e206e6f2061637469766160701b6044820152fd5b60405162461bcd60e51b815260206004820152601f60248201527f5265656e7472616e637947756172643a207265656e7472616e742063616c6c006044820152606490fd5b346101855760203660031901126101855760043561184b60018060a01b03600254163314611d32565b6118586005548210611c3d565b80600052600460205261187660ff600a604060002001541615611c82565b806000526004602052600460406000200160ff19908181541690556001600a6040600020019182541617905542600c604060002001557f63766cd591e04cb4e6efcfaaea14aad1fb0f36f02ce7c571b65b405c9dfebbcc600080a2005b34610185576040366003190112610185576118ec611a01565b6024359060018060a01b03809161190882600254163314611d32565b169182156119bc57801561197757604460209260015416936000604051958694859363a9059cbb60e01b8552600485015260248401525af180156115f357611957916000916119595750611ce6565b005b611971915060203d81116115ec576115de8183611a7d565b826114c9565b60405162461bcd60e51b815260206004820152601e60248201527f456c206d6f6e746f206465626520736572206d61796f722061206365726f00006044820152606490fd5b60405162461bcd60e51b815260206004820152601d60248201527f446972656363696f6e2064652064657374696e6f20696e76616c6964610000006044820152606490fd5b600435906001600160a01b038216820361018557565b602435906001600160a01b038216820361018557565b6040906003190112610185576004359060243590565b90600182811c92168015611a73575b6020831014611a5d57565b634e487b7160e01b600052602260045260246000fd5b91607f1691611a52565b90601f8019910116810190811067ffffffffffffffff8211176104aa57604052565b9060405191826000825492611ab384611a43565b908184526001948581169081600014611b225750600114611adf575b5050611add92500383611a7d565b565b9093915060005260209081600020936000915b818310611b0a575050611add93508201013880611acf565b85548884018501529485019487945091830191611af2565b915050611add94506020925060ff191682840152151560051b8201013880611acf565b919082519283825260005b848110611b71575050826000602080949584010152601f8019910116010190565b602081830181015184830182015201611b50565b81601f820112156101855780359067ffffffffffffffff82116104aa5760405192611bba601f8401601f191660200185611a7d565b8284526020838301011161018557816000926020809301838601378301015290565b15611be357565b60405162461bcd60e51b815260206004820152600d60248201526c4e6f206175746f72697a61646f60981b6044820152606490fd5b6000198114611c275760010190565b634e487b7160e01b600052601160045260246000fd5b15611c4457565b60405162461bcd60e51b8152602060048201526016602482015275456c656363696f6e206e6f20656e636f6e747261646160501b6044820152606490fd5b15611c8957565b60405162461bcd60e51b815260206004820152601960248201527f526573756c7461646f732079612066696e616c697a61646f73000000000000006044820152606490fd5b90816020910312610185575180151581036101855790565b15611ced57565b60405162461bcd60e51b815260206004820152601a60248201527f4572726f7220616c207472616e73666572697220746f6b656e730000000000006044820152606490fd5b15611d3957565b60405162461bcd60e51b815260206004820152603060248201527f536f6c6f20656c2061646d696e6973747261646f72207075656465207265616c60448201526f34bd30b91032b9ba309030b1b1b4b7b760811b6064820152608490fd5b600554811015611eb65760009181835260206004815260409160ff600484872001541615611ea757600283862001544210611ea757600383862001544211611ea7576008838620019360018060a01b0380921694858752835260ff848720541615611eae57855260048252600883862001848652825260ff8386205460081c16611ea7578190600154169360248451809681936370a0823160e01b835260048301525afa918215611e9e57508391611e64575b50670de0b6b3a7640000915010611e615750600190565b90565b905081813d8311611e97575b611e7a8183611a7d565b81010312611e9357670de0b6b3a7640000905138611e4a565b5080fd5b503d611e70565b513d85823e3d90fd5b5050505090565b505050505090565b505060009056fea264697066735822122040b2f9b3030b2531697bee1e37523e19720ef47663fc988823ddb2ae41011de264736f6c63430008110033",
  "linkReferences": {},
  "deployedLinkReferences": {}
}