{
  "_format": "hh-sol-artifact-1",
  "contractName": "VotingToken",
  "sourceName": "contracts/VotingToken.sol",
  "abi": [
    {
      "inputs": [],
      "stateMutability": "nonpayable",
      "type": "constructor"
    },
    {
      "anonymous": false,
      "inputs": [
        {
          "indexed": true,
          "internalType": "address",
          "name": "owner",
          "type": "address"
        },
        {
          "indexed": true,
          "internalType": "address",
          "name": "spender",
          "type": "address"
        },
        {
          "indexed": false,
          "internalType": "uint256",
          "name": "value",
          "type": "uint256"
        }
      ],
      "name": "Approval",
      "type": "event"
    },
    {
      "anonymous": false,
      "inputs": [
        {
          "indexed": true,
          "internalType": "address",
          "name": "previousOwner",
          "type": "address"
        },
        {
          "indexed": true,
          "internalType": "address",
          "name": "newOwner",
          "type": "address"
        }
      ],
      "name": "OwnershipTransferred",
      "type": "event"
    },
    {
      "anonymous": false,
      "inputs": [
        {
          "indexed": true,
          "internalType": "address",
          "name": "spender",
          "type": "address"
        },
        {
          "indexed": false,
          "internalType": "bool",
          "name": "isAuthorized",
          "type": "bool"
        }
      ],
      "name": "SpenderAuthorized",
      "type": "event"
    },
    {
      "anonymous": false,
      "inputs": [
        {
          "indexed": true,
          "internalType": "address",
          "name": "from",
          "type": "address"
        },
        {
          "indexed": true,
          "internalType": "address",
          "name": "to",
          "type": "address"
        },
        {
          "indexed": false,
          "internalType": "uint256",
          "name": "value",
          "type": "uint256"
        }
      ],
      "name": "Transfer",
      "type": "event"
    },
    {
      "inputs": [
        {
          "internalType": "address",
          "name": "owner",
          "type": "address"
        },
        {
          "internalType": "address",
          "name": "spender",
          "type": "address"
        }
      ],
      "name": "allowance",
      "outputs": [
        {
          "internalType": "uint256",
          "name": "",
          "type": "uint256"
        }
      ],
      "stateMutability": "view",
      "type": "function"
    },
    {
      "inputs": [
        {
          "internalType": "address",
          "name": "spender",
          "type": "address"
        },
        {
          "internalType": "uint256",
          "name": "amount",
          "type": "uint256"
        }
      ],
      "name": "approve",
      "outputs": [
        {
          "internalType": "bool",
          "name": "",
          "type": "bool"
        }
      ],
      "stateMutability": "nonpayable",
      "type": "function"
    },
    {
      "inputs": [
        {
          "internalType": "address",
          "name": "spender",
          "type": "address"
        },
        {
          "internalType": "bool",
          "name": "isAuthorized",
          "type": "bool"
        }
      ],
      "name": "authorizeSpender",
      "outputs": [],
      "stateMutability": "nonpayable",
      "type": "function"
    },
    {
      "inputs": [
        {
          "internalType": "address",
          "name": "account",
          "type": "address"
        }
      ],
      "name": "balanceOf",
      "outputs": [
        {
          "internalType": "uint256",
          "name": "",
          "type": "uint256"
        }
      ],
      "stateMutability": "view",
      "type": "function"
    },
    {
      "inputs": [],
      "name": "decimals",
      "outputs": [
        {
          "internalType": "uint8",
          "name": "",
          "type": "uint8"
        }
      ],
      "stateMutability": "view",
      "type": "function"
    },
    {
      "inputs": [
        {
          "internalType": "address",
          "name": "spender",
          "type": "address"
        },
        {
          "internalType": "uint256",
          "name": "subtractedValue",
          "type": "uint256"
        }
      ],
      "name": "decreaseAllowance",
      "outputs": [
        {
          "internalType": "bool",
          "name": "",
          "type": "bool"
        }
      ],
      "stateMutability": "nonpayable",
      "type": "function"
    },
    {
      "inputs": [
        {
          "internalType": "address",
          "name": "spender",
          "type": "address"
        },
        {
          "internalType": "uint256",
          "name": "addedValue",
          "type": "uint256"
        }
      ],
      "name": "increaseAllowance",
      "outputs": [
        {
          "internalType": "bool",
          "name": "",
          "type": "bool"
        }
      ],
      "stateMutability": "nonpayable",
      "type": "function"
    },
    {
      "inputs": [
        {
          "internalType": "address",
          "name": "spender",
          "type": "address"
        }
      ],
      "name": "isAuthorizedSpender",
      "outputs": [
        {
          "internalType": "bool",
          "name": "",
          "type": "bool"
        }
      ],
      "stateMutability": "view",
      "type": "function"
    },
    {
      "inputs": [],
      "name": "name",
      "outputs": [
        {
          "internalType": "string",
          "name": "",
          "type": "string"
        }
      ],
      "stateMutability": "view",
      "type": "function"
    },
    {
      "inputs": [],
      "name": "owner",
      "outputs": [
        {
          "internalType": "address",
          "name": "",
          "type": "address"
        }
      ],
      "stateMutability": "view",
      "type": "function"
    },
    {
      "inputs": [],
      "name": "renounceOwnership",
      "outputs": [],
      "stateMutability": "nonpayable",
      "type": "function"
    },
    {
      "inputs": [],
      "name": "symbol",
      "outputs": [
        {
          "internalType": "string",
          "name": "",
          "type": "string"
        }
      ],
      "stateMutability": "view",
      "type": "function"
    },
    {
      "inputs": [],
      "name": "totalSupply",
      "outputs": [
        {
          "internalType": "uint256",
          "name": "",
          "type": "uint256"
        }
      ],
      "stateMutability": "view",
      "type": "function"
    },
    {
      "inputs": [
        {
          "internalType": "address",
          "name": "to",
          "type": "address"
        },
        {
          "internalType": "uint256",
          "name": "amount",
          "type": "uint256"
        }
      ],
      "name": "transfer",
      "outputs": [
        {
          "internalType": "bool",
          "name": "",
          "type": "bool"
        }
      ],
      "stateMutability": "nonpayable",
      "type": "function"
    },
    {
      "inputs": [
        {
          "internalType": "address",
          "name": "from",
          "type": "address"
        },
        {
          "internalType": "address",
          "name": "to",
          "type": "address"
        },
        {
          "internalType": "uint256",
          "name": "amount",
          "type": "uint256"
        }
      ],
      "name": "transferFrom",
      "outputs": [
        {
          "internalType": "bool",
          "name": "",
          "type": "bool"
        }
      ],
      "stateMutability": "nonpayable",
      "type": "function"
    },
    {
      "inputs": [
        {
          "internalType": "address",
          "name": "newOwner",
          "type": "address"
        }
      ],
      "name": "transferOwnership",
      "outputs": [],
      "stateMutability": "nonpayable",
      "type": "function"
    },
    {
      "inputs": [],
      "name": "votingContract",
      "outputs": [
        {
          "internalType": "address",
          "name": "",
          "type": "address"
        }
      ],
      "stateMutability": "view",
      "type": "function"
    }
  ],
  "bytecode": "0x6080346200045a576001600160401b03906040908082018381118282101762000444578252600c815260206b2b37ba34b733902a37b5b2b760a11b818301528251838101818110868211176200044457845260049485825263564f544560e01b838301528351918183116200042f576003908154936001968786811c9616801562000424575b878710146200040f578190601f96878111620003b9575b508790878311600114620003525760009262000346575b505060001982851b1c191690871b1782555b8051928311620003315787548681811c9116801562000326575b86821014620003115790818585949311620002b9575b5085908584116001146200024e5760009362000242575b505082861b92600019911b1c19161785555b60058054336001600160a01b03198216811790925585519291906001600160a01b03167f8be0079c531659141344cd1fd0a4f28419497f9722a3daafe3b4186f6b6457e0600080a333156200020557505060025469d3c21bcecceda100000090818101809111620001f0579060079291600255336000526000825284600020818154019055845190815260007fddf252ad1be2c89b69c2b068fc378daa952ba7f163c4a11628f55a4df523b3ef833393a33360005252816000209060ff1982541617905551610c289081620004608239f35b601186634e487b7160e01b6000525260246000fd5b6064928662461bcd60e51b845283015260248201527f45524332303a206d696e7420746f20746865207a65726f2061646472657373006044820152fd5b0151915038806200010c565b9190879450601f198416928a600052876000209360005b89828210620002a2575050851162000287575b50505050811b0185556200011e565b01519060f884600019921b161c191690553880808062000278565b8385015187558b9890960195938401930162000265565b9091925088600052856000208580860160051c82019288871062000307575b91899187969594930160051c01915b828110620002f7575050620000f5565b60008155869550899101620002e7565b92508192620002d8565b602289634e487b7160e01b6000525260246000fd5b90607f1690620000df565b604188634e487b7160e01b6000525260246000fd5b015190503880620000b3565b90899350601f1983169186600052896000209260005b8b828210620003a2575050841162000389575b505050811b018255620000c5565b015160001983871b60f8161c191690553880806200037b565b8385015186558d9790950194938401930162000368565b90915084600052876000208780850160051c8201928a861062000405575b918b91869594930160051c01915b828110620003f55750506200009c565b600081558594508b9101620003e5565b92508192620003d7565b60228a634e487b7160e01b6000525260246000fd5b95607f169562000085565b604187634e487b7160e01b6000525260246000fd5b634e487b7160e01b600052604160045260246000fd5b600080fdfe6080604081815260048036101561001557600080fd5b600092833560e01c90816306fdde031461075c57508063095ea7b31461073257806318160ddd1461071357806323b872dd14610630578063256a87f3146105f2578063313ce567146105d6578063395093511461056f57806370a0823114610538578063715018a6146104db578063793c0fd4146104595780638da5cb5b1461043057806395d89b4114610310578063a457c2d714610269578063a9059cbb14610222578063c1fc006a146101f9578063dd62ed3e146101ac5763f2fde38b146100de57600080fd5b346101a85760203660031901126101a8576100f761089a565b906101006108cb565b6001600160a01b03918216928315610156575050600554826bffffffffffffffffffffffff60a01b821617600555167f8be0079c531659141344cd1fd0a4f28419497f9722a3daafe3b4186f6b6457e08380a380f35b906020608492519162461bcd60e51b8352820152602660248201527f4f776e61626c653a206e6577206f776e657220697320746865207a65726f206160448201526564647265737360d01b6064820152fd5b8280fd5b5050346101f557806003193601126101f557806020926101ca61089a565b6101d26108b5565b6001600160a01b0391821683526001865283832091168252845220549051908152f35b5080fd5b5050346101f557816003193601126101f55760065490516001600160a01b039091168152602090f35b5050346101f557806003193601126101f55761026260209261025860ff8461024861089a565b9333815260078852205416610a25565b6024359033610a84565b5160018152f35b50823461030d578260031936011261030d5761028361089a565b918360243592338152600160205281812060018060a01b03861682526020522054908282106102bc576020856102628585038733610923565b608490602086519162461bcd60e51b8352820152602560248201527f45524332303a2064656372656173656420616c6c6f77616e63652062656c6f77604482015264207a65726f60d81b6064820152fd5b80fd5b509190346101f557816003193601126101f557805190828454600181811c90808316928315610426575b6020938484108114610413578388529081156103f757506001146103a2575b505050829003601f01601f191682019267ffffffffffffffff84118385101761038f575082918261038b925282610851565b0390f35b634e487b7160e01b815260418552602490fd5b8787529192508591837f8a35acfbc15ff81a39ae7d344fd709f28e8600b4aa8c65c6b64bfe7fe36bd19b5b8385106103e35750505050830101388080610359565b8054888601830152930192849082016103cd565b60ff1916878501525050151560051b8401019050388080610359565b634e487b7160e01b895260228a52602489fd5b91607f169161033a565b5050346101f557816003193601126101f55760055490516001600160a01b039091168152602090f35b5050346101f557806003193601126101f55761047361089a565b602435908115158092036104d7577fae147a7c9fb958af671f40fcdd8c9317dd78c17d572aeb8fb41010846c4a45c8916020916104ae6108cb565b6001600160a01b031680865260078352848620805460ff191660ff84161790559351908152a280f35b8380fd5b833461030d578060031936011261030d576104f46108cb565b600580546001600160a01b0319811690915581906001600160a01b03167f8be0079c531659141344cd1fd0a4f28419497f9722a3daafe3b4186f6b6457e08280a380f35b5050346101f55760203660031901126101f55760209181906001600160a01b0361056061089a565b16815280845220549051908152f35b50913461030d578160031936011261030d5761058961089a565b338252600160209081528383206001600160a01b03831684529052828220546024358101929083106105c357602084610262858533610923565b634e487b7160e01b815260118552602490fd5b5050346101f557816003193601126101f5576020905160128152f35b5050346101f55760203660031901126101f55760209160ff9082906001600160a01b0361061d61089a565b1681526007855220541690519015158152f35b508290346101f55760603660031901126101f55761064c61089a565b6106546108b5565b918460443594338152600760205261067160ff8383205416610a25565b6001600160a01b038416815260016020818152838320338452905291902054919082016106a7575b602086610262878787610a84565b8482106106d057509183916106c56020969561026295033383610923565b919394819350610699565b606490602087519162461bcd60e51b8352820152601d60248201527f45524332303a20696e73756666696369656e7420616c6c6f77616e63650000006044820152fd5b5050346101f557816003193601126101f5576020906002549051908152f35b5050346101f557806003193601126101f55760209061026261075261089a565b6024359033610923565b84915083346101a857826003193601126101a85782600354600181811c90808316928315610847575b60209384841081146104135783885290811561082b57506001146107d557505050829003601f01601f191682019267ffffffffffffffff84118385101761038f575082918261038b925282610851565b600387529192508591837fc2575a0e9e593c00f959f8c92f12db2869c3395a3b0502d05e2516446f71f85b5b8385106108175750505050830101858080610359565b805488860183015293019284908201610801565b60ff1916878501525050151560051b8401019050858080610359565b91607f1691610785565b6020808252825181830181905290939260005b82811061088657505060409293506000838284010152601f8019910116010190565b818101860151848201604001528501610864565b600435906001600160a01b03821682036108b057565b600080fd5b602435906001600160a01b03821682036108b057565b6005546001600160a01b031633036108df57565b606460405162461bcd60e51b815260206004820152602060248201527f4f776e61626c653a2063616c6c6572206973206e6f7420746865206f776e65726044820152fd5b6001600160a01b039081169182156109d457169182156109845760207f8c5be1e5ebec7d5bd14f71427d1e84f3dd0314c0f7b2291e5b200ac8c7c3b925918360005260018252604060002085600052825280604060002055604051908152a3565b60405162461bcd60e51b815260206004820152602260248201527f45524332303a20617070726f766520746f20746865207a65726f206164647265604482015261737360f01b6064820152608490fd5b60405162461bcd60e51b8152602060048201526024808201527f45524332303a20617070726f76652066726f6d20746865207a65726f206164646044820152637265737360e01b6064820152608490fd5b15610a2c57565b60405162461bcd60e51b815260206004820152602a60248201527f566f74696e67546f6b656e3a204e6f206175746f72697a61646f2070617261206044820152693a3930b739b332b934b960b11b6064820152608490fd5b6001600160a01b03908116918215610b9f5716918215610b4e57600082815280602052604081205491808310610afa57604082827fddf252ad1be2c89b69c2b068fc378daa952ba7f163c4a11628f55a4df523b3ef958760209652828652038282205586815220818154019055604051908152a3565b60405162461bcd60e51b815260206004820152602660248201527f45524332303a207472616e7366657220616d6f756e7420657863656564732062604482015265616c616e636560d01b6064820152608490fd5b60405162461bcd60e51b815260206004820152602360248201527f45524332303a207472616e7366657220746f20746865207a65726f206164647260448201526265737360e81b6064820152608490fd5b60405162461bcd60e51b815260206004820152602560248201527f45524332303a207472616e736665722066726f6d20746865207a65726f206164604482015264647265737360d81b6064820152608490fdfea26469706673582212205828ed44919e20a58858b140ec13cc1df0f45dd86e9ab3b2b18f3880bbb4359164736f6c63430008110033",
  "linkReferences": {},
  "deployedLinkReferences": {}
}