{
  "_format": "hh-sol-artifact-1",
  "contractName": "Verifier",
  "sourceName": "contracts/Verifier.sol",
  "abi": [
    {
      "inputs": [],
      "stateMutability": "nonpayable",
      "type": "constructor"
    },
    {
      "inputs": [
        {
          "internalType": "uint256[2]",
          "name": "_pA",
          "type": "uint256[2]"
        },
        {
          "internalType": "uint256[2][2]",
          "name": "_pB",
          "type": "uint256[2][2]"
        },
        {
          "internalType": "uint256[2]",
          "name": "_pC",
          "type": "uint256[2]"
        },
        {
          "internalType": "uint256[3]",
          "name": "_pubSignals",
          "type": "uint256[3]"
        }
      ],
      "name": "verifyProof",
      "outputs": [
        {
          "internalType": "bool",
          "name": "r",
          "type": "bool"
        }
      ],
      "stateMutability": "view",
      "type": "function"
    },
    {
      "inputs": [
        {
          "internalType": "uint256",
          "name": "",
          "type": "uint256"
        }
      ],
      "name": "vk_alpha_1",
      "outputs": [
        {
          "internalType": "uint256",
          "name": "",
          "type": "uint256"
        }
      ],
      "stateMutability": "view",
      "type": "function"
    },
    {
      "inputs": [
        {
          "internalType": "uint256",
          "name": "",
          "type": "uint256"
        },
        {
          "internalType": "uint256",
          "name": "",
          "type": "uint256"
        }
      ],
      "name": "vk_beta_2",
      "outputs": [
        {
          "internalType": "uint256",
          "name": "",
          "type": "uint256"
        }
      ],
      "stateMutability": "view",
      "type": "function"
    },
    {
      "inputs": [
        {
          "internalType": "uint256",
          "name": "",
          "type": "uint256"
        },
        {
          "internalType": "uint256",
          "name": "",
          "type": "uint256"
        }
      ],
      "name": "vk_delta_2",
      "outputs": [
        {
          "internalType": "uint256",
          "name": "",
          "type": "uint256"
        }
      ],
      "stateMutability": "view",
      "type": "function"
    },
    {
      "inputs": [
        {
          "internalType": "uint256",
          "name": "",
          "type": "uint256"
        },
        {
          "internalType": "uint256",
          "name": "",
          "type": "uint256"
        }
      ],
      "name": "vk_gamma_2",
      "outputs": [
        {
          "internalType": "uint256",
          "name": "",
          "type": "uint256"
        }
      ],
      "stateMutability": "view",
      "type": "function"
    },
    {
      "inputs": [
        {
          "internalType": "uint256",
          "name": "",
          "type": "uint256"
        }
      ],
      "name": "vk_ic0",
      "outputs": [
        {
          "internalType": "uint256",
          "name": "",
          "type": "uint256"
        }
      ],
      "stateMutability": "view",
      "type": "function"
    },
    {
      "inputs": [
        {
          "internalType": "uint256",
          "name": "",
          "type": "uint256"
        },
        {
          "internalType": "uint256",
          "name": "",
          "type": "uint256"
        }
      ],
      "name": "vk_ic_public",
      "outputs": [
        {
          "internalType": "uint256",
          "name": "",
          "type": "uint256"
        }
      ],
      "stateMutability": "view",
      "type": "function"
    }
  ],
  "bytecode": "0x60808060405234610016576104a8908161001c8239f35b600080fdfe604060808152600436101561001357600080fd5b600090813560e01c806311479fea146101bd5780631e05be571461018857806340f66dd9146101535780636983a03d1461011057806378cf0dfb146100e3578063909eb5ba1461009d5763ec5eb5271461006c57600080fd5b346100995760203660031901126100995760043560028110156100955760209250549051908152f35b8280fd5b5080fd5b5034610099576100ac36610389565b9260038210156100e05760028410156100e057506020926100d29160011b6010016103a4565b90549060031b1c9051908152f35b80fd5b50346100995760203660031901126100995760043560028110156100955760209250600e01549051908152f35b50346100995761011f36610389565b9260028210156100e05760028410156100e057506020926101459160011b600a016103a4565b91905490519160031b1c8152f35b50346100995761016236610389565b9260028210156100e05760028410156100e057506020926101459160011b6002016103a4565b50346100995761019736610389565b9260028210156100e05760028410156100e057506020926101459160011b6006016103a4565b503461009957610160366003190112610099573660231215610099576101e1610353565b90816044923684116102de576004905b848210610343575050366063121561033f5761020b610353565b8060c49436861161033b57905b8582106102e25750503660e312156102de57610232610353565b9081610104953687116102da57905b8682106102ca5750503661012312156102c6578351926060840184811067ffffffffffffffff8211176102b257855283610164963688116102ae5760209850905b87821061029f5750506102969495506103ca565b90519015158152f35b81358152908801908801610282565b8880fd5b634e487b7160e01b88526041600452602488fd5b8580fd5b8135815260209182019101610241565b8780fd5b8480fd5b36601f8301121561033b576102f5610353565b808684013681116103375791879285949294905b80821061032157505081529201916020019050610218565b813586526020958601958a955090910190610309565b8980fd5b8680fd5b8380fd5b81358152602091820191016101f1565b604051906040820182811067ffffffffffffffff82111761037357604052565b634e487b7160e01b600052604160045260246000fd5b604090600319011261039f576004359060243590565b600080fd5b60028210156103b4570190600090565b634e487b7160e01b600052603260045260246000fd5b9291909260009283905b60038210610437575050511515928361042b575b5082610420575b5081610416575b508061040b575b61040657600190565b600190565b5060005415156103fd565b90501515386103f6565b5115159150386103ef565b515115159250386103e8565b90938460051b820151810180911161045c5793600019811461045c57600101906103d4565b634e487b7160e01b600052601160045260246000fdfea264697066735822122029f2d9b94aae6579d015526ddc91b8d045d390c650496937455897a2ddd1f8b264736f6c63430008110033",
  "linkReferences": {},
  "deployedLinkReferences": {}
}